{
  "contractName": "SocialNetwork",
  "abi": [
    {
      "constant": true,
      "inputs": [],
      "name": "name",
      "outputs": [
        {
          "name": "",
          "type": "string"
        }
      ],
      "payable": false,
      "stateMutability": "view",
      "type": "function",
      "signature": "0x06fdde03"
    },
    {
      "constant": true,
      "inputs": [
        {
          "name": "",
          "type": "uint256"
        }
      ],
      "name": "docs",
      "outputs": [
        {
          "name": "id",
          "type": "uint256"
        },
        {
          "name": "appId",
          "type": "uint256"
        },
        {
          "name": "aerodromeManual",
          "type": "string"
        },
        {
          "name": "licensingFee",
          "type": "string"
        },
        {
          "name": "CARcompliance",
          "type": "string"
        },
        {
          "name": "exceptionsDoc",
          "type": "string"
        }
      ],
      "payable": false,
      "stateMutability": "view",
      "type": "function",
      "signature": "0x23389c5a"
    },
    {
      "constant": true,
      "inputs": [],
      "name": "docCount",
      "outputs": [
        {
          "name": "",
          "type": "uint256"
        }
      ],
      "payable": false,
      "stateMutability": "view",
      "type": "function",
      "signature": "0x4c4dc6e0"
    },
    {
      "constant": true,
      "inputs": [
        {
          "name": "",
          "type": "uint256"
        }
      ],
      "name": "apps",
      "outputs": [
        {
          "name": "appId",
          "type": "uint256"
        },
        {
          "name": "airportCode",
          "type": "string"
        },
        {
          "name": "id",
          "type": "uint256"
        },
        {
          "name": "state",
          "type": "string"
        },
        {
          "name": "timestamp",
          "type": "string"
        },
        {
          "name": "author",
          "type": "address"
        }
      ],
      "payable": false,
      "stateMutability": "view",
      "type": "function",
      "signature": "0x61acc37e"
    },
    {
      "constant": true,
      "inputs": [],
      "name": "appCount",
      "outputs": [
        {
          "name": "",
          "type": "uint256"
        }
      ],
      "payable": false,
      "stateMutability": "view",
      "type": "function",
      "signature": "0xb55ca2c3"
    },
    {
      "inputs": [],
      "payable": false,
      "stateMutability": "nonpayable",
      "type": "constructor",
      "signature": "constructor"
    },
    {
      "anonymous": false,
      "inputs": [
        {
          "indexed": false,
          "name": "appId",
          "type": "uint256"
        },
        {
          "indexed": false,
          "name": "airportCode",
          "type": "string"
        },
        {
          "indexed": false,
          "name": "id",
          "type": "uint256"
        },
        {
          "indexed": false,
          "name": "state",
          "type": "string"
        },
        {
          "indexed": false,
          "name": "timestamp",
          "type": "string"
        },
        {
          "indexed": false,
          "name": "author",
          "type": "address"
        }
      ],
      "name": "AppCreated",
      "type": "event",
      "signature": "0x0ef03d65558316611b793a11377006b8fa251da66e5528a724d893e2ed81c066"
    },
    {
      "anonymous": false,
      "inputs": [
        {
          "indexed": false,
          "name": "id",
          "type": "uint256"
        },
        {
          "indexed": false,
          "name": "appId",
          "type": "uint256"
        },
        {
          "indexed": false,
          "name": "aerodromeManual",
          "type": "string"
        },
        {
          "indexed": false,
          "name": "licensingFee",
          "type": "string"
        },
        {
          "indexed": false,
          "name": "CARcompliance",
          "type": "string"
        },
        {
          "indexed": false,
          "name": "exceptionsDoc",
          "type": "string"
        }
      ],
      "name": "DocCreated",
      "type": "event",
      "signature": "0x1b671bbb64565da7b45ceaf6219bba3fd668049056ae524576932af0d7834f04"
    },
    {
      "anonymous": false,
      "inputs": [
        {
          "indexed": false,
          "name": "id",
          "type": "uint256"
        },
        {
          "indexed": false,
          "name": "appId",
          "type": "uint256"
        },
        {
          "indexed": false,
          "name": "aerodromeManual",
          "type": "string"
        },
        {
          "indexed": false,
          "name": "licensingFee",
          "type": "string"
        },
        {
          "indexed": false,
          "name": "CARcompliance",
          "type": "string"
        },
        {
          "indexed": false,
          "name": "exceptionsDoc",
          "type": "string"
        }
      ],
      "name": "DocIdUpdated",
      "type": "event",
      "signature": "0x9d50b47023a2f7f31702ba419b0bd9b107b9a68a714037da3b56e168e84a5134"
    },
    {
      "anonymous": false,
      "inputs": [
        {
          "indexed": false,
          "name": "appId",
          "type": "uint256"
        },
        {
          "indexed": false,
          "name": "airportCode",
          "type": "string"
        },
        {
          "indexed": false,
          "name": "id",
          "type": "uint256"
        },
        {
          "indexed": false,
          "name": "state",
          "type": "string"
        },
        {
          "indexed": false,
          "name": "timestamp",
          "type": "string"
        },
        {
          "indexed": false,
          "name": "author",
          "type": "address"
        }
      ],
      "name": "AppIssued",
      "type": "event",
      "signature": "0x45baadd18d4e1f978b94605de81343ac320dc23543ccb3ef3add079d355b9f79"
    },
    {
      "anonymous": false,
      "inputs": [
        {
          "indexed": false,
          "name": "appId",
          "type": "uint256"
        },
        {
          "indexed": false,
          "name": "airportCode",
          "type": "string"
        },
        {
          "indexed": false,
          "name": "id",
          "type": "uint256"
        },
        {
          "indexed": false,
          "name": "state",
          "type": "string"
        },
        {
          "indexed": false,
          "name": "timestamp",
          "type": "string"
        },
        {
          "indexed": false,
          "name": "author",
          "type": "address"
        }
      ],
      "name": "AppAssigned",
      "type": "event",
      "signature": "0xbd80e31258ae44f7055fcf6e9b625493f6aec6ce712291a1f83054c33251f05b"
    },
    {
      "anonymous": false,
      "inputs": [
        {
          "indexed": false,
          "name": "appId",
          "type": "uint256"
        },
        {
          "indexed": false,
          "name": "airportCode",
          "type": "string"
        },
        {
          "indexed": false,
          "name": "id",
          "type": "uint256"
        },
        {
          "indexed": false,
          "name": "state",
          "type": "string"
        },
        {
          "indexed": false,
          "name": "timestamp",
          "type": "string"
        },
        {
          "indexed": false,
          "name": "author",
          "type": "address"
        }
      ],
      "name": "AppApproved",
      "type": "event",
      "signature": "0x277977b4f187cd818f93685ee6be069743e776844ff677bc918a96851c75048f"
    },
    {
      "anonymous": false,
      "inputs": [
        {
          "indexed": false,
          "name": "appId",
          "type": "uint256"
        },
        {
          "indexed": false,
          "name": "airportCode",
          "type": "string"
        },
        {
          "indexed": false,
          "name": "id",
          "type": "uint256"
        },
        {
          "indexed": false,
          "name": "state",
          "type": "string"
        },
        {
          "indexed": false,
          "name": "timestamp",
          "type": "string"
        },
        {
          "indexed": false,
          "name": "author",
          "type": "address"
        }
      ],
      "name": "AppRejected",
      "type": "event",
      "signature": "0xf83d4a75ac129aca072a95ad913a5800f6410f3dcc9adda5975c9d883ea72cc2"
    },
    {
      "anonymous": false,
      "inputs": [
        {
          "indexed": false,
          "name": "appId",
          "type": "uint256"
        },
        {
          "indexed": false,
          "name": "airportCode",
          "type": "string"
        },
        {
          "indexed": false,
          "name": "id",
          "type": "uint256"
        },
        {
          "indexed": false,
          "name": "state",
          "type": "string"
        },
        {
          "indexed": false,
          "name": "timestamp",
          "type": "string"
        },
        {
          "indexed": false,
          "name": "author",
          "type": "address"
        }
      ],
      "name": "AppGranted",
      "type": "event",
      "signature": "0x58dbeb9cbc4d40b9f39628c5a3333a2f1a966aae432fa6639c96c197162d3fed"
    },
    {
      "anonymous": false,
      "inputs": [
        {
          "indexed": false,
          "name": "appId",
          "type": "uint256"
        },
        {
          "indexed": false,
          "name": "airportCode",
          "type": "string"
        },
        {
          "indexed": false,
          "name": "id",
          "type": "uint256"
        },
        {
          "indexed": false,
          "name": "state",
          "type": "string"
        },
        {
          "indexed": false,
          "name": "timestamp",
          "type": "string"
        },
        {
          "indexed": false,
          "name": "author",
          "type": "address"
        }
      ],
      "name": "AppRenewed",
      "type": "event",
      "signature": "0x0f60b91a7c30ace227bdd6aa6bacc80e3b14989c5bb5a689a3a84c309f238af1"
    },
    {
      "constant": true,
      "inputs": [
        {
          "name": "a",
          "type": "string"
        },
        {
          "name": "b",
          "type": "string"
        }
      ],
      "name": "compareStrings",
      "outputs": [
        {
          "name": "",
          "type": "bool"
        }
      ],
      "payable": false,
      "stateMutability": "pure",
      "type": "function",
      "signature": "0xbed34bba"
    },
    {
      "constant": false,
      "inputs": [
        {
          "name": "airportCode",
          "type": "string"
        },
        {
          "name": "doc1",
          "type": "string"
        },
        {
          "name": "doc2",
          "type": "string"
        },
        {
          "name": "doc3",
          "type": "string"
        },
        {
          "name": "doc4",
          "type": "string"
        },
        {
          "name": "timestamp",
          "type": "string"
        }
      ],
      "name": "createApp",
      "outputs": [],
      "payable": false,
      "stateMutability": "nonpayable",
      "type": "function",
      "signature": "0xaef5108f"
    },
    {
      "constant": false,
      "inputs": [
        {
          "name": "_id",
          "type": "uint256"
        },
        {
          "name": "timestamp",
          "type": "string"
        }
      ],
      "name": "issueApp",
      "outputs": [],
      "payable": false,
      "stateMutability": "nonpayable",
      "type": "function",
      "signature": "0x365f8b36"
    },
    {
      "constant": false,
      "inputs": [
        {
          "name": "_id",
          "type": "uint256"
        },
        {
          "name": "timestamp",
          "type": "string"
        }
      ],
      "name": "assignApp",
      "outputs": [],
      "payable": false,
      "stateMutability": "nonpayable",
      "type": "function",
      "signature": "0x138cfd47"
    },
    {
      "constant": false,
      "inputs": [
        {
          "name": "_id",
          "type": "uint256"
        },
        {
          "name": "timestamp",
          "type": "string"
        }
      ],
      "name": "approveApp",
      "outputs": [],
      "payable": false,
      "stateMutability": "nonpayable",
      "type": "function",
      "signature": "0x3ffddc9a"
    },
    {
      "constant": false,
      "inputs": [
        {
          "name": "_id",
          "type": "uint256"
        },
        {
          "name": "timestamp",
          "type": "string"
        }
      ],
      "name": "rejectApp",
      "outputs": [],
      "payable": false,
      "stateMutability": "nonpayable",
      "type": "function",
      "signature": "0x5d4c6d22"
    },
    {
      "constant": false,
      "inputs": [
        {
          "name": "_id",
          "type": "uint256"
        },
        {
          "name": "timestamp",
          "type": "string"
        }
      ],
      "name": "renewApp",
      "outputs": [],
      "payable": false,
      "stateMutability": "nonpayable",
      "type": "function",
      "signature": "0xee55ba3a"
    },
    {
      "constant": false,
      "inputs": [
        {
          "name": "_id",
          "type": "uint256"
        },
        {
          "name": "timestamp",
          "type": "string"
        }
      ],
      "name": "grantApp",
      "outputs": [],
      "payable": false,
      "stateMutability": "nonpayable",
      "type": "function",
      "signature": "0x989b1594"
    }
  ],
  "bytecode": "0x6080604052600060015560006002553480156200001b57600080fd5b506040805190810160405280601081526020017f416972706f727420446174616261736500000000000000000000000000000000815250600090805190602001906200006992919062000070565b506200011f565b828054600181600116156101000203166002900490600052602060002090601f016020900481019282601f10620000b357805160ff1916838001178555620000e4565b82800160010185558215620000e4579182015b82811115620000e3578251825591602001919060010190620000c6565b5b509050620000f39190620000f7565b5090565b6200011c91905b8082111562000118576000816000905550600101620000fe565b5090565b90565b614d5d806200012f6000396000f3fe6080604052600436106100c5576000357c0100000000000000000000000000000000000000000000000000000000900463ffffffff16806306fdde03146100ca578063138cfd471461015a57806323389c5a1461022c578063365f8b36146104325780633ffddc9a146105045780634c4dc6e0146105d65780635d4c6d221461060157806361acc37e146106d3578063989b1594146108a0578063aef5108f14610972578063b55ca2c314610d2d578063bed34bba14610d58578063ee55ba3a14610ecf575b600080fd5b3480156100d657600080fd5b506100df610fa1565b6040518080602001828103825283818151815260200191508051906020019080838360005b8381101561011f578082015181840152602081019050610104565b50505050905090810190601f16801561014c5780820380516001836020036101000a031916815260200191505b509250505060405180910390f35b34801561016657600080fd5b5061022a6004803603604081101561017d57600080fd5b8101908080359060200190929190803590602001906401000000008111156101a457600080fd5b8201836020820111156101b657600080fd5b803590602001918460018302840111640100000000831117156101d857600080fd5b91908080601f016020809104026020016040519081016040528093929190818152602001838380828437600081840152601f19601f82011690508083019250505050505050919291929050505061103f565b005b34801561023857600080fd5b506102656004803603602081101561024f57600080fd5b810190808035906020019092919050505061183d565b6040518087815260200186815260200180602001806020018060200180602001858103855289818151815260200191508051906020019080838360005b838110156102bd5780820151818401526020810190506102a2565b50505050905090810190601f1680156102ea5780820380516001836020036101000a031916815260200191505b50858103845288818151815260200191508051906020019080838360005b83811015610323578082015181840152602081019050610308565b50505050905090810190601f1680156103505780820380516001836020036101000a031916815260200191505b50858103835287818151815260200191508051906020019080838360005b8381101561038957808201518184015260208101905061036e565b50505050905090810190601f1680156103b65780820380516001836020036101000a031916815260200191505b50858103825286818151815260200191508051906020019080838360005b838110156103ef5780820151818401526020810190506103d4565b50505050905090810190601f16801561041c5780820380516001836020036101000a031916815260200191505b509a505050505050505050505060405180910390f35b34801561043e57600080fd5b506105026004803603604081101561045557600080fd5b81019080803590602001909291908035906020019064010000000081111561047c57600080fd5b82018360208201111561048e57600080fd5b803590602001918460018302840111640100000000831117156104b057600080fd5b91908080601f016020809104026020016040519081016040528093929190818152602001838380828437600081840152601f19601f820116905080830192505050505050509192919290505050611ad9565b005b34801561051057600080fd5b506105d46004803603604081101561052757600080fd5b81019080803590602001909291908035906020019064010000000081111561054e57600080fd5b82018360208201111561056057600080fd5b8035906020019184600183028401116401000000008311171561058257600080fd5b91908080601f016020809104026020016040519081016040528093929190818152602001838380828437600081840152601f19601f8201169050808301925050505050505091929192905050506122d7565b005b3480156105e257600080fd5b506105eb612ad5565b6040518082815260200191505060405180910390f35b34801561060d57600080fd5b506106d16004803603604081101561062457600080fd5b81019080803590602001909291908035906020019064010000000081111561064b57600080fd5b82018360208201111561065d57600080fd5b8035906020019184600183028401116401000000008311171561067f57600080fd5b91908080601f016020809104026020016040519081016040528093929190818152602001838380828437600081840152601f19601f820116905080830192505050505050509192919290505050612adb565b005b3480156106df57600080fd5b5061070c600480360360208110156106f657600080fd5b81019080803590602001909291905050506132d9565b604051808781526020018060200186815260200180602001806020018573ffffffffffffffffffffffffffffffffffffffff1673ffffffffffffffffffffffffffffffffffffffff168152602001848103845289818151815260200191508051906020019080838360005b83811015610792578082015181840152602081019050610777565b50505050905090810190601f1680156107bf5780820380516001836020036101000a031916815260200191505b50848103835287818151815260200191508051906020019080838360005b838110156107f85780820151818401526020810190506107dd565b50505050905090810190601f1680156108255780820380516001836020036101000a031916815260200191505b50848103825286818151815260200191508051906020019080838360005b8381101561085e578082015181840152602081019050610843565b50505050905090810190601f16801561088b5780820380516001836020036101000a031916815260200191505b50995050505050505050505060405180910390f35b3480156108ac57600080fd5b50610970600480360360408110156108c357600080fd5b8101908080359060200190929190803590602001906401000000008111156108ea57600080fd5b8201836020820111156108fc57600080fd5b8035906020019184600183028401116401000000008311171561091e57600080fd5b91908080601f016020809104026020016040519081016040528093929190818152602001838380828437600081840152601f19601f8201169050808301925050505050505091929192905050506134fd565b005b34801561097e57600080fd5b50610d2b600480360360c081101561099557600080fd5b81019080803590602001906401000000008111156109b257600080fd5b8201836020820111156109c457600080fd5b803590602001918460018302840111640100000000831117156109e657600080fd5b91908080601f016020809104026020016040519081016040528093929190818152602001838380828437600081840152601f19601f82011690508083019250505050505050919291929080359060200190640100000000811115610a4957600080fd5b820183602082011115610a5b57600080fd5b80359060200191846001830284011164010000000083111715610a7d57600080fd5b91908080601f016020809104026020016040519081016040528093929190818152602001838380828437600081840152601f19601f82011690508083019250505050505050919291929080359060200190640100000000811115610ae057600080fd5b820183602082011115610af257600080fd5b80359060200191846001830284011164010000000083111715610b1457600080fd5b91908080601f016020809104026020016040519081016040528093929190818152602001838380828437600081840152601f19601f82011690508083019250505050505050919291929080359060200190640100000000811115610b7757600080fd5b820183602082011115610b8957600080fd5b80359060200191846001830284011164010000000083111715610bab57600080fd5b91908080601f016020809104026020016040519081016040528093929190818152602001838380828437600081840152601f19601f82011690508083019250505050505050919291929080359060200190640100000000811115610c0e57600080fd5b820183602082011115610c2057600080fd5b80359060200191846001830284011164010000000083111715610c4257600080fd5b91908080601f016020809104026020016040519081016040528093929190818152602001838380828437600081840152601f19601f82011690508083019250505050505050919291929080359060200190640100000000811115610ca557600080fd5b820183602082011115610cb757600080fd5b80359060200191846001830284011164010000000083111715610cd957600080fd5b91908080601f016020809104026020016040519081016040528093929190818152602001838380828437600081840152601f19601f820116905080830192505050505050509192919290505050613cfb565b005b348015610d3957600080fd5b50610d42614311565b6040518082815260200191505060405180910390f35b348015610d6457600080fd5b50610eb560048036036040811015610d7b57600080fd5b8101908080359060200190640100000000811115610d9857600080fd5b820183602082011115610daa57600080fd5b80359060200191846001830284011164010000000083111715610dcc57600080fd5b91908080601f016020809104026020016040519081016040528093929190818152602001838380828437600081840152601f19601f82011690508083019250505050505050919291929080359060200190640100000000811115610e2f57600080fd5b820183602082011115610e4157600080fd5b80359060200191846001830284011164010000000083111715610e6357600080fd5b91908080601f016020809104026020016040519081016040528093929190818152602001838380828437600081840152601f19601f820116905080830192505050505050509192919290505050614317565b604051808215151515815260200191505060405180910390f35b348015610edb57600080fd5b50610f9f60048036036040811015610ef257600080fd5b810190808035906020019092919080359060200190640100000000811115610f1957600080fd5b820183602082011115610f2b57600080fd5b80359060200191846001830284011164010000000083111715610f4d57600080fd5b91908080601f016020809104026020016040519081016040528093929190818152602001838380828437600081840152601f19601f82011690508083019250505050505050919291929050505061440a565b005b60008054600181600116156101000203166002900480601f0160208091040260200160405190810160405280929190818152602001828054600181600116156101000203166002900480156110375780601f1061100c57610100808354040283529160200191611037565b820191906000526020600020905b81548152906001019060200180831161101a57829003601f168201915b505050505081565b60008211801561105157506001548211155b151561105c57600080fd5b611064614c08565b6003600084815260200190815260200160002060c0604051908101604052908160008201548152602001600182018054600181600116156101000203166002900480601f0160208091040260200160405190810160405280929190818152602001828054600181600116156101000203166002900480156111265780601f106110fb57610100808354040283529160200191611126565b820191906000526020600020905b81548152906001019060200180831161110957829003601f168201915b5050505050815260200160028201548152602001600382018054600181600116156101000203166002900480601f0160208091040260200160405190810160405280929190818152602001828054600181600116156101000203166002900480156111d25780601f106111a7576101008083540402835291602001916111d2565b820191906000526020600020905b8154815290600101906020018083116111b557829003601f168201915b50505050508152602001600482018054600181600116156101000203166002900480601f0160208091040260200160405190810160405280929190818152602001828054600181600116156101000203166002900480156112745780601f1061124957610100808354040283529160200191611274565b820191906000526020600020905b81548152906001019060200180831161125757829003601f168201915b505050505081526020016005820160009054906101000a900473ffffffffffffffffffffffffffffffffffffffff1673ffffffffffffffffffffffffffffffffffffffff1673ffffffffffffffffffffffffffffffffffffffff168152505090506112dd614c55565b600460008360400151815260200190815260200160002060c060405190810160405290816000820154815260200160018201548152602001600282018054600181600116156101000203166002900480601f0160208091040260200160405190810160405280929190818152602001828054600181600116156101000203166002900480156113ad5780601f10611382576101008083540402835291602001916113ad565b820191906000526020600020905b81548152906001019060200180831161139057829003601f168201915b50505050508152602001600382018054600181600116156101000203166002900480601f01602080910402602001604051908101604052809291908181526020018280546001816001161561010002031660029004801561144f5780601f106114245761010080835404028352916020019161144f565b820191906000526020600020905b81548152906001019060200180831161143257829003601f168201915b50505050508152602001600482018054600181600116156101000203166002900480601f0160208091040260200160405190810160405280929190818152602001828054600181600116156101000203166002900480156114f15780601f106114c6576101008083540402835291602001916114f1565b820191906000526020600020905b8154815290600101906020018083116114d457829003601f168201915b50505050508152602001600582018054600181600116156101000203166002900480601f0160208091040260200160405190810160405280929190818152602001828054600181600116156101000203166002900480156115935780601f1061156857610100808354040283529160200191611593565b820191906000526020600020905b81548152906001019060200180831161157657829003601f168201915b50505050508152505090506040805190810160405280600881526020017f61737369676e656400000000000000000000000000000000000000000000000081525082606001819052508160036000868152602001908152602001600020600082015181600001556020820151816001019080519060200190611616929190614c8c565b5060408201518160020155606082015181600301908051906020019061163d929190614c8c565b50608082015181600401908051906020019061165a929190614c8c565b5060a08201518160050160006101000a81548173ffffffffffffffffffffffffffffffffffffffff021916908373ffffffffffffffffffffffffffffffffffffffff1602179055509050507fbd80e31258ae44f7055fcf6e9b625493f6aec6ce712291a1f83054c33251f05b8260000151836020015183600001518633604051808681526020018060200185815260200180602001806020018573ffffffffffffffffffffffffffffffffffffffff1673ffffffffffffffffffffffffffffffffffffffff168152602001848103845288818151815260200191508051906020019080838360005b8381101561175d578082015181840152602081019050611742565b50505050905090810190601f16801561178a5780820380516001836020036101000a031916815260200191505b50848103835260088152602001807f61737369676e6564000000000000000000000000000000000000000000000000815250602001848103825286818151815260200191508051906020019080838360005b838110156117f75780820151818401526020810190506117dc565b50505050905090810190601f1680156118245780820380516001836020036101000a031916815260200191505b509850505050505050505060405180910390a150505050565b6004602052806000526040600020600091509050806000015490806001015490806002018054600181600116156101000203166002900480601f0160208091040260200160405190810160405280929190818152602001828054600181600116156101000203166002900480156118f55780601f106118ca576101008083540402835291602001916118f5565b820191906000526020600020905b8154815290600101906020018083116118d857829003601f168201915b505050505090806003018054600181600116156101000203166002900480601f0160208091040260200160405190810160405280929190818152602001828054600181600116156101000203166002900480156119935780601f1061196857610100808354040283529160200191611993565b820191906000526020600020905b81548152906001019060200180831161197657829003601f168201915b505050505090806004018054600181600116156101000203166002900480601f016020809104026020016040519081016040528092919081815260200182805460018160011615610100020316600290048015611a315780601f10611a0657610100808354040283529160200191611a31565b820191906000526020600020905b815481529060010190602001808311611a1457829003601f168201915b505050505090806005018054600181600116156101000203166002900480601f016020809104026020016040519081016040528092919081815260200182805460018160011615610100020316600290048015611acf5780601f10611aa457610100808354040283529160200191611acf565b820191906000526020600020905b815481529060010190602001808311611ab257829003601f168201915b5050505050905086565b600082118015611aeb57506001548211155b1515611af657600080fd5b611afe614c08565b6003600084815260200190815260200160002060c0604051908101604052908160008201548152602001600182018054600181600116156101000203166002900480601f016020809104026020016040519081016040528092919081815260200182805460018160011615610100020316600290048015611bc05780601f10611b9557610100808354040283529160200191611bc0565b820191906000526020600020905b815481529060010190602001808311611ba357829003601f168201915b5050505050815260200160028201548152602001600382018054600181600116156101000203166002900480601f016020809104026020016040519081016040528092919081815260200182805460018160011615610100020316600290048015611c6c5780601f10611c4157610100808354040283529160200191611c6c565b820191906000526020600020905b815481529060010190602001808311611c4f57829003601f168201915b50505050508152602001600482018054600181600116156101000203166002900480601f016020809104026020016040519081016040528092919081815260200182805460018160011615610100020316600290048015611d0e5780601f10611ce357610100808354040283529160200191611d0e565b820191906000526020600020905b815481529060010190602001808311611cf157829003601f168201915b505050505081526020016005820160009054906101000a900473ffffffffffffffffffffffffffffffffffffffff1673ffffffffffffffffffffffffffffffffffffffff1673ffffffffffffffffffffffffffffffffffffffff16815250509050611d77614c55565b600460008360400151815260200190815260200160002060c060405190810160405290816000820154815260200160018201548152602001600282018054600181600116156101000203166002900480601f016020809104026020016040519081016040528092919081815260200182805460018160011615610100020316600290048015611e475780601f10611e1c57610100808354040283529160200191611e47565b820191906000526020600020905b815481529060010190602001808311611e2a57829003601f168201915b50505050508152602001600382018054600181600116156101000203166002900480601f016020809104026020016040519081016040528092919081815260200182805460018160011615610100020316600290048015611ee95780601f10611ebe57610100808354040283529160200191611ee9565b820191906000526020600020905b815481529060010190602001808311611ecc57829003601f168201915b50505050508152602001600482018054600181600116156101000203166002900480601f016020809104026020016040519081016040528092919081815260200182805460018160011615610100020316600290048015611f8b5780601f10611f6057610100808354040283529160200191611f8b565b820191906000526020600020905b815481529060010190602001808311611f6e57829003601f168201915b50505050508152602001600582018054600181600116156101000203166002900480601f01602080910402602001604051908101604052809291908181526020018280546001816001161561010002031660029004801561202d5780601f106120025761010080835404028352916020019161202d565b820191906000526020600020905b81548152906001019060200180831161201057829003601f168201915b50505050508152505090506040805190810160405280600681526020017f6973737565640000000000000000000000000000000000000000000000000000815250826060018190525081600360008681526020019081526020016000206000820151816000015560208201518160010190805190602001906120b0929190614c8c565b506040820151816002015560608201518160030190805190602001906120d7929190614c8c565b5060808201518160040190805190602001906120f4929190614c8c565b5060a08201518160050160006101000a81548173ffffffffffffffffffffffffffffffffffffffff021916908373ffffffffffffffffffffffffffffffffffffffff1602179055509050507f45baadd18d4e1f978b94605de81343ac320dc23543ccb3ef3add079d355b9f798260000151836020015183600001518633604051808681526020018060200185815260200180602001806020018573ffffffffffffffffffffffffffffffffffffffff1673ffffffffffffffffffffffffffffffffffffffff168152602001848103845288818151815260200191508051906020019080838360005b838110156121f75780820151818401526020810190506121dc565b50505050905090810190601f1680156122245780820380516001836020036101000a031916815260200191505b50848103835260068152602001807f6973737565640000000000000000000000000000000000000000000000000000815250602001848103825286818151815260200191508051906020019080838360005b83811015612291578082015181840152602081019050612276565b50505050905090810190601f1680156122be5780820380516001836020036101000a031916815260200191505b509850505050505050505060405180910390a150505050565b6000821180156122e957506001548211155b15156122f457600080fd5b6122fc614c08565b6003600084815260200190815260200160002060c0604051908101604052908160008201548152602001600182018054600181600116156101000203166002900480601f0160208091040260200160405190810160405280929190818152602001828054600181600116156101000203166002900480156123be5780601f10612393576101008083540402835291602001916123be565b820191906000526020600020905b8154815290600101906020018083116123a157829003601f168201915b5050505050815260200160028201548152602001600382018054600181600116156101000203166002900480601f01602080910402602001604051908101604052809291908181526020018280546001816001161561010002031660029004801561246a5780601f1061243f5761010080835404028352916020019161246a565b820191906000526020600020905b81548152906001019060200180831161244d57829003601f168201915b50505050508152602001600482018054600181600116156101000203166002900480601f01602080910402602001604051908101604052809291908181526020018280546001816001161561010002031660029004801561250c5780601f106124e15761010080835404028352916020019161250c565b820191906000526020600020905b8154815290600101906020018083116124ef57829003601f168201915b505050505081526020016005820160009054906101000a900473ffffffffffffffffffffffffffffffffffffffff1673ffffffffffffffffffffffffffffffffffffffff1673ffffffffffffffffffffffffffffffffffffffff16815250509050612575614c55565b600460008360400151815260200190815260200160002060c060405190810160405290816000820154815260200160018201548152602001600282018054600181600116156101000203166002900480601f0160208091040260200160405190810160405280929190818152602001828054600181600116156101000203166002900480156126455780601f1061261a57610100808354040283529160200191612645565b820191906000526020600020905b81548152906001019060200180831161262857829003601f168201915b50505050508152602001600382018054600181600116156101000203166002900480601f0160208091040260200160405190810160405280929190818152602001828054600181600116156101000203166002900480156126e75780601f106126bc576101008083540402835291602001916126e7565b820191906000526020600020905b8154815290600101906020018083116126ca57829003601f168201915b50505050508152602001600482018054600181600116156101000203166002900480601f0160208091040260200160405190810160405280929190818152602001828054600181600116156101000203166002900480156127895780601f1061275e57610100808354040283529160200191612789565b820191906000526020600020905b81548152906001019060200180831161276c57829003601f168201915b50505050508152602001600582018054600181600116156101000203166002900480601f01602080910402602001604051908101604052809291908181526020018280546001816001161561010002031660029004801561282b5780601f106128005761010080835404028352916020019161282b565b820191906000526020600020905b81548152906001019060200180831161280e57829003601f168201915b50505050508152505090506040805190810160405280600881526020017f617070726f766564000000000000000000000000000000000000000000000000815250826060018190525081600360008681526020019081526020016000206000820151816000015560208201518160010190805190602001906128ae929190614c8c565b506040820151816002015560608201518160030190805190602001906128d5929190614c8c565b5060808201518160040190805190602001906128f2929190614c8c565b5060a08201518160050160006101000a81548173ffffffffffffffffffffffffffffffffffffffff021916908373ffffffffffffffffffffffffffffffffffffffff1602179055509050507f277977b4f187cd818f93685ee6be069743e776844ff677bc918a96851c75048f8260000151836020015183600001518633604051808681526020018060200185815260200180602001806020018573ffffffffffffffffffffffffffffffffffffffff1673ffffffffffffffffffffffffffffffffffffffff168152602001848103845288818151815260200191508051906020019080838360005b838110156129f55780820151818401526020810190506129da565b50505050905090810190601f168015612a225780820380516001836020036101000a031916815260200191505b50848103835260088152602001807f617070726f766564000000000000000000000000000000000000000000000000815250602001848103825286818151815260200191508051906020019080838360005b83811015612a8f578082015181840152602081019050612a74565b50505050905090810190601f168015612abc5780820380516001836020036101000a031916815260200191505b509850505050505050505060405180910390a150505050565b60025481565b600082118015612aed57506001548211155b1515612af857600080fd5b612b00614c08565b6003600084815260200190815260200160002060c0604051908101604052908160008201548152602001600182018054600181600116156101000203166002900480601f016020809104026020016040519081016040528092919081815260200182805460018160011615610100020316600290048015612bc25780601f10612b9757610100808354040283529160200191612bc2565b820191906000526020600020905b815481529060010190602001808311612ba557829003601f168201915b5050505050815260200160028201548152602001600382018054600181600116156101000203166002900480601f016020809104026020016040519081016040528092919081815260200182805460018160011615610100020316600290048015612c6e5780601f10612c4357610100808354040283529160200191612c6e565b820191906000526020600020905b815481529060010190602001808311612c5157829003601f168201915b50505050508152602001600482018054600181600116156101000203166002900480601f016020809104026020016040519081016040528092919081815260200182805460018160011615610100020316600290048015612d105780601f10612ce557610100808354040283529160200191612d10565b820191906000526020600020905b815481529060010190602001808311612cf357829003601f168201915b505050505081526020016005820160009054906101000a900473ffffffffffffffffffffffffffffffffffffffff1673ffffffffffffffffffffffffffffffffffffffff1673ffffffffffffffffffffffffffffffffffffffff16815250509050612d79614c55565b600460008360400151815260200190815260200160002060c060405190810160405290816000820154815260200160018201548152602001600282018054600181600116156101000203166002900480601f016020809104026020016040519081016040528092919081815260200182805460018160011615610100020316600290048015612e495780601f10612e1e57610100808354040283529160200191612e49565b820191906000526020600020905b815481529060010190602001808311612e2c57829003601f168201915b50505050508152602001600382018054600181600116156101000203166002900480601f016020809104026020016040519081016040528092919081815260200182805460018160011615610100020316600290048015612eeb5780601f10612ec057610100808354040283529160200191612eeb565b820191906000526020600020905b815481529060010190602001808311612ece57829003601f168201915b50505050508152602001600482018054600181600116156101000203166002900480601f016020809104026020016040519081016040528092919081815260200182805460018160011615610100020316600290048015612f8d5780601f10612f6257610100808354040283529160200191612f8d565b820191906000526020600020905b815481529060010190602001808311612f7057829003601f168201915b50505050508152602001600582018054600181600116156101000203166002900480601f01602080910402602001604051908101604052809291908181526020018280546001816001161561010002031660029004801561302f5780601f106130045761010080835404028352916020019161302f565b820191906000526020600020905b81548152906001019060200180831161301257829003601f168201915b50505050508152505090506040805190810160405280600881526020017f72656a6563746564000000000000000000000000000000000000000000000000815250826060018190525081600360008681526020019081526020016000206000820151816000015560208201518160010190805190602001906130b2929190614c8c565b506040820151816002015560608201518160030190805190602001906130d9929190614c8c565b5060808201518160040190805190602001906130f6929190614c8c565b5060a08201518160050160006101000a81548173ffffffffffffffffffffffffffffffffffffffff021916908373ffffffffffffffffffffffffffffffffffffffff1602179055509050507ff83d4a75ac129aca072a95ad913a5800f6410f3dcc9adda5975c9d883ea72cc28260000151836020015183600001518633604051808681526020018060200185815260200180602001806020018573ffffffffffffffffffffffffffffffffffffffff1673ffffffffffffffffffffffffffffffffffffffff168152602001848103845288818151815260200191508051906020019080838360005b838110156131f95780820151818401526020810190506131de565b50505050905090810190601f1680156132265780820380516001836020036101000a031916815260200191505b50848103835260088152602001807f72656a6563746564000000000000000000000000000000000000000000000000815250602001848103825286818151815260200191508051906020019080838360005b83811015613293578082015181840152602081019050613278565b50505050905090810190601f1680156132c05780820380516001836020036101000a031916815260200191505b509850505050505050505060405180910390a150505050565b6003602052806000526040600020600091509050806000015490806001018054600181600116156101000203166002900480601f01602080910402602001604051908101604052809291908181526020018280546001816001161561010002031660029004801561338b5780601f106133605761010080835404028352916020019161338b565b820191906000526020600020905b81548152906001019060200180831161336e57829003601f168201915b505050505090806002015490806003018054600181600116156101000203166002900480601f01602080910402602001604051908101604052809291908181526020018280546001816001161561010002031660029004801561342f5780601f106134045761010080835404028352916020019161342f565b820191906000526020600020905b81548152906001019060200180831161341257829003601f168201915b505050505090806004018054600181600116156101000203166002900480601f0160208091040260200160405190810160405280929190818152602001828054600181600116156101000203166002900480156134cd5780601f106134a2576101008083540402835291602001916134cd565b820191906000526020600020905b8154815290600101906020018083116134b057829003601f168201915b5050505050908060050160009054906101000a900473ffffffffffffffffffffffffffffffffffffffff16905086565b60008211801561350f57506001548211155b151561351a57600080fd5b613522614c08565b6003600084815260200190815260200160002060c0604051908101604052908160008201548152602001600182018054600181600116156101000203166002900480601f0160208091040260200160405190810160405280929190818152602001828054600181600116156101000203166002900480156135e45780601f106135b9576101008083540402835291602001916135e4565b820191906000526020600020905b8154815290600101906020018083116135c757829003601f168201915b5050505050815260200160028201548152602001600382018054600181600116156101000203166002900480601f0160208091040260200160405190810160405280929190818152602001828054600181600116156101000203166002900480156136905780601f1061366557610100808354040283529160200191613690565b820191906000526020600020905b81548152906001019060200180831161367357829003601f168201915b50505050508152602001600482018054600181600116156101000203166002900480601f0160208091040260200160405190810160405280929190818152602001828054600181600116156101000203166002900480156137325780601f1061370757610100808354040283529160200191613732565b820191906000526020600020905b81548152906001019060200180831161371557829003601f168201915b505050505081526020016005820160009054906101000a900473ffffffffffffffffffffffffffffffffffffffff1673ffffffffffffffffffffffffffffffffffffffff1673ffffffffffffffffffffffffffffffffffffffff1681525050905061379b614c55565b600460008360400151815260200190815260200160002060c060405190810160405290816000820154815260200160018201548152602001600282018054600181600116156101000203166002900480601f01602080910402602001604051908101604052809291908181526020018280546001816001161561010002031660029004801561386b5780601f106138405761010080835404028352916020019161386b565b820191906000526020600020905b81548152906001019060200180831161384e57829003601f168201915b50505050508152602001600382018054600181600116156101000203166002900480601f01602080910402602001604051908101604052809291908181526020018280546001816001161561010002031660029004801561390d5780601f106138e25761010080835404028352916020019161390d565b820191906000526020600020905b8154815290600101906020018083116138f057829003601f168201915b50505050508152602001600482018054600181600116156101000203166002900480601f0160208091040260200160405190810160405280929190818152602001828054600181600116156101000203166002900480156139af5780601f10613984576101008083540402835291602001916139af565b820191906000526020600020905b81548152906001019060200180831161399257829003601f168201915b50505050508152602001600582018054600181600116156101000203166002900480601f016020809104026020016040519081016040528092919081815260200182805460018160011615610100020316600290048015613a515780601f10613a2657610100808354040283529160200191613a51565b820191906000526020600020905b815481529060010190602001808311613a3457829003601f168201915b50505050508152505090506040805190810160405280600781526020017f6772616e7465640000000000000000000000000000000000000000000000000081525082606001819052508160036000868152602001908152602001600020600082015181600001556020820151816001019080519060200190613ad4929190614c8c565b50604082015181600201556060820151816003019080519060200190613afb929190614c8c565b506080820151816004019080519060200190613b18929190614c8c565b5060a08201518160050160006101000a81548173ffffffffffffffffffffffffffffffffffffffff021916908373ffffffffffffffffffffffffffffffffffffffff1602179055509050507f58dbeb9cbc4d40b9f39628c5a3333a2f1a966aae432fa6639c96c197162d3fed8260000151836020015183600001518633604051808681526020018060200185815260200180602001806020018573ffffffffffffffffffffffffffffffffffffffff1673ffffffffffffffffffffffffffffffffffffffff168152602001848103845288818151815260200191508051906020019080838360005b83811015613c1b578082015181840152602081019050613c00565b50505050905090810190601f168015613c485780820380516001836020036101000a031916815260200191505b50848103835260078152602001807f6772616e74656400000000000000000000000000000000000000000000000000815250602001848103825286818151815260200191508051906020019080838360005b83811015613cb5578082015181840152602081019050613c9a565b50505050905090810190601f168015613ce25780820380516001836020036101000a031916815260200191505b509850505050505050505060405180910390a150505050565b60008651111515613d0b57600080fd5b60008551111515613d1b57600080fd5b60008451111515613d2b57600080fd5b60008351111515613d3b57600080fd5b60008251111515613d4b57600080fd5b60016000815480929190600101919050555060026000815480929190600101919050555060c060405190810160405280600254815260200160015481526020018681526020018581526020018481526020018381525060046000600254815260200190815260200160002060008201518160000155602082015181600101556040820151816002019080519060200190613de6929190614c8c565b506060820151816003019080519060200190613e03929190614c8c565b506080820151816004019080519060200190613e20929190614c8c565b5060a0820151816005019080519060200190613e3d929190614c8c565b509050507f1b671bbb64565da7b45ceaf6219bba3fd668049056ae524576932af0d7834f04600254600154878787876040518087815260200186815260200180602001806020018060200180602001858103855289818151815260200191508051906020019080838360005b83811015613ec4578082015181840152602081019050613ea9565b50505050905090810190601f168015613ef15780820380516001836020036101000a031916815260200191505b50858103845288818151815260200191508051906020019080838360005b83811015613f2a578082015181840152602081019050613f0f565b50505050905090810190601f168015613f575780820380516001836020036101000a031916815260200191505b50858103835287818151815260200191508051906020019080838360005b83811015613f90578082015181840152602081019050613f75565b50505050905090810190601f168015613fbd5780820380516001836020036101000a031916815260200191505b50858103825286818151815260200191508051906020019080838360005b83811015613ff6578082015181840152602081019050613fdb565b50505050905090810190601f1680156140235780820380516001836020036101000a031916815260200191505b509a505050505050505050505060405180910390a160c060405190810160405280600154815260200187815260200160025481526020016040805190810160405280600781526020017f637265617465640000000000000000000000000000000000000000000000000081525081526020018281526020013373ffffffffffffffffffffffffffffffffffffffff168152506003600060015481526020019081526020016000206000820151816000015560208201518160010190805190602001906140f0929190614c8c565b50604082015181600201556060820151816003019080519060200190614117929190614c8c565b506080820151816004019080519060200190614134929190614c8c565b5060a08201518160050160006101000a81548173ffffffffffffffffffffffffffffffffffffffff021916908373ffffffffffffffffffffffffffffffffffffffff1602179055509050507f0ef03d65558316611b793a11377006b8fa251da66e5528a724d893e2ed81c066600154876002548433604051808681526020018060200185815260200180602001806020018573ffffffffffffffffffffffffffffffffffffffff1673ffffffffffffffffffffffffffffffffffffffff168152602001848103845288818151815260200191508051906020019080838360005b8381101561422f578082015181840152602081019050614214565b50505050905090810190601f16801561425c5780820380516001836020036101000a031916815260200191505b50848103835260078152602001807f6372656174656400000000000000000000000000000000000000000000000000815250602001848103825286818151815260200191508051906020019080838360005b838110156142c95780820151818401526020810190506142ae565b50505050905090810190601f1680156142f65780820380516001836020036101000a031916815260200191505b509850505050505050505060405180910390a1505050505050565b60015481565b6000816040516020018082805190602001908083835b602083101515614352578051825260208201915060208101905060208303925061432d565b6001836020036101000a03801982511681845116808217855250505050505090500191505060405160208183030381529060405280519060200120836040516020018082805190602001908083835b6020831015156143c657805182526020820191506020810190506020830392506143a1565b6001836020036101000a0380198251168184511680821785525050505050509050019150506040516020818303038152906040528051906020012014905092915050565b60008211801561441c57506001548211155b151561442757600080fd5b61442f614c08565b6003600084815260200190815260200160002060c0604051908101604052908160008201548152602001600182018054600181600116156101000203166002900480601f0160208091040260200160405190810160405280929190818152602001828054600181600116156101000203166002900480156144f15780601f106144c6576101008083540402835291602001916144f1565b820191906000526020600020905b8154815290600101906020018083116144d457829003601f168201915b5050505050815260200160028201548152602001600382018054600181600116156101000203166002900480601f01602080910402602001604051908101604052809291908181526020018280546001816001161561010002031660029004801561459d5780601f106145725761010080835404028352916020019161459d565b820191906000526020600020905b81548152906001019060200180831161458057829003601f168201915b50505050508152602001600482018054600181600116156101000203166002900480601f01602080910402602001604051908101604052809291908181526020018280546001816001161561010002031660029004801561463f5780601f106146145761010080835404028352916020019161463f565b820191906000526020600020905b81548152906001019060200180831161462257829003601f168201915b505050505081526020016005820160009054906101000a900473ffffffffffffffffffffffffffffffffffffffff1673ffffffffffffffffffffffffffffffffffffffff1673ffffffffffffffffffffffffffffffffffffffff168152505090506146a8614c55565b600460008360400151815260200190815260200160002060c060405190810160405290816000820154815260200160018201548152602001600282018054600181600116156101000203166002900480601f0160208091040260200160405190810160405280929190818152602001828054600181600116156101000203166002900480156147785780601f1061474d57610100808354040283529160200191614778565b820191906000526020600020905b81548152906001019060200180831161475b57829003601f168201915b50505050508152602001600382018054600181600116156101000203166002900480601f01602080910402602001604051908101604052809291908181526020018280546001816001161561010002031660029004801561481a5780601f106147ef5761010080835404028352916020019161481a565b820191906000526020600020905b8154815290600101906020018083116147fd57829003601f168201915b50505050508152602001600482018054600181600116156101000203166002900480601f0160208091040260200160405190810160405280929190818152602001828054600181600116156101000203166002900480156148bc5780601f10614891576101008083540402835291602001916148bc565b820191906000526020600020905b81548152906001019060200180831161489f57829003601f168201915b50505050508152602001600582018054600181600116156101000203166002900480601f01602080910402602001604051908101604052809291908181526020018280546001816001161561010002031660029004801561495e5780601f106149335761010080835404028352916020019161495e565b820191906000526020600020905b81548152906001019060200180831161494157829003601f168201915b50505050508152505090506040805190810160405280600781526020017f72656e6577656400000000000000000000000000000000000000000000000000815250826060018190525081600360008681526020019081526020016000206000820151816000015560208201518160010190805190602001906149e1929190614c8c565b50604082015181600201556060820151816003019080519060200190614a08929190614c8c565b506080820151816004019080519060200190614a25929190614c8c565b5060a08201518160050160006101000a81548173ffffffffffffffffffffffffffffffffffffffff021916908373ffffffffffffffffffffffffffffffffffffffff1602179055509050507f0f60b91a7c30ace227bdd6aa6bacc80e3b14989c5bb5a689a3a84c309f238af18260000151836020015183600001518633604051808681526020018060200185815260200180602001806020018573ffffffffffffffffffffffffffffffffffffffff1673ffffffffffffffffffffffffffffffffffffffff168152602001848103845288818151815260200191508051906020019080838360005b83811015614b28578082015181840152602081019050614b0d565b50505050905090810190601f168015614b555780820380516001836020036101000a031916815260200191505b50848103835260078152602001807f72656e6577656400000000000000000000000000000000000000000000000000815250602001848103825286818151815260200191508051906020019080838360005b83811015614bc2578082015181840152602081019050614ba7565b50505050905090810190601f168015614bef5780820380516001836020036101000a031916815260200191505b509850505050505050505060405180910390a150505050565b60c0604051908101604052806000815260200160608152602001600081526020016060815260200160608152602001600073ffffffffffffffffffffffffffffffffffffffff1681525090565b60c0604051908101604052806000815260200160008152602001606081526020016060815260200160608152602001606081525090565b828054600181600116156101000203166002900490600052602060002090601f016020900481019282601f10614ccd57805160ff1916838001178555614cfb565b82800160010185558215614cfb579182015b82811115614cfa578251825591602001919060010190614cdf565b5b509050614d089190614d0c565b5090565b614d2e91905b80821115614d2a576000816000905550600101614d12565b5090565b9056fea165627a7a723058209f7d9148e0b399870c7eb63692dc2b5e292c2af069cb7cd4a9d85786ffe3c0a90029",
  "source": "pragma solidity >=0.4.16 <0.7.0;\n//pragma experimental ABIEncoderV2;\n\ncontract SocialNetwork {\n    // State variable\n    string public name;\n    uint public appCount = 0;\n    uint public docCount =0;\n\n    mapping(uint => Application) public apps;\n    mapping(uint => Document) public docs;\n    \n    struct Document {\n        uint id;\n        uint appId;\n        string aerodromeManual;\n        string licensingFee;\n        string CARcompliance;\n        string exceptionsDoc;\n    }\n\n    struct Application{\n        uint appId;\n        string airportCode;\n        uint id;\n        string state;\n        string timestamp;\n        address payable author;\n    }\n\n    event AppCreated(\n        uint appId,\n        string airportCode,\n        uint id,\n        string state,\n        string timestamp,\n        address payable author\n    );\n\n    event DocCreated(\n       uint id,\n        uint appId,\n        string aerodromeManual,\n        string licensingFee,\n        string CARcompliance,\n        string exceptionsDoc\n    );\n\n    event DocIdUpdated(\n       uint id,\n        uint appId,\n        string aerodromeManual,\n        string licensingFee,\n        string CARcompliance,\n        string exceptionsDoc\n    );\n\n    event AppIssued(\n        uint appId,\n        string airportCode,\n        uint id,\n        string state,\n        string timestamp,\n        address payable author\n    );\n\nevent AppAssigned(\n        uint appId,\n        string airportCode,\n        uint id,\n        string state,\n        string timestamp,\n        address payable author\n    );\n    \n event AppApproved(\n    uint appId,\n    string airportCode,\n    uint id,\n    string state,\n    string timestamp,\n    address payable author\n);\n\n event AppRejected(\n    uint appId,\n    string airportCode,\n    uint id,\n    string state,\n    string timestamp,\n    address payable author\n);\n\n event AppGranted(\n    uint appId,\n    string airportCode,\n    uint id,\n    string state,\n    string timestamp,\n    address payable author\n);\n\n event AppRenewed(\n    uint appId,\n    string airportCode,\n    uint id,\n    string state,\n    string timestamp,\n    address payable author\n);\n    // Constructor function\n    constructor () public {\n        name = \"Airport Database\";\n    }\n\n    function compareStrings (string memory a, string memory b) public pure returns (bool) {\n        return (keccak256(abi.encodePacked((a))) == keccak256(abi.encodePacked((b))) );\n\n       }\n\n   function createApp(string memory airportCode, string memory doc1, string memory doc2, string memory doc3,string memory doc4, string memory timestamp) \n   public {\n    // Compulsory requires an airportcode\n    require(bytes(airportCode).length > 0);\n    require(bytes(doc1).length>0);\n    require(bytes(doc2).length>0);\n    require(bytes(doc3).length>0);\n    require(bytes(doc4).length>0);\n    // Increment the application count\n    appCount ++;\n    docCount ++;\n    //Create the document first\n    docs[docCount] = Document(docCount,appCount,doc1,doc2,doc3,doc4);\n    emit DocCreated(docCount,appCount,doc1,doc2,doc3,doc4);\n    // Create the application\n    apps[appCount] = Application(appCount,airportCode,docCount,\"created\",timestamp,msg.sender);\n    // Trigger event\n    emit AppCreated(appCount,airportCode,docCount,\"created\",timestamp,msg.sender);\n}\n\n function issueApp(uint _id, string memory timestamp) public {\n    //Require valid ID\n    require(_id > 0 && _id <= appCount);\n    //fetch the application and document \n    Application memory app = apps[_id];\n    Document memory doc = docs[app.id];\n        // If the state of the application is created only then the further state change will taake place\n        // if(compareStrings(app.state,\"created\")){\n            //Change the state of the application\n             app.state=\"issued\";\n            //Update the application\n             apps[_id] = app;\n            //Trigger event\n             emit AppIssued(app.appId,app.airportCode,doc.id,\"issued\",timestamp,msg.sender);\n        // }\n}\n\n\nfunction assignApp(uint _id, string memory timestamp) public {\n   //Require valid ID\n    require(_id > 0 && _id <= appCount);\n    //fetch the application and document \n    Application memory app = apps[_id];\n    Document memory doc = docs[app.id];\n        // If the state of the application is issued only then the further state change will take place\n       // if(compareStrings(app.state,\"issued\")){\n            //Change the state of the application\n             app.state=\"assigned\";\n            //Update the application\n             apps[_id] = app;\n            //Trigger event\n             emit AppAssigned(app.appId,app.airportCode,doc.id,\"assigned\",timestamp,msg.sender);\n       // }\n}\n\nfunction approveApp(uint _id, string memory timestamp) public {\n   //Require valid ID\n    require(_id > 0 && _id <= appCount);\n    //fetch the application and document \n    Application memory app = apps[_id];\n    Document memory doc = docs[app.id];\n        // If the state of the application is assigned only then the further state change will take place\n        //if(compareStrings(app.state,\"assigned\")){\n            //Change the state of the application\n             app.state=\"approved\";\n            //Update the application\n             apps[_id] = app;\n            //Trigger event\n             emit AppApproved(app.appId,app.airportCode,doc.id,\"approved\",timestamp,msg.sender);\n       // }\n}\n\nfunction rejectApp(uint _id, string memory timestamp) public {\n   //Require valid ID\n    require(_id > 0 && _id <= appCount);\n    //fetch the application and document \n    Application memory app = apps[_id];\n    Document memory doc = docs[app.id];\n        // If the state of the application is assigned only then the further state change will take place\n        //if(compareStrings(app.state,\"assigned\")){\n            //Change the state of the application\n             app.state=\"rejected\";\n            //Update the application\n             apps[_id] = app;\n            //Trigger event\n             emit AppRejected(app.appId,app.airportCode,doc.id,\"rejected\",timestamp,msg.sender);\n       // }\n}\n\nfunction renewApp(uint _id, string memory timestamp) public {\n   //Require valid ID\n    require(_id > 0 && _id <= appCount);\n    //fetch the application and document \n    Application memory app = apps[_id];\n    Document memory doc = docs[app.id];\n        // validation of state is not used here because this function is used twice. \n            //Change the state of the application\n             app.state=\"renewed\";\n            //Update the application\n             apps[_id] = app;\n            //Trigger event\n             emit AppRenewed(app.appId,app.airportCode,doc.id,\"renewed\",timestamp,msg.sender);\n        }\n\nfunction grantApp(uint _id, string memory timestamp) public {\n    //Require valid ID\n    require(_id > 0 && _id <= appCount);\n    //fetch the application and document \n    Application memory app = apps[_id];\n    Document memory doc = docs[app.id];\n        // If the state of the application is assigned only then the further state change will take place\n       // if(compareStrings(app.state,\"approved\")){\n            //Change the state of the application\n             app.state=\"granted\";\n            //Update the application\n             apps[_id] = app;\n            //Trigger event\n             emit AppGranted(app.appId,app.airportCode,doc.id,\"granted\",timestamp,msg.sender);\n        //}\n}\n\n\n\n}\n",
  "sourcePath": "/home/akshada/Knowledge-Management-System/client/src/contracts/SocialNetwork.sol",
  "compiler": {
    "name": "solc",
    "version": "0.5.0+commit.1d4f565a.Emscripten.clang"
  },
  "schemaVersion": "3.0.1",
  "updatedAt": "2020-08-02T09:24:07.032Z",
  "devdoc": {
    "methods": {}
  },
  "userdoc": {
    "methods": {}
  }
}