{
  "contractName": "SocialNetwork",
  "abi": [
    {
      "inputs": [],
      "payable": false,
      "stateMutability": "nonpayable",
      "type": "constructor"
    },
    {
      "anonymous": false,
      "inputs": [
        {
          "indexed": false,
          "internalType": "uint256",
          "name": "appId",
          "type": "uint256"
        },
        {
          "indexed": false,
          "internalType": "string",
          "name": "airportCode",
          "type": "string"
        },
        {
          "indexed": false,
          "internalType": "uint256",
          "name": "id",
          "type": "uint256"
        },
        {
          "indexed": false,
          "internalType": "string",
          "name": "state",
          "type": "string"
        },
        {
          "indexed": false,
          "internalType": "string",
          "name": "timestamp",
          "type": "string"
        },
        {
          "indexed": false,
          "internalType": "uint256",
          "name": "previousStateId",
          "type": "uint256"
        },
        {
          "indexed": false,
          "internalType": "address payable",
          "name": "author",
          "type": "address"
        }
      ],
      "name": "AppApproved",
      "type": "event"
    },
    {
      "anonymous": false,
      "inputs": [
        {
          "indexed": false,
          "internalType": "uint256",
          "name": "appId",
          "type": "uint256"
        },
        {
          "indexed": false,
          "internalType": "string",
          "name": "airportCode",
          "type": "string"
        },
        {
          "indexed": false,
          "internalType": "uint256",
          "name": "id",
          "type": "uint256"
        },
        {
          "indexed": false,
          "internalType": "string",
          "name": "state",
          "type": "string"
        },
        {
          "indexed": false,
          "internalType": "string",
          "name": "timestamp",
          "type": "string"
        },
        {
          "indexed": false,
          "internalType": "uint256",
          "name": "previousStateId",
          "type": "uint256"
        },
        {
          "indexed": false,
          "internalType": "address payable",
          "name": "author",
          "type": "address"
        }
      ],
      "name": "AppAssigned",
      "type": "event"
    },
    {
      "anonymous": false,
      "inputs": [
        {
          "indexed": false,
          "internalType": "uint256",
          "name": "appId",
          "type": "uint256"
        },
        {
          "indexed": false,
          "internalType": "string",
          "name": "airportCode",
          "type": "string"
        },
        {
          "indexed": false,
          "internalType": "uint256",
          "name": "id",
          "type": "uint256"
        },
        {
          "indexed": false,
          "internalType": "string",
          "name": "state",
          "type": "string"
        },
        {
          "indexed": false,
          "internalType": "string",
          "name": "timestamp",
          "type": "string"
        },
        {
          "indexed": false,
          "internalType": "uint256",
          "name": "previousStateId",
          "type": "uint256"
        },
        {
          "indexed": false,
          "internalType": "address payable",
          "name": "author",
          "type": "address"
        }
      ],
      "name": "AppCreated",
      "type": "event"
    },
    {
      "anonymous": false,
      "inputs": [
        {
          "indexed": false,
          "internalType": "uint256",
          "name": "appId",
          "type": "uint256"
        },
        {
          "indexed": false,
          "internalType": "string",
          "name": "airportCode",
          "type": "string"
        },
        {
          "indexed": false,
          "internalType": "uint256",
          "name": "id",
          "type": "uint256"
        },
        {
          "indexed": false,
          "internalType": "string",
          "name": "state",
          "type": "string"
        },
        {
          "indexed": false,
          "internalType": "string",
          "name": "timestamp",
          "type": "string"
        },
        {
          "indexed": false,
          "internalType": "uint256",
          "name": "previousStateId",
          "type": "uint256"
        },
        {
          "indexed": false,
          "internalType": "address payable",
          "name": "author",
          "type": "address"
        }
      ],
      "name": "AppGranted",
      "type": "event"
    },
    {
      "anonymous": false,
      "inputs": [
        {
          "indexed": false,
          "internalType": "uint256",
          "name": "appId",
          "type": "uint256"
        },
        {
          "indexed": false,
          "internalType": "string",
          "name": "airportCode",
          "type": "string"
        },
        {
          "indexed": false,
          "internalType": "uint256",
          "name": "id",
          "type": "uint256"
        },
        {
          "indexed": false,
          "internalType": "string",
          "name": "state",
          "type": "string"
        },
        {
          "indexed": false,
          "internalType": "string",
          "name": "timestamp",
          "type": "string"
        },
        {
          "indexed": false,
          "internalType": "uint256",
          "name": "previousStateId",
          "type": "uint256"
        },
        {
          "indexed": false,
          "internalType": "address payable",
          "name": "author",
          "type": "address"
        }
      ],
      "name": "AppIssued",
      "type": "event"
    },
    {
      "anonymous": false,
      "inputs": [
        {
          "indexed": false,
          "internalType": "uint256",
          "name": "appId",
          "type": "uint256"
        },
        {
          "indexed": false,
          "internalType": "string",
          "name": "airportCode",
          "type": "string"
        },
        {
          "indexed": false,
          "internalType": "uint256",
          "name": "id",
          "type": "uint256"
        },
        {
          "indexed": false,
          "internalType": "string",
          "name": "state",
          "type": "string"
        },
        {
          "indexed": false,
          "internalType": "string",
          "name": "timestamp",
          "type": "string"
        },
        {
          "indexed": false,
          "internalType": "uint256",
          "name": "previousStateId",
          "type": "uint256"
        },
        {
          "indexed": false,
          "internalType": "address payable",
          "name": "author",
          "type": "address"
        }
      ],
      "name": "AppRejected",
      "type": "event"
    },
    {
      "anonymous": false,
      "inputs": [
        {
          "indexed": false,
          "internalType": "uint256",
          "name": "appId",
          "type": "uint256"
        },
        {
          "indexed": false,
          "internalType": "string",
          "name": "airportCode",
          "type": "string"
        },
        {
          "indexed": false,
          "internalType": "uint256",
          "name": "id",
          "type": "uint256"
        },
        {
          "indexed": false,
          "internalType": "string",
          "name": "state",
          "type": "string"
        },
        {
          "indexed": false,
          "internalType": "string",
          "name": "timestamp",
          "type": "string"
        },
        {
          "indexed": false,
          "internalType": "uint256",
          "name": "previousStateId",
          "type": "uint256"
        },
        {
          "indexed": false,
          "internalType": "address payable",
          "name": "author",
          "type": "address"
        }
      ],
      "name": "AppRenewed",
      "type": "event"
    },
    {
      "anonymous": false,
      "inputs": [
        {
          "indexed": false,
          "internalType": "uint256",
          "name": "id",
          "type": "uint256"
        },
        {
          "indexed": false,
          "internalType": "uint256",
          "name": "appId",
          "type": "uint256"
        },
        {
          "indexed": false,
          "internalType": "string",
          "name": "aerodromeManual",
          "type": "string"
        },
        {
          "indexed": false,
          "internalType": "string",
          "name": "licensingFee",
          "type": "string"
        },
        {
          "indexed": false,
          "internalType": "string",
          "name": "CARcompliance",
          "type": "string"
        },
        {
          "indexed": false,
          "internalType": "string",
          "name": "exceptionsDoc",
          "type": "string"
        }
      ],
      "name": "DocCreated",
      "type": "event"
    },
    {
      "anonymous": false,
      "inputs": [
        {
          "indexed": false,
          "internalType": "uint256",
          "name": "id",
          "type": "uint256"
        },
        {
          "indexed": false,
          "internalType": "uint256",
          "name": "appId",
          "type": "uint256"
        },
        {
          "indexed": false,
          "internalType": "string",
          "name": "aerodromeManual",
          "type": "string"
        },
        {
          "indexed": false,
          "internalType": "string",
          "name": "licensingFee",
          "type": "string"
        },
        {
          "indexed": false,
          "internalType": "string",
          "name": "CARcompliance",
          "type": "string"
        },
        {
          "indexed": false,
          "internalType": "string",
          "name": "exceptionsDoc",
          "type": "string"
        }
      ],
      "name": "DocIdUpdated",
      "type": "event"
    },
    {
      "constant": true,
      "inputs": [],
      "name": "appCount",
      "outputs": [
        {
          "internalType": "uint256",
          "name": "",
          "type": "uint256"
        }
      ],
      "payable": false,
      "stateMutability": "view",
      "type": "function"
    },
    {
      "constant": true,
      "inputs": [
        {
          "internalType": "uint256",
          "name": "",
          "type": "uint256"
        }
      ],
      "name": "apps",
      "outputs": [
        {
          "internalType": "uint256",
          "name": "appId",
          "type": "uint256"
        },
        {
          "internalType": "string",
          "name": "airportCode",
          "type": "string"
        },
        {
          "internalType": "uint256",
          "name": "id",
          "type": "uint256"
        },
        {
          "internalType": "string",
          "name": "state",
          "type": "string"
        },
        {
          "internalType": "string",
          "name": "timestamp",
          "type": "string"
        },
        {
          "internalType": "uint256",
          "name": "previousStateId",
          "type": "uint256"
        },
        {
          "internalType": "address payable",
          "name": "author",
          "type": "address"
        }
      ],
      "payable": false,
      "stateMutability": "view",
      "type": "function"
    },
    {
      "constant": true,
      "inputs": [],
      "name": "docCount",
      "outputs": [
        {
          "internalType": "uint256",
          "name": "",
          "type": "uint256"
        }
      ],
      "payable": false,
      "stateMutability": "view",
      "type": "function"
    },
    {
      "constant": true,
      "inputs": [
        {
          "internalType": "uint256",
          "name": "",
          "type": "uint256"
        }
      ],
      "name": "docs",
      "outputs": [
        {
          "internalType": "uint256",
          "name": "id",
          "type": "uint256"
        },
        {
          "internalType": "uint256",
          "name": "appId",
          "type": "uint256"
        },
        {
          "internalType": "string",
          "name": "aerodromeManual",
          "type": "string"
        },
        {
          "internalType": "string",
          "name": "licensingFee",
          "type": "string"
        },
        {
          "internalType": "string",
          "name": "CARcompliance",
          "type": "string"
        },
        {
          "internalType": "string",
          "name": "exceptionsDoc",
          "type": "string"
        }
      ],
      "payable": false,
      "stateMutability": "view",
      "type": "function"
    },
    {
      "constant": true,
      "inputs": [],
      "name": "name",
      "outputs": [
        {
          "internalType": "string",
          "name": "",
          "type": "string"
        }
      ],
      "payable": false,
      "stateMutability": "view",
      "type": "function"
    },
    {
      "constant": false,
      "inputs": [
        {
          "internalType": "string",
          "name": "airportCode",
          "type": "string"
        },
        {
          "internalType": "string",
          "name": "doc1",
          "type": "string"
        },
        {
          "internalType": "string",
          "name": "doc2",
          "type": "string"
        },
        {
          "internalType": "string",
          "name": "doc3",
          "type": "string"
        },
        {
          "internalType": "string",
          "name": "doc4",
          "type": "string"
        },
        {
          "internalType": "string",
          "name": "timestamp",
          "type": "string"
        }
      ],
      "name": "createApp",
      "outputs": [],
      "payable": false,
      "stateMutability": "nonpayable",
      "type": "function"
    },
    {
      "constant": false,
      "inputs": [
        {
          "internalType": "uint256",
          "name": "_id",
          "type": "uint256"
        },
        {
          "internalType": "string",
          "name": "timestamp",
          "type": "string"
        }
      ],
      "name": "issueApp",
      "outputs": [],
      "payable": false,
      "stateMutability": "nonpayable",
      "type": "function"
    },
    {
      "constant": false,
      "inputs": [
        {
          "internalType": "uint256",
          "name": "_id",
          "type": "uint256"
        },
        {
          "internalType": "string",
          "name": "timestamp",
          "type": "string"
        }
      ],
      "name": "assignApp",
      "outputs": [],
      "payable": false,
      "stateMutability": "nonpayable",
      "type": "function"
    },
    {
      "constant": false,
      "inputs": [
        {
          "internalType": "uint256",
          "name": "_id",
          "type": "uint256"
        },
        {
          "internalType": "string",
          "name": "timestamp",
          "type": "string"
        }
      ],
      "name": "approveApp",
      "outputs": [],
      "payable": false,
      "stateMutability": "nonpayable",
      "type": "function"
    },
    {
      "constant": false,
      "inputs": [
        {
          "internalType": "uint256",
          "name": "_id",
          "type": "uint256"
        },
        {
          "internalType": "string",
          "name": "timestamp",
          "type": "string"
        }
      ],
      "name": "rejectApp",
      "outputs": [],
      "payable": false,
      "stateMutability": "nonpayable",
      "type": "function"
    },
    {
      "constant": false,
      "inputs": [
        {
          "internalType": "uint256",
          "name": "_id",
          "type": "uint256"
        },
        {
          "internalType": "string",
          "name": "timestamp",
          "type": "string"
        }
      ],
      "name": "renewApp",
      "outputs": [],
      "payable": false,
      "stateMutability": "nonpayable",
      "type": "function"
    },
    {
      "constant": false,
      "inputs": [
        {
          "internalType": "uint256",
          "name": "_id",
          "type": "uint256"
        },
        {
          "internalType": "string",
          "name": "timestamp",
          "type": "string"
        }
      ],
      "name": "grantApp",
      "outputs": [],
      "payable": false,
      "stateMutability": "nonpayable",
      "type": "function"
    }
  ],
  "bytecode": "0x6080604052600060015560006002553480156200001b57600080fd5b506040518060400160405280601081526020017f416972706f727420446174616261736500000000000000000000000000000000815250600090805190602001906200006992919062000070565b506200011f565b828054600181600116156101000203166002900490600052602060002090601f016020900481019282601f10620000b357805160ff1916838001178555620000e4565b82800160010185558215620000e4579182015b82811115620000e3578251825591602001919060010190620000c6565b5b509050620000f39190620000f7565b5090565b6200011c91905b8082111562000118576000816000905550600101620000fe565b5090565b90565b615eef806200012f6000396000f3fe608060405234801561001057600080fd5b50600436106100b45760003560e01c80635d4c6d22116100715780635d4c6d22146105a257806361acc37e14610667578063989b15941461082e578063aef5108f146108f3578063b55ca2c314610ca1578063ee55ba3a14610cbf576100b4565b806306fdde03146100b9578063138cfd471461013c57806323389c5a14610201578063365f8b36146103fa5780633ffddc9a146104bf5780634c4dc6e014610584575b600080fd5b6100c1610d84565b6040518080602001828103825283818151815260200191508051906020019080838360005b838110156101015780820151818401526020810190506100e6565b50505050905090810190601f16801561012e5780820380516001836020036101000a031916815260200191505b509250505060405180910390f35b6101ff6004803603604081101561015257600080fd5b81019080803590602001909291908035906020019064010000000081111561017957600080fd5b82018360208201111561018b57600080fd5b803590602001918460018302840111640100000000831117156101ad57600080fd5b91908080601f016020809104026020016040519081016040528093929190818152602001838380828437600081840152601f19601f820116905080830192505050505050509192919290505050610e22565b005b61022d6004803603602081101561021757600080fd5b8101908080359060200190929190505050611989565b6040518087815260200186815260200180602001806020018060200180602001858103855289818151815260200191508051906020019080838360005b8381101561028557808201518184015260208101905061026a565b50505050905090810190601f1680156102b25780820380516001836020036101000a031916815260200191505b50858103845288818151815260200191508051906020019080838360005b838110156102eb5780820151818401526020810190506102d0565b50505050905090810190601f1680156103185780820380516001836020036101000a031916815260200191505b50858103835287818151815260200191508051906020019080838360005b83811015610351578082015181840152602081019050610336565b50505050905090810190601f16801561037e5780820380516001836020036101000a031916815260200191505b50858103825286818151815260200191508051906020019080838360005b838110156103b757808201518184015260208101905061039c565b50505050905090810190601f1680156103e45780820380516001836020036101000a031916815260200191505b509a505050505050505050505060405180910390f35b6104bd6004803603604081101561041057600080fd5b81019080803590602001909291908035906020019064010000000081111561043757600080fd5b82018360208201111561044957600080fd5b8035906020019184600183028401116401000000008311171561046b57600080fd5b91908080601f016020809104026020016040519081016040528093929190818152602001838380828437600081840152601f19601f820116905080830192505050505050509192919290505050611c25565b005b610582600480360360408110156104d557600080fd5b8101908080359060200190929190803590602001906401000000008111156104fc57600080fd5b82018360208201111561050e57600080fd5b8035906020019184600183028401116401000000008311171561053057600080fd5b91908080601f016020809104026020016040519081016040528093929190818152602001838380828437600081840152601f19601f820116905080830192505050505050509192919290505050612794565b005b61058c6132fb565b6040518082815260200191505060405180910390f35b610665600480360360408110156105b857600080fd5b8101908080359060200190929190803590602001906401000000008111156105df57600080fd5b8201836020820111156105f157600080fd5b8035906020019184600183028401116401000000008311171561061357600080fd5b91908080601f016020809104026020016040519081016040528093929190818152602001838380828437600081840152601f19601f820116905080830192505050505050509192919290505050613301565b005b6106936004803603602081101561067d57600080fd5b8101908080359060200190929190505050613e68565b604051808881526020018060200187815260200180602001806020018681526020018573ffffffffffffffffffffffffffffffffffffffff1673ffffffffffffffffffffffffffffffffffffffff16815260200184810384528a818151815260200191508051906020019080838360005b8381101561071f578082015181840152602081019050610704565b50505050905090810190601f16801561074c5780820380516001836020036101000a031916815260200191505b50848103835288818151815260200191508051906020019080838360005b8381101561078557808201518184015260208101905061076a565b50505050905090810190601f1680156107b25780820380516001836020036101000a031916815260200191505b50848103825287818151815260200191508051906020019080838360005b838110156107eb5780820151818401526020810190506107d0565b50505050905090810190601f1680156108185780820380516001836020036101000a031916815260200191505b509a505050505050505050505060405180910390f35b6108f16004803603604081101561084457600080fd5b81019080803590602001909291908035906020019064010000000081111561086b57600080fd5b82018360208201111561087d57600080fd5b8035906020019184600183028401116401000000008311171561089f57600080fd5b91908080601f016020809104026020016040519081016040528093929190818152602001838380828437600081840152601f19601f820116905080830192505050505050509192919290505050614092565b005b610c9f600480360360c081101561090957600080fd5b810190808035906020019064010000000081111561092657600080fd5b82018360208201111561093857600080fd5b8035906020019184600183028401116401000000008311171561095a57600080fd5b91908080601f016020809104026020016040519081016040528093929190818152602001838380828437600081840152601f19601f820116905080830192505050505050509192919290803590602001906401000000008111156109bd57600080fd5b8201836020820111156109cf57600080fd5b803590602001918460018302840111640100000000831117156109f157600080fd5b91908080601f016020809104026020016040519081016040528093929190818152602001838380828437600081840152601f19601f82011690508083019250505050505050919291929080359060200190640100000000811115610a5457600080fd5b820183602082011115610a6657600080fd5b80359060200191846001830284011164010000000083111715610a8857600080fd5b91908080601f016020809104026020016040519081016040528093929190818152602001838380828437600081840152601f19601f82011690508083019250505050505050919291929080359060200190640100000000811115610aeb57600080fd5b820183602082011115610afd57600080fd5b80359060200191846001830284011164010000000083111715610b1f57600080fd5b91908080601f016020809104026020016040519081016040528093929190818152602001838380828437600081840152601f19601f82011690508083019250505050505050919291929080359060200190640100000000811115610b8257600080fd5b820183602082011115610b9457600080fd5b80359060200191846001830284011164010000000083111715610bb657600080fd5b91908080601f016020809104026020016040519081016040528093929190818152602001838380828437600081840152601f19601f82011690508083019250505050505050919291929080359060200190640100000000811115610c1957600080fd5b820183602082011115610c2b57600080fd5b80359060200191846001830284011164010000000083111715610c4d57600080fd5b91908080601f016020809104026020016040519081016040528093929190818152602001838380828437600081840152601f19601f820116905080830192505050505050509192919290505050614bf9565b005b610ca961521f565b6040518082815260200191505060405180910390f35b610d8260048036036040811015610cd557600080fd5b810190808035906020019092919080359060200190640100000000811115610cfc57600080fd5b820183602082011115610d0e57600080fd5b80359060200191846001830284011164010000000083111715610d3057600080fd5b91908080601f016020809104026020016040519081016040528093929190818152602001838380828437600081840152601f19601f820116905080830192505050505050509192919290505050615225565b005b60008054600181600116156101000203166002900480601f016020809104026020016040519081016040528092919081815260200182805460018160011615610100020316600290048015610e1a5780601f10610def57610100808354040283529160200191610e1a565b820191906000526020600020905b815481529060010190602001808311610dfd57829003601f168201915b505050505081565b600082118015610e3457506001548211155b610e3d57600080fd5b610e45615d8c565b600360008481526020019081526020016000206040518060e001604052908160008201548152602001600182018054600181600116156101000203166002900480601f016020809104026020016040519081016040528092919081815260200182805460018160011615610100020316600290048015610f065780601f10610edb57610100808354040283529160200191610f06565b820191906000526020600020905b815481529060010190602001808311610ee957829003601f168201915b5050505050815260200160028201548152602001600382018054600181600116156101000203166002900480601f016020809104026020016040519081016040528092919081815260200182805460018160011615610100020316600290048015610fb25780601f10610f8757610100808354040283529160200191610fb2565b820191906000526020600020905b815481529060010190602001808311610f9557829003601f168201915b50505050508152602001600482018054600181600116156101000203166002900480601f0160208091040260200160405190810160405280929190818152602001828054600181600116156101000203166002900480156110545780601f1061102957610100808354040283529160200191611054565b820191906000526020600020905b81548152906001019060200180831161103757829003601f168201915b50505050508152602001600582015481526020016006820160009054906101000a900473ffffffffffffffffffffffffffffffffffffffff1673ffffffffffffffffffffffffffffffffffffffff1673ffffffffffffffffffffffffffffffffffffffff168152505090506110c7615ddf565b60046000836040015181526020019081526020016000206040518060c00160405290816000820154815260200160018201548152602001600282018054600181600116156101000203166002900480601f0160208091040260200160405190810160405280929190818152602001828054600181600116156101000203166002900480156111965780601f1061116b57610100808354040283529160200191611196565b820191906000526020600020905b81548152906001019060200180831161117957829003601f168201915b50505050508152602001600382018054600181600116156101000203166002900480601f0160208091040260200160405190810160405280929190818152602001828054600181600116156101000203166002900480156112385780601f1061120d57610100808354040283529160200191611238565b820191906000526020600020905b81548152906001019060200180831161121b57829003601f168201915b50505050508152602001600482018054600181600116156101000203166002900480601f0160208091040260200160405190810160405280929190818152602001828054600181600116156101000203166002900480156112da5780601f106112af576101008083540402835291602001916112da565b820191906000526020600020905b8154815290600101906020018083116112bd57829003601f168201915b50505050508152602001600582018054600181600116156101000203166002900480601f01602080910402602001604051908101604052809291908181526020018280546001816001161561010002031660029004801561137c5780601f106113515761010080835404028352916020019161137c565b820191906000526020600020905b81548152906001019060200180831161135f57829003601f168201915b50505050508152505090506001600081548092919060010191905055506002600081548092919060010191905055506040518060c00160405280600254815260200160015481526020018260400151815260200182606001518152602001826080015181526020018260a0015181525060046000600254815260200190815260200160002060008201518160000155602082015181600101556040820151816002019080519060200190611431929190615e15565b50606082015181600301908051906020019061144e929190615e15565b50608082015181600401908051906020019061146b929190615e15565b5060a0820151816005019080519060200190611488929190615e15565b509050507f1b671bbb64565da7b45ceaf6219bba3fd668049056ae524576932af0d7834f046002546001548360400151846060015185608001518660a001516040518087815260200186815260200180602001806020018060200180602001858103855289818151815260200191508051906020019080838360005b8381101561151f578082015181840152602081019050611504565b50505050905090810190601f16801561154c5780820380516001836020036101000a031916815260200191505b50858103845288818151815260200191508051906020019080838360005b8381101561158557808201518184015260208101905061156a565b50505050905090810190601f1680156115b25780820380516001836020036101000a031916815260200191505b50858103835287818151815260200191508051906020019080838360005b838110156115eb5780820151818401526020810190506115d0565b50505050905090810190601f1680156116185780820380516001836020036101000a031916815260200191505b50858103825286818151815260200191508051906020019080838360005b83811015611651578082015181840152602081019050611636565b50505050905090810190601f16801561167e5780820380516001836020036101000a031916815260200191505b509a505050505050505050505060405180910390a16040518060e0016040528060015481526020018360200151815260200160025481526020016040518060400160405280600881526020017f61737369676e656400000000000000000000000000000000000000000000000081525081526020018481526020018581526020013373ffffffffffffffffffffffffffffffffffffffff16815250600360006001548152602001908152602001600020600082015181600001556020820151816001019080519060200190611754929190615e15565b5060408201518160020155606082015181600301908051906020019061177b929190615e15565b506080820151816004019080519060200190611798929190615e15565b5060a0820151816005015560c08201518160060160006101000a81548173ffffffffffffffffffffffffffffffffffffffff021916908373ffffffffffffffffffffffffffffffffffffffff1602179055509050507fb7f2490a8c3de37771dbfa1b0506d61e414d96337e9ec861de96fe6ab7db410f6001548360200151600254868833604051808781526020018060200186815260200180602001806020018681526020018573ffffffffffffffffffffffffffffffffffffffff1673ffffffffffffffffffffffffffffffffffffffff168152602001848103845289818151815260200191508051906020019080838360005b838110156118a857808201518184015260208101905061188d565b50505050905090810190601f1680156118d55780820380516001836020036101000a031916815260200191505b50848103835260088152602001807f61737369676e6564000000000000000000000000000000000000000000000000815250602001848103825287818151815260200191508051906020019080838360005b83811015611942578082015181840152602081019050611927565b50505050905090810190601f16801561196f5780820380516001836020036101000a031916815260200191505b50995050505050505050505060405180910390a150505050565b6004602052806000526040600020600091509050806000015490806001015490806002018054600181600116156101000203166002900480601f016020809104026020016040519081016040528092919081815260200182805460018160011615610100020316600290048015611a415780601f10611a1657610100808354040283529160200191611a41565b820191906000526020600020905b815481529060010190602001808311611a2457829003601f168201915b505050505090806003018054600181600116156101000203166002900480601f016020809104026020016040519081016040528092919081815260200182805460018160011615610100020316600290048015611adf5780601f10611ab457610100808354040283529160200191611adf565b820191906000526020600020905b815481529060010190602001808311611ac257829003601f168201915b505050505090806004018054600181600116156101000203166002900480601f016020809104026020016040519081016040528092919081815260200182805460018160011615610100020316600290048015611b7d5780601f10611b5257610100808354040283529160200191611b7d565b820191906000526020600020905b815481529060010190602001808311611b6057829003601f168201915b505050505090806005018054600181600116156101000203166002900480601f016020809104026020016040519081016040528092919081815260200182805460018160011615610100020316600290048015611c1b5780601f10611bf057610100808354040283529160200191611c1b565b820191906000526020600020905b815481529060010190602001808311611bfe57829003601f168201915b5050505050905086565b600082118015611c3757506001548211155b611c4057600080fd5b611c48615d8c565b600360008481526020019081526020016000206040518060e001604052908160008201548152602001600182018054600181600116156101000203166002900480601f016020809104026020016040519081016040528092919081815260200182805460018160011615610100020316600290048015611d095780601f10611cde57610100808354040283529160200191611d09565b820191906000526020600020905b815481529060010190602001808311611cec57829003601f168201915b5050505050815260200160028201548152602001600382018054600181600116156101000203166002900480601f016020809104026020016040519081016040528092919081815260200182805460018160011615610100020316600290048015611db55780601f10611d8a57610100808354040283529160200191611db5565b820191906000526020600020905b815481529060010190602001808311611d9857829003601f168201915b50505050508152602001600482018054600181600116156101000203166002900480601f016020809104026020016040519081016040528092919081815260200182805460018160011615610100020316600290048015611e575780601f10611e2c57610100808354040283529160200191611e57565b820191906000526020600020905b815481529060010190602001808311611e3a57829003601f168201915b50505050508152602001600582015481526020016006820160009054906101000a900473ffffffffffffffffffffffffffffffffffffffff1673ffffffffffffffffffffffffffffffffffffffff1673ffffffffffffffffffffffffffffffffffffffff16815250509050611eca615ddf565b60046000836040015181526020019081526020016000206040518060c00160405290816000820154815260200160018201548152602001600282018054600181600116156101000203166002900480601f016020809104026020016040519081016040528092919081815260200182805460018160011615610100020316600290048015611f995780601f10611f6e57610100808354040283529160200191611f99565b820191906000526020600020905b815481529060010190602001808311611f7c57829003601f168201915b50505050508152602001600382018054600181600116156101000203166002900480601f01602080910402602001604051908101604052809291908181526020018280546001816001161561010002031660029004801561203b5780601f106120105761010080835404028352916020019161203b565b820191906000526020600020905b81548152906001019060200180831161201e57829003601f168201915b50505050508152602001600482018054600181600116156101000203166002900480601f0160208091040260200160405190810160405280929190818152602001828054600181600116156101000203166002900480156120dd5780601f106120b2576101008083540402835291602001916120dd565b820191906000526020600020905b8154815290600101906020018083116120c057829003601f168201915b50505050508152602001600582018054600181600116156101000203166002900480601f01602080910402602001604051908101604052809291908181526020018280546001816001161561010002031660029004801561217f5780601f106121545761010080835404028352916020019161217f565b820191906000526020600020905b81548152906001019060200180831161216257829003601f168201915b50505050508152505090506001600081548092919060010191905055506002600081548092919060010191905055506040518060c00160405280600254815260200160015481526020018260400151815260200182606001518152602001826080015181526020018260a0015181525060046000600254815260200190815260200160002060008201518160000155602082015181600101556040820151816002019080519060200190612234929190615e15565b506060820151816003019080519060200190612251929190615e15565b50608082015181600401908051906020019061226e929190615e15565b5060a082015181600501908051906020019061228b929190615e15565b509050507f1b671bbb64565da7b45ceaf6219bba3fd668049056ae524576932af0d7834f046002546001548360400151846060015185608001518660a001516040518087815260200186815260200180602001806020018060200180602001858103855289818151815260200191508051906020019080838360005b83811015612322578082015181840152602081019050612307565b50505050905090810190601f16801561234f5780820380516001836020036101000a031916815260200191505b50858103845288818151815260200191508051906020019080838360005b8381101561238857808201518184015260208101905061236d565b50505050905090810190601f1680156123b55780820380516001836020036101000a031916815260200191505b50858103835287818151815260200191508051906020019080838360005b838110156123ee5780820151818401526020810190506123d3565b50505050905090810190601f16801561241b5780820380516001836020036101000a031916815260200191505b50858103825286818151815260200191508051906020019080838360005b83811015612454578082015181840152602081019050612439565b50505050905090810190601f1680156124815780820380516001836020036101000a031916815260200191505b509a505050505050505050505060405180910390a16040518060e0016040528060015481526020018360200151815260200160025481526020016040518060400160405280600681526020017f69737375656400000000000000000000000000000000000000000000000000008152508152602001848152602001836000015181526020013373ffffffffffffffffffffffffffffffffffffffff1681525060036000600154815260200190815260200160002060008201518160000155602082015181600101908051906020019061255b929190615e15565b50604082015181600201556060820151816003019080519060200190612582929190615e15565b50608082015181600401908051906020019061259f929190615e15565b5060a0820151816005015560c08201518160060160006101000a81548173ffffffffffffffffffffffffffffffffffffffff021916908373ffffffffffffffffffffffffffffffffffffffff1602179055509050507f27e79f34546ecbf364d52462c47a86462d561a87c25b51b0b9ce9c8197b5da2e600154836020015160025486866000015133604051808781526020018060200186815260200180602001806020018681526020018573ffffffffffffffffffffffffffffffffffffffff1673ffffffffffffffffffffffffffffffffffffffff168152602001848103845289818151815260200191508051906020019080838360005b838110156126b3578082015181840152602081019050612698565b50505050905090810190601f1680156126e05780820380516001836020036101000a031916815260200191505b50848103835260068152602001807f6973737565640000000000000000000000000000000000000000000000000000815250602001848103825287818151815260200191508051906020019080838360005b8381101561274d578082015181840152602081019050612732565b50505050905090810190601f16801561277a5780820380516001836020036101000a031916815260200191505b50995050505050505050505060405180910390a150505050565b6000821180156127a657506001548211155b6127af57600080fd5b6127b7615d8c565b600360008481526020019081526020016000206040518060e001604052908160008201548152602001600182018054600181600116156101000203166002900480601f0160208091040260200160405190810160405280929190818152602001828054600181600116156101000203166002900480156128785780601f1061284d57610100808354040283529160200191612878565b820191906000526020600020905b81548152906001019060200180831161285b57829003601f168201915b5050505050815260200160028201548152602001600382018054600181600116156101000203166002900480601f0160208091040260200160405190810160405280929190818152602001828054600181600116156101000203166002900480156129245780601f106128f957610100808354040283529160200191612924565b820191906000526020600020905b81548152906001019060200180831161290757829003601f168201915b50505050508152602001600482018054600181600116156101000203166002900480601f0160208091040260200160405190810160405280929190818152602001828054600181600116156101000203166002900480156129c65780601f1061299b576101008083540402835291602001916129c6565b820191906000526020600020905b8154815290600101906020018083116129a957829003601f168201915b50505050508152602001600582015481526020016006820160009054906101000a900473ffffffffffffffffffffffffffffffffffffffff1673ffffffffffffffffffffffffffffffffffffffff1673ffffffffffffffffffffffffffffffffffffffff16815250509050612a39615ddf565b60046000836040015181526020019081526020016000206040518060c00160405290816000820154815260200160018201548152602001600282018054600181600116156101000203166002900480601f016020809104026020016040519081016040528092919081815260200182805460018160011615610100020316600290048015612b085780601f10612add57610100808354040283529160200191612b08565b820191906000526020600020905b815481529060010190602001808311612aeb57829003601f168201915b50505050508152602001600382018054600181600116156101000203166002900480601f016020809104026020016040519081016040528092919081815260200182805460018160011615610100020316600290048015612baa5780601f10612b7f57610100808354040283529160200191612baa565b820191906000526020600020905b815481529060010190602001808311612b8d57829003601f168201915b50505050508152602001600482018054600181600116156101000203166002900480601f016020809104026020016040519081016040528092919081815260200182805460018160011615610100020316600290048015612c4c5780601f10612c2157610100808354040283529160200191612c4c565b820191906000526020600020905b815481529060010190602001808311612c2f57829003601f168201915b50505050508152602001600582018054600181600116156101000203166002900480601f016020809104026020016040519081016040528092919081815260200182805460018160011615610100020316600290048015612cee5780601f10612cc357610100808354040283529160200191612cee565b820191906000526020600020905b815481529060010190602001808311612cd157829003601f168201915b50505050508152505090506001600081548092919060010191905055506002600081548092919060010191905055506040518060c00160405280600254815260200160015481526020018260400151815260200182606001518152602001826080015181526020018260a0015181525060046000600254815260200190815260200160002060008201518160000155602082015181600101556040820151816002019080519060200190612da3929190615e15565b506060820151816003019080519060200190612dc0929190615e15565b506080820151816004019080519060200190612ddd929190615e15565b5060a0820151816005019080519060200190612dfa929190615e15565b509050507f1b671bbb64565da7b45ceaf6219bba3fd668049056ae524576932af0d7834f046002546001548360400151846060015185608001518660a001516040518087815260200186815260200180602001806020018060200180602001858103855289818151815260200191508051906020019080838360005b83811015612e91578082015181840152602081019050612e76565b50505050905090810190601f168015612ebe5780820380516001836020036101000a031916815260200191505b50858103845288818151815260200191508051906020019080838360005b83811015612ef7578082015181840152602081019050612edc565b50505050905090810190601f168015612f245780820380516001836020036101000a031916815260200191505b50858103835287818151815260200191508051906020019080838360005b83811015612f5d578082015181840152602081019050612f42565b50505050905090810190601f168015612f8a5780820380516001836020036101000a031916815260200191505b50858103825286818151815260200191508051906020019080838360005b83811015612fc3578082015181840152602081019050612fa8565b50505050905090810190601f168015612ff05780820380516001836020036101000a031916815260200191505b509a505050505050505050505060405180910390a16040518060e0016040528060015481526020018360200151815260200160025481526020016040518060400160405280600881526020017f617070726f76656400000000000000000000000000000000000000000000000081525081526020018481526020018581526020013373ffffffffffffffffffffffffffffffffffffffff168152506003600060015481526020019081526020016000206000820151816000015560208201518160010190805190602001906130c6929190615e15565b506040820151816002015560608201518160030190805190602001906130ed929190615e15565b50608082015181600401908051906020019061310a929190615e15565b5060a0820151816005015560c08201518160060160006101000a81548173ffffffffffffffffffffffffffffffffffffffff021916908373ffffffffffffffffffffffffffffffffffffffff1602179055509050507f56e438642b0922b0911726a419170e5828ce3b7e70ad30a1db20adba144b717a6001548360200151600254868833604051808781526020018060200186815260200180602001806020018681526020018573ffffffffffffffffffffffffffffffffffffffff1673ffffffffffffffffffffffffffffffffffffffff168152602001848103845289818151815260200191508051906020019080838360005b8381101561321a5780820151818401526020810190506131ff565b50505050905090810190601f1680156132475780820380516001836020036101000a031916815260200191505b50848103835260088152602001807f617070726f766564000000000000000000000000000000000000000000000000815250602001848103825287818151815260200191508051906020019080838360005b838110156132b4578082015181840152602081019050613299565b50505050905090810190601f1680156132e15780820380516001836020036101000a031916815260200191505b50995050505050505050505060405180910390a150505050565b60025481565b60008211801561331357506001548211155b61331c57600080fd5b613324615d8c565b600360008481526020019081526020016000206040518060e001604052908160008201548152602001600182018054600181600116156101000203166002900480601f0160208091040260200160405190810160405280929190818152602001828054600181600116156101000203166002900480156133e55780601f106133ba576101008083540402835291602001916133e5565b820191906000526020600020905b8154815290600101906020018083116133c857829003601f168201915b5050505050815260200160028201548152602001600382018054600181600116156101000203166002900480601f0160208091040260200160405190810160405280929190818152602001828054600181600116156101000203166002900480156134915780601f1061346657610100808354040283529160200191613491565b820191906000526020600020905b81548152906001019060200180831161347457829003601f168201915b50505050508152602001600482018054600181600116156101000203166002900480601f0160208091040260200160405190810160405280929190818152602001828054600181600116156101000203166002900480156135335780601f1061350857610100808354040283529160200191613533565b820191906000526020600020905b81548152906001019060200180831161351657829003601f168201915b50505050508152602001600582015481526020016006820160009054906101000a900473ffffffffffffffffffffffffffffffffffffffff1673ffffffffffffffffffffffffffffffffffffffff1673ffffffffffffffffffffffffffffffffffffffff168152505090506135a6615ddf565b60046000836040015181526020019081526020016000206040518060c00160405290816000820154815260200160018201548152602001600282018054600181600116156101000203166002900480601f0160208091040260200160405190810160405280929190818152602001828054600181600116156101000203166002900480156136755780601f1061364a57610100808354040283529160200191613675565b820191906000526020600020905b81548152906001019060200180831161365857829003601f168201915b50505050508152602001600382018054600181600116156101000203166002900480601f0160208091040260200160405190810160405280929190818152602001828054600181600116156101000203166002900480156137175780601f106136ec57610100808354040283529160200191613717565b820191906000526020600020905b8154815290600101906020018083116136fa57829003601f168201915b50505050508152602001600482018054600181600116156101000203166002900480601f0160208091040260200160405190810160405280929190818152602001828054600181600116156101000203166002900480156137b95780601f1061378e576101008083540402835291602001916137b9565b820191906000526020600020905b81548152906001019060200180831161379c57829003601f168201915b50505050508152602001600582018054600181600116156101000203166002900480601f01602080910402602001604051908101604052809291908181526020018280546001816001161561010002031660029004801561385b5780601f106138305761010080835404028352916020019161385b565b820191906000526020600020905b81548152906001019060200180831161383e57829003601f168201915b50505050508152505090506001600081548092919060010191905055506002600081548092919060010191905055506040518060c00160405280600254815260200160015481526020018260400151815260200182606001518152602001826080015181526020018260a0015181525060046000600254815260200190815260200160002060008201518160000155602082015181600101556040820151816002019080519060200190613910929190615e15565b50606082015181600301908051906020019061392d929190615e15565b50608082015181600401908051906020019061394a929190615e15565b5060a0820151816005019080519060200190613967929190615e15565b509050507f1b671bbb64565da7b45ceaf6219bba3fd668049056ae524576932af0d7834f046002546001548360400151846060015185608001518660a001516040518087815260200186815260200180602001806020018060200180602001858103855289818151815260200191508051906020019080838360005b838110156139fe5780820151818401526020810190506139e3565b50505050905090810190601f168015613a2b5780820380516001836020036101000a031916815260200191505b50858103845288818151815260200191508051906020019080838360005b83811015613a64578082015181840152602081019050613a49565b50505050905090810190601f168015613a915780820380516001836020036101000a031916815260200191505b50858103835287818151815260200191508051906020019080838360005b83811015613aca578082015181840152602081019050613aaf565b50505050905090810190601f168015613af75780820380516001836020036101000a031916815260200191505b50858103825286818151815260200191508051906020019080838360005b83811015613b30578082015181840152602081019050613b15565b50505050905090810190601f168015613b5d5780820380516001836020036101000a031916815260200191505b509a505050505050505050505060405180910390a16040518060e0016040528060015481526020018360200151815260200160025481526020016040518060400160405280600881526020017f72656a656374656400000000000000000000000000000000000000000000000081525081526020018481526020018581526020013373ffffffffffffffffffffffffffffffffffffffff16815250600360006001548152602001908152602001600020600082015181600001556020820151816001019080519060200190613c33929190615e15565b50604082015181600201556060820151816003019080519060200190613c5a929190615e15565b506080820151816004019080519060200190613c77929190615e15565b5060a0820151816005015560c08201518160060160006101000a81548173ffffffffffffffffffffffffffffffffffffffff021916908373ffffffffffffffffffffffffffffffffffffffff1602179055509050507f0fad56701be0731b1d95dd39f115990e3de461301bdeef60ace2593e9a798ebe6001548360200151600254868833604051808781526020018060200186815260200180602001806020018681526020018573ffffffffffffffffffffffffffffffffffffffff1673ffffffffffffffffffffffffffffffffffffffff168152602001848103845289818151815260200191508051906020019080838360005b83811015613d87578082015181840152602081019050613d6c565b50505050905090810190601f168015613db45780820380516001836020036101000a031916815260200191505b50848103835260088152602001807f72656a6563746564000000000000000000000000000000000000000000000000815250602001848103825287818151815260200191508051906020019080838360005b83811015613e21578082015181840152602081019050613e06565b50505050905090810190601f168015613e4e5780820380516001836020036101000a031916815260200191505b50995050505050505050505060405180910390a150505050565b6003602052806000526040600020600091509050806000015490806001018054600181600116156101000203166002900480601f016020809104026020016040519081016040528092919081815260200182805460018160011615610100020316600290048015613f1a5780601f10613eef57610100808354040283529160200191613f1a565b820191906000526020600020905b815481529060010190602001808311613efd57829003601f168201915b505050505090806002015490806003018054600181600116156101000203166002900480601f016020809104026020016040519081016040528092919081815260200182805460018160011615610100020316600290048015613fbe5780601f10613f9357610100808354040283529160200191613fbe565b820191906000526020600020905b815481529060010190602001808311613fa157829003601f168201915b505050505090806004018054600181600116156101000203166002900480601f01602080910402602001604051908101604052809291908181526020018280546001816001161561010002031660029004801561405c5780601f106140315761010080835404028352916020019161405c565b820191906000526020600020905b81548152906001019060200180831161403f57829003601f168201915b5050505050908060050154908060060160009054906101000a900473ffffffffffffffffffffffffffffffffffffffff16905087565b6000821180156140a457506001548211155b6140ad57600080fd5b6140b5615d8c565b600360008481526020019081526020016000206040518060e001604052908160008201548152602001600182018054600181600116156101000203166002900480601f0160208091040260200160405190810160405280929190818152602001828054600181600116156101000203166002900480156141765780601f1061414b57610100808354040283529160200191614176565b820191906000526020600020905b81548152906001019060200180831161415957829003601f168201915b5050505050815260200160028201548152602001600382018054600181600116156101000203166002900480601f0160208091040260200160405190810160405280929190818152602001828054600181600116156101000203166002900480156142225780601f106141f757610100808354040283529160200191614222565b820191906000526020600020905b81548152906001019060200180831161420557829003601f168201915b50505050508152602001600482018054600181600116156101000203166002900480601f0160208091040260200160405190810160405280929190818152602001828054600181600116156101000203166002900480156142c45780601f10614299576101008083540402835291602001916142c4565b820191906000526020600020905b8154815290600101906020018083116142a757829003601f168201915b50505050508152602001600582015481526020016006820160009054906101000a900473ffffffffffffffffffffffffffffffffffffffff1673ffffffffffffffffffffffffffffffffffffffff1673ffffffffffffffffffffffffffffffffffffffff16815250509050614337615ddf565b60046000836040015181526020019081526020016000206040518060c00160405290816000820154815260200160018201548152602001600282018054600181600116156101000203166002900480601f0160208091040260200160405190810160405280929190818152602001828054600181600116156101000203166002900480156144065780601f106143db57610100808354040283529160200191614406565b820191906000526020600020905b8154815290600101906020018083116143e957829003601f168201915b50505050508152602001600382018054600181600116156101000203166002900480601f0160208091040260200160405190810160405280929190818152602001828054600181600116156101000203166002900480156144a85780601f1061447d576101008083540402835291602001916144a8565b820191906000526020600020905b81548152906001019060200180831161448b57829003601f168201915b50505050508152602001600482018054600181600116156101000203166002900480601f01602080910402602001604051908101604052809291908181526020018280546001816001161561010002031660029004801561454a5780601f1061451f5761010080835404028352916020019161454a565b820191906000526020600020905b81548152906001019060200180831161452d57829003601f168201915b50505050508152602001600582018054600181600116156101000203166002900480601f0160208091040260200160405190810160405280929190818152602001828054600181600116156101000203166002900480156145ec5780601f106145c1576101008083540402835291602001916145ec565b820191906000526020600020905b8154815290600101906020018083116145cf57829003601f168201915b50505050508152505090506001600081548092919060010191905055506002600081548092919060010191905055506040518060c00160405280600254815260200160015481526020018260400151815260200182606001518152602001826080015181526020018260a00151815250600460006002548152602001908152602001600020600082015181600001556020820151816001015560408201518160020190805190602001906146a1929190615e15565b5060608201518160030190805190602001906146be929190615e15565b5060808201518160040190805190602001906146db929190615e15565b5060a08201518160050190805190602001906146f8929190615e15565b509050507f1b671bbb64565da7b45ceaf6219bba3fd668049056ae524576932af0d7834f046002546001548360400151846060015185608001518660a001516040518087815260200186815260200180602001806020018060200180602001858103855289818151815260200191508051906020019080838360005b8381101561478f578082015181840152602081019050614774565b50505050905090810190601f1680156147bc5780820380516001836020036101000a031916815260200191505b50858103845288818151815260200191508051906020019080838360005b838110156147f55780820151818401526020810190506147da565b50505050905090810190601f1680156148225780820380516001836020036101000a031916815260200191505b50858103835287818151815260200191508051906020019080838360005b8381101561485b578082015181840152602081019050614840565b50505050905090810190601f1680156148885780820380516001836020036101000a031916815260200191505b50858103825286818151815260200191508051906020019080838360005b838110156148c15780820151818401526020810190506148a6565b50505050905090810190601f1680156148ee5780820380516001836020036101000a031916815260200191505b509a505050505050505050505060405180910390a16040518060e0016040528060015481526020018360200151815260200160025481526020016040518060400160405280600781526020017f6772616e7465640000000000000000000000000000000000000000000000000081525081526020018481526020018581526020013373ffffffffffffffffffffffffffffffffffffffff168152506003600060015481526020019081526020016000206000820151816000015560208201518160010190805190602001906149c4929190615e15565b506040820151816002015560608201518160030190805190602001906149eb929190615e15565b506080820151816004019080519060200190614a08929190615e15565b5060a0820151816005015560c08201518160060160006101000a81548173ffffffffffffffffffffffffffffffffffffffff021916908373ffffffffffffffffffffffffffffffffffffffff1602179055509050507f850fdb7ae8b175a3d0f5b6ed616af95c7d5cfd79e9c0278dfa06b1618f4498a66001548360200151600254868833604051808781526020018060200186815260200180602001806020018681526020018573ffffffffffffffffffffffffffffffffffffffff1673ffffffffffffffffffffffffffffffffffffffff168152602001848103845289818151815260200191508051906020019080838360005b83811015614b18578082015181840152602081019050614afd565b50505050905090810190601f168015614b455780820380516001836020036101000a031916815260200191505b50848103835260078152602001807f6772616e74656400000000000000000000000000000000000000000000000000815250602001848103825287818151815260200191508051906020019080838360005b83811015614bb2578082015181840152602081019050614b97565b50505050905090810190601f168015614bdf5780820380516001836020036101000a031916815260200191505b50995050505050505050505060405180910390a150505050565b6000865111614c0757600080fd5b6000855111614c1557600080fd5b6000845111614c2357600080fd5b6000835111614c3157600080fd5b6000825111614c3f57600080fd5b6001600081548092919060010191905055506002600081548092919060010191905055506040518060c00160405280600254815260200160015481526020018681526020018581526020018481526020018381525060046000600254815260200190815260200160002060008201518160000155602082015181600101556040820151816002019080519060200190614cd9929190615e15565b506060820151816003019080519060200190614cf6929190615e15565b506080820151816004019080519060200190614d13929190615e15565b5060a0820151816005019080519060200190614d30929190615e15565b509050507f1b671bbb64565da7b45ceaf6219bba3fd668049056ae524576932af0d7834f04600254600154878787876040518087815260200186815260200180602001806020018060200180602001858103855289818151815260200191508051906020019080838360005b83811015614db7578082015181840152602081019050614d9c565b50505050905090810190601f168015614de45780820380516001836020036101000a031916815260200191505b50858103845288818151815260200191508051906020019080838360005b83811015614e1d578082015181840152602081019050614e02565b50505050905090810190601f168015614e4a5780820380516001836020036101000a031916815260200191505b50858103835287818151815260200191508051906020019080838360005b83811015614e83578082015181840152602081019050614e68565b50505050905090810190601f168015614eb05780820380516001836020036101000a031916815260200191505b50858103825286818151815260200191508051906020019080838360005b83811015614ee9578082015181840152602081019050614ece565b50505050905090810190601f168015614f165780820380516001836020036101000a031916815260200191505b509a505050505050505050505060405180910390a16040518060e00160405280600154815260200187815260200160025481526020016040518060400160405280600781526020017f6372656174656400000000000000000000000000000000000000000000000000815250815260200182815260200160015481526020013373ffffffffffffffffffffffffffffffffffffffff16815250600360006001548152602001908152602001600020600082015181600001556020820151816001019080519060200190614fea929190615e15565b50604082015181600201556060820151816003019080519060200190615011929190615e15565b50608082015181600401908051906020019061502e929190615e15565b5060a0820151816005015560c08201518160060160006101000a81548173ffffffffffffffffffffffffffffffffffffffff021916908373ffffffffffffffffffffffffffffffffffffffff1602179055509050507f8309da5550621eb55fe471efad46bfff9362ddefe248ffb8634d1db2a251ec45600154876002548460015433604051808781526020018060200186815260200180602001806020018681526020018573ffffffffffffffffffffffffffffffffffffffff1673ffffffffffffffffffffffffffffffffffffffff168152602001848103845289818151815260200191508051906020019080838360005b8381101561513c578082015181840152602081019050615121565b50505050905090810190601f1680156151695780820380516001836020036101000a031916815260200191505b50848103835260078152602001807f6372656174656400000000000000000000000000000000000000000000000000815250602001848103825287818151815260200191508051906020019080838360005b838110156151d65780820151818401526020810190506151bb565b50505050905090810190601f1680156152035780820380516001836020036101000a031916815260200191505b50995050505050505050505060405180910390a1505050505050565b60015481565b60008211801561523757506001548211155b61524057600080fd5b615248615d8c565b600360008481526020019081526020016000206040518060e001604052908160008201548152602001600182018054600181600116156101000203166002900480601f0160208091040260200160405190810160405280929190818152602001828054600181600116156101000203166002900480156153095780601f106152de57610100808354040283529160200191615309565b820191906000526020600020905b8154815290600101906020018083116152ec57829003601f168201915b5050505050815260200160028201548152602001600382018054600181600116156101000203166002900480601f0160208091040260200160405190810160405280929190818152602001828054600181600116156101000203166002900480156153b55780601f1061538a576101008083540402835291602001916153b5565b820191906000526020600020905b81548152906001019060200180831161539857829003601f168201915b50505050508152602001600482018054600181600116156101000203166002900480601f0160208091040260200160405190810160405280929190818152602001828054600181600116156101000203166002900480156154575780601f1061542c57610100808354040283529160200191615457565b820191906000526020600020905b81548152906001019060200180831161543a57829003601f168201915b50505050508152602001600582015481526020016006820160009054906101000a900473ffffffffffffffffffffffffffffffffffffffff1673ffffffffffffffffffffffffffffffffffffffff1673ffffffffffffffffffffffffffffffffffffffff168152505090506154ca615ddf565b60046000836040015181526020019081526020016000206040518060c00160405290816000820154815260200160018201548152602001600282018054600181600116156101000203166002900480601f0160208091040260200160405190810160405280929190818152602001828054600181600116156101000203166002900480156155995780601f1061556e57610100808354040283529160200191615599565b820191906000526020600020905b81548152906001019060200180831161557c57829003601f168201915b50505050508152602001600382018054600181600116156101000203166002900480601f01602080910402602001604051908101604052809291908181526020018280546001816001161561010002031660029004801561563b5780601f106156105761010080835404028352916020019161563b565b820191906000526020600020905b81548152906001019060200180831161561e57829003601f168201915b50505050508152602001600482018054600181600116156101000203166002900480601f0160208091040260200160405190810160405280929190818152602001828054600181600116156101000203166002900480156156dd5780601f106156b2576101008083540402835291602001916156dd565b820191906000526020600020905b8154815290600101906020018083116156c057829003601f168201915b50505050508152602001600582018054600181600116156101000203166002900480601f01602080910402602001604051908101604052809291908181526020018280546001816001161561010002031660029004801561577f5780601f106157545761010080835404028352916020019161577f565b820191906000526020600020905b81548152906001019060200180831161576257829003601f168201915b50505050508152505090506001600081548092919060010191905055506002600081548092919060010191905055506040518060c00160405280600254815260200160015481526020018260400151815260200182606001518152602001826080015181526020018260a0015181525060046000600254815260200190815260200160002060008201518160000155602082015181600101556040820151816002019080519060200190615834929190615e15565b506060820151816003019080519060200190615851929190615e15565b50608082015181600401908051906020019061586e929190615e15565b5060a082015181600501908051906020019061588b929190615e15565b509050507f1b671bbb64565da7b45ceaf6219bba3fd668049056ae524576932af0d7834f046002546001548360400151846060015185608001518660a001516040518087815260200186815260200180602001806020018060200180602001858103855289818151815260200191508051906020019080838360005b83811015615922578082015181840152602081019050615907565b50505050905090810190601f16801561594f5780820380516001836020036101000a031916815260200191505b50858103845288818151815260200191508051906020019080838360005b8381101561598857808201518184015260208101905061596d565b50505050905090810190601f1680156159b55780820380516001836020036101000a031916815260200191505b50858103835287818151815260200191508051906020019080838360005b838110156159ee5780820151818401526020810190506159d3565b50505050905090810190601f168015615a1b5780820380516001836020036101000a031916815260200191505b50858103825286818151815260200191508051906020019080838360005b83811015615a54578082015181840152602081019050615a39565b50505050905090810190601f168015615a815780820380516001836020036101000a031916815260200191505b509a505050505050505050505060405180910390a16040518060e0016040528060015481526020018360200151815260200160025481526020016040518060400160405280600781526020017f72656e657765640000000000000000000000000000000000000000000000000081525081526020018481526020018581526020013373ffffffffffffffffffffffffffffffffffffffff16815250600360006001548152602001908152602001600020600082015181600001556020820151816001019080519060200190615b57929190615e15565b50604082015181600201556060820151816003019080519060200190615b7e929190615e15565b506080820151816004019080519060200190615b9b929190615e15565b5060a0820151816005015560c08201518160060160006101000a81548173ffffffffffffffffffffffffffffffffffffffff021916908373ffffffffffffffffffffffffffffffffffffffff1602179055509050507f9cfe9df8d3f4a338c6723b2b4cb50afb85f0eddb7bdd320162e69a2c51cb05486001548360200151600254868833604051808781526020018060200186815260200180602001806020018681526020018573ffffffffffffffffffffffffffffffffffffffff1673ffffffffffffffffffffffffffffffffffffffff168152602001848103845289818151815260200191508051906020019080838360005b83811015615cab578082015181840152602081019050615c90565b50505050905090810190601f168015615cd85780820380516001836020036101000a031916815260200191505b50848103835260078152602001807f72656e6577656400000000000000000000000000000000000000000000000000815250602001848103825287818151815260200191508051906020019080838360005b83811015615d45578082015181840152602081019050615d2a565b50505050905090810190601f168015615d725780820380516001836020036101000a031916815260200191505b50995050505050505050505060405180910390a150505050565b6040518060e00160405280600081526020016060815260200160008152602001606081526020016060815260200160008152602001600073ffffffffffffffffffffffffffffffffffffffff1681525090565b6040518060c001604052806000815260200160008152602001606081526020016060815260200160608152602001606081525090565b828054600181600116156101000203166002900490600052602060002090601f016020900481019282601f10615e5657805160ff1916838001178555615e84565b82800160010185558215615e84579182015b82811115615e83578251825591602001919060010190615e68565b5b509050615e919190615e95565b5090565b615eb791905b80821115615eb3576000816000905550600101615e9b565b5090565b9056fea265627a7a723158209b170e9888136ca30b24f4c015cbb936299854086c67ab133ccce0ca5ef1316f64736f6c63430005100032",
  "source": "pragma solidity >=0.4.16 <0.7.0;\r\n//pragma experimental ABIEncoderV2;\r\n\r\ncontract SocialNetwork {\r\n    // State variable\r\n    string public name;\r\n    uint public appCount = 0;\r\n    uint public docCount =0;\r\n\r\n    mapping(uint => Application) public apps;\r\n    mapping(uint => Document) public docs;\r\n    \r\n    struct Document {\r\n        uint id;\r\n        uint appId;\r\n        string aerodromeManual;\r\n        string licensingFee;\r\n        string CARcompliance;\r\n        string exceptionsDoc;\r\n    }\r\n\r\n    struct Application{\r\n        uint appId;\r\n        string airportCode;\r\n        uint id;\r\n        string state;\r\n        string timestamp;\r\n        uint previousStateId;\r\n        address payable author;\r\n    }\r\n\r\n    event AppCreated(\r\n        uint appId,\r\n        string airportCode,\r\n        uint id,\r\n        string state,\r\n        string timestamp,\r\n        uint previousStateId,\r\n        address payable author\r\n    );\r\n\r\n    event DocCreated(\r\n       uint id,\r\n        uint appId,\r\n        string aerodromeManual,\r\n        string licensingFee,\r\n        string CARcompliance,\r\n        string exceptionsDoc\r\n    );\r\n    \r\n    event DocIdUpdated(\r\n       uint id,\r\n        uint appId,\r\n        string aerodromeManual,\r\n        string licensingFee,\r\n        string CARcompliance,\r\n        string exceptionsDoc\r\n    );\r\n\r\n    event AppIssued(\r\n        uint appId,\r\n        string airportCode,\r\n        uint id,\r\n        string state,\r\n        string timestamp,\r\n        uint previousStateId,\r\n        address payable author\r\n    );\r\n\r\nevent AppAssigned(\r\n        uint appId,\r\n        string airportCode,\r\n        uint id,\r\n        string state,\r\n        string timestamp,\r\n        uint previousStateId,\r\n        address payable author\r\n    );\r\n    \r\n event AppApproved(\r\n    uint appId,\r\n    string airportCode,\r\n    uint id,\r\n    string state,\r\n    string timestamp,\r\n    uint previousStateId,\r\n    address payable author\r\n);\r\n\r\n event AppRejected(\r\n    uint appId,\r\n    string airportCode,\r\n    uint id,\r\n    string state,\r\n    string timestamp,\r\n    uint previousStateId,\r\n    address payable author\r\n);\r\n\r\n event AppGranted(\r\n    uint appId,\r\n    string airportCode,\r\n    uint id,\r\n    string state,\r\n    string timestamp,\r\n    uint previousStateId,\r\n    address payable author\r\n);\r\n\r\n event AppRenewed(\r\n    uint appId,\r\n    string airportCode,\r\n    uint id,\r\n    string state,\r\n    string timestamp,\r\n    uint previousStateId,\r\n    address payable author\r\n);\r\n    // Constructor function\r\n    constructor () public {\r\n        name = \"Airport Database\";\r\n    }\r\n\r\n   function createApp(string memory airportCode, string memory doc1, string memory doc2, string memory doc3,string memory doc4, string memory timestamp) \r\n   public {\r\n    // Compulsory requires an airportcode\r\n    require(bytes(airportCode).length > 0);\r\n    require(bytes(doc1).length>0);\r\n    require(bytes(doc2).length>0);\r\n    require(bytes(doc3).length>0);\r\n    require(bytes(doc4).length>0);\r\n    // Increment the application count\r\n    appCount ++;\r\n    docCount ++;\r\n    //Create the document first\r\n    docs[docCount] = Document(docCount,appCount,doc1,doc2,doc3,doc4);\r\n    emit DocCreated(docCount,appCount,doc1,doc2,doc3,doc4);\r\n    // Create the application\r\n    apps[appCount] = Application(appCount,airportCode,docCount,\"created\",timestamp,appCount,msg.sender);\r\n    // Trigger event\r\n    emit AppCreated(appCount,airportCode,docCount,\"created\",timestamp,appCount,msg.sender);\r\n}\r\n\r\n\r\n function issueApp(uint _id, string memory timestamp) public {\r\n    //Require valid ID\r\n    require(_id > 0 && _id <= appCount);\r\n    //fetch the application and document \r\n    Application memory app = apps[_id];\r\n    Document memory doc = docs[app.id];\r\n    // Increment the application count\r\n    appCount ++;\r\n    docCount ++;\r\n    // Create a new document with the updated project id\r\n    docs[docCount] = Document(docCount,appCount,doc.aerodromeManual,doc.licensingFee,doc.CARcompliance,doc.exceptionsDoc);\r\n    emit DocCreated(docCount,appCount,doc.aerodromeManual,doc.licensingFee,doc.CARcompliance,doc.exceptionsDoc);\r\n\r\n    // Create New application with changed state and link it to the prvious application\r\n    apps[appCount] = Application(appCount,app.airportCode,docCount,\r\n    \"issued\",timestamp,app.appId, msg.sender);\r\n    // Trigger event\r\n    emit AppIssued(appCount,app.airportCode,docCount,\r\n    \"issued\",timestamp,app.appId, msg.sender);\r\n}\r\n\r\n\r\nfunction assignApp(uint _id, string memory timestamp) public {\r\n   //Require valid ID\r\n    require(_id > 0 && _id <= appCount);\r\n    //fetch the application and document \r\n    Application memory app = apps[_id];\r\n    Document memory doc = docs[app.id];\r\n    // Increment the application count\r\n    appCount ++;\r\n    docCount ++;\r\n    // Create a new document with the updated project id\r\n    docs[docCount] = Document(docCount,appCount,doc.aerodromeManual,doc.licensingFee,doc.CARcompliance,doc.exceptionsDoc);\r\n    emit DocCreated(docCount,appCount,doc.aerodromeManual,doc.licensingFee,doc.CARcompliance,doc.exceptionsDoc);\r\n\r\n    // Create New application with changed state and link it to the prvious application\r\n    apps[appCount] = Application(appCount,app.airportCode,docCount,\r\n    \"assigned\",timestamp,_id, msg.sender);\r\n    // Trigger event\r\n    emit AppAssigned(appCount,app.airportCode,docCount,\r\n    \"assigned\",timestamp,_id, msg.sender);\r\n}\r\n\r\nfunction approveApp(uint _id, string memory timestamp) public {\r\n   //Require valid ID\r\n    require(_id > 0 && _id <= appCount);\r\n    //fetch the application and document \r\n    Application memory app = apps[_id];\r\n    Document memory doc = docs[app.id];\r\n    // Increment the application count\r\n    appCount ++;\r\n    docCount ++;\r\n    // Create a new document with the updated project id\r\n    docs[docCount] = Document(docCount,appCount,doc.aerodromeManual,doc.licensingFee,doc.CARcompliance,doc.exceptionsDoc);\r\n    emit DocCreated(docCount,appCount,doc.aerodromeManual,doc.licensingFee,doc.CARcompliance,doc.exceptionsDoc);\r\n\r\n    // Create New application with changed state and link it to the prvious application\r\n    apps[appCount] = Application(appCount,app.airportCode,docCount,\r\n    \"approved\",timestamp,_id, msg.sender);\r\n    // Trigger event\r\n    emit AppApproved(appCount,app.airportCode,docCount,\r\n    \"approved\",timestamp,_id, msg.sender);\r\n}\r\n\r\nfunction rejectApp(uint _id, string memory timestamp) public {\r\n    //Require valid ID\r\n    require(_id > 0 && _id <= appCount);\r\n    //fetch the application and document \r\n    Application memory app = apps[_id];\r\n    Document memory doc = docs[app.id];\r\n    // Increment the application count\r\n    appCount ++;\r\n    docCount ++;\r\n    // Create a new document with the updated project id\r\n    docs[docCount] = Document(docCount,appCount,doc.aerodromeManual,doc.licensingFee,doc.CARcompliance,doc.exceptionsDoc);\r\n    emit DocCreated(docCount,appCount,doc.aerodromeManual,doc.licensingFee,doc.CARcompliance,doc.exceptionsDoc);\r\n\r\n    // Create New application with changed state and link it to the prvious application\r\n    apps[appCount] = Application(appCount,app.airportCode,docCount,\r\n    \"rejected\",timestamp,_id, msg.sender);\r\n    // Trigger event\r\n    emit AppRejected(appCount,app.airportCode,docCount,\r\n    \"rejected\",timestamp,_id, msg.sender);\r\n}\r\n\r\nfunction renewApp(uint _id, string memory timestamp) public {\r\n    //Require valid ID\r\n    require(_id > 0 && _id <= appCount);\r\n    //fetch the application and document \r\n    Application memory app = apps[_id];\r\n    Document memory doc = docs[app.id];\r\n    // Increment the application count\r\n    appCount ++;\r\n    docCount ++;\r\n    // Create a new document with the updated project id\r\n    docs[docCount] = Document(docCount,appCount,doc.aerodromeManual,doc.licensingFee,doc.CARcompliance,doc.exceptionsDoc);\r\n    emit DocCreated(docCount,appCount,doc.aerodromeManual,doc.licensingFee,doc.CARcompliance,doc.exceptionsDoc);\r\n\r\n    // Create New application with changed state and link it to the prvious application\r\n    apps[appCount] = Application(appCount,app.airportCode,docCount,\r\n    \"renewed\",timestamp,_id, msg.sender);\r\n    // Trigger event\r\n    emit AppRenewed(appCount,app.airportCode,docCount,\r\n    \"renewed\",timestamp,_id, msg.sender);\r\n}\r\n\r\nfunction grantApp(uint _id, string memory timestamp) public {\r\n    //Require valid ID\r\n    require(_id > 0 && _id <= appCount);\r\n    //fetch the application and document \r\n    Application memory app = apps[_id];\r\n    Document memory doc = docs[app.id];\r\n    // Increment the application count\r\n    appCount ++;\r\n    docCount ++;\r\n    // Create a new document with the updated project id\r\n    docs[docCount] = Document(docCount,appCount,doc.aerodromeManual,doc.licensingFee,doc.CARcompliance,doc.exceptionsDoc);\r\n    emit DocCreated(docCount,appCount,doc.aerodromeManual,doc.licensingFee,doc.CARcompliance,doc.exceptionsDoc);\r\n\r\n    // Create New application with changed state and link it to the prvious application\r\n    apps[appCount] = Application(appCount,app.airportCode,docCount,\r\n    \"granted\",timestamp,_id, msg.sender);\r\n    // Trigger event\r\n    emit AppGranted(appCount,app.airportCode,docCount,\r\n    \"granted\",timestamp,_id, msg.sender);\r\n}\r\n\r\n\r\n\r\n}\r\n",
  "sourcePath": "D:/Suhaib/Programs/DAPPS/SIH - 2020 Knowledge Management System/client/src/contracts/SocialNetwork.sol",
  "compiler": {
    "name": "solc",
    "version": "0.5.16+commit.9c3226ce.Emscripten.clang"
  },
  "schemaVersion": "3.2.2",
  "updatedAt": "2020-07-28T08:17:37.806Z",
  "networkType": "ethereum",
  "devdoc": {
    "methods": {}
  },
  "userdoc": {
    "methods": {}
  }
}