{
  "contractName": "SocialNetwork",
  "abi": [
    {
      "constant": true,
      "inputs": [],
      "name": "name",
      "outputs": [
        {
          "name": "",
          "type": "string"
        }
      ],
      "payable": false,
      "stateMutability": "view",
      "type": "function",
      "signature": "0x06fdde03"
    },
    {
      "constant": true,
      "inputs": [
        {
          "name": "",
          "type": "uint256"
        }
      ],
      "name": "docs",
      "outputs": [
        {
          "name": "id",
          "type": "uint256"
        },
        {
          "name": "appId",
          "type": "uint256"
        },
        {
          "name": "aerodromeManual",
          "type": "string"
        },
        {
          "name": "licensingFee",
          "type": "string"
        },
        {
          "name": "CARcompliance",
          "type": "string"
        },
        {
          "name": "exceptionsDoc",
          "type": "string"
        }
      ],
      "payable": false,
      "stateMutability": "view",
      "type": "function",
      "signature": "0x23389c5a"
    },
    {
      "constant": true,
      "inputs": [],
      "name": "docCount",
      "outputs": [
        {
          "name": "",
          "type": "uint256"
        }
      ],
      "payable": false,
      "stateMutability": "view",
      "type": "function",
      "signature": "0x4c4dc6e0"
    },
    {
      "constant": true,
      "inputs": [
        {
          "name": "",
          "type": "uint256"
        }
      ],
      "name": "apps",
      "outputs": [
        {
          "name": "appId",
          "type": "uint256"
        },
        {
          "name": "airportCode",
          "type": "string"
        },
        {
          "name": "id",
          "type": "uint256"
        },
        {
          "name": "state",
          "type": "string"
        },
        {
          "name": "timestamp",
          "type": "string"
        },
        {
          "name": "author",
          "type": "address"
        }
      ],
      "payable": false,
      "stateMutability": "view",
      "type": "function",
      "signature": "0x61acc37e"
    },
    {
      "constant": true,
      "inputs": [],
      "name": "appCount",
      "outputs": [
        {
          "name": "",
          "type": "uint256"
        }
      ],
      "payable": false,
      "stateMutability": "view",
      "type": "function",
      "signature": "0xb55ca2c3"
    },
    {
      "inputs": [],
      "payable": false,
      "stateMutability": "nonpayable",
      "type": "constructor",
      "signature": "constructor"
    },
    {
      "anonymous": false,
      "inputs": [
        {
          "indexed": false,
          "name": "appId",
          "type": "uint256"
        },
        {
          "indexed": false,
          "name": "airportCode",
          "type": "string"
        },
        {
          "indexed": false,
          "name": "id",
          "type": "uint256"
        },
        {
          "indexed": false,
          "name": "state",
          "type": "string"
        },
        {
          "indexed": false,
          "name": "timestamp",
          "type": "string"
        },
        {
          "indexed": false,
          "name": "author",
          "type": "address"
        }
      ],
      "name": "AppCreated",
      "type": "event",
      "signature": "0x0ef03d65558316611b793a11377006b8fa251da66e5528a724d893e2ed81c066"
    },
    {
      "anonymous": false,
      "inputs": [
        {
          "indexed": false,
          "name": "id",
          "type": "uint256"
        },
        {
          "indexed": false,
          "name": "appId",
          "type": "uint256"
        },
        {
          "indexed": false,
          "name": "aerodromeManual",
          "type": "string"
        },
        {
          "indexed": false,
          "name": "licensingFee",
          "type": "string"
        },
        {
          "indexed": false,
          "name": "CARcompliance",
          "type": "string"
        },
        {
          "indexed": false,
          "name": "exceptionsDoc",
          "type": "string"
        }
      ],
      "name": "DocCreated",
      "type": "event",
      "signature": "0x1b671bbb64565da7b45ceaf6219bba3fd668049056ae524576932af0d7834f04"
    },
    {
      "anonymous": false,
      "inputs": [
        {
          "indexed": false,
          "name": "id",
          "type": "uint256"
        },
        {
          "indexed": false,
          "name": "appId",
          "type": "uint256"
        },
        {
          "indexed": false,
          "name": "aerodromeManual",
          "type": "string"
        },
        {
          "indexed": false,
          "name": "licensingFee",
          "type": "string"
        },
        {
          "indexed": false,
          "name": "CARcompliance",
          "type": "string"
        },
        {
          "indexed": false,
          "name": "exceptionsDoc",
          "type": "string"
        }
      ],
      "name": "DocIdUpdated",
      "type": "event",
      "signature": "0x9d50b47023a2f7f31702ba419b0bd9b107b9a68a714037da3b56e168e84a5134"
    },
    {
      "anonymous": false,
      "inputs": [
        {
          "indexed": false,
          "name": "appId",
          "type": "uint256"
        },
        {
          "indexed": false,
          "name": "airportCode",
          "type": "string"
        },
        {
          "indexed": false,
          "name": "id",
          "type": "uint256"
        },
        {
          "indexed": false,
          "name": "state",
          "type": "string"
        },
        {
          "indexed": false,
          "name": "timestamp",
          "type": "string"
        },
        {
          "indexed": false,
          "name": "author",
          "type": "address"
        }
      ],
      "name": "AppIssued",
      "type": "event",
      "signature": "0x45baadd18d4e1f978b94605de81343ac320dc23543ccb3ef3add079d355b9f79"
    },
    {
      "anonymous": false,
      "inputs": [
        {
          "indexed": false,
          "name": "appId",
          "type": "uint256"
        },
        {
          "indexed": false,
          "name": "airportCode",
          "type": "string"
        },
        {
          "indexed": false,
          "name": "id",
          "type": "uint256"
        },
        {
          "indexed": false,
          "name": "state",
          "type": "string"
        },
        {
          "indexed": false,
          "name": "timestamp",
          "type": "string"
        },
        {
          "indexed": false,
          "name": "author",
          "type": "address"
        }
      ],
      "name": "AppAssigned",
      "type": "event",
      "signature": "0xbd80e31258ae44f7055fcf6e9b625493f6aec6ce712291a1f83054c33251f05b"
    },
    {
      "anonymous": false,
      "inputs": [
        {
          "indexed": false,
          "name": "appId",
          "type": "uint256"
        },
        {
          "indexed": false,
          "name": "airportCode",
          "type": "string"
        },
        {
          "indexed": false,
          "name": "id",
          "type": "uint256"
        },
        {
          "indexed": false,
          "name": "state",
          "type": "string"
        },
        {
          "indexed": false,
          "name": "timestamp",
          "type": "string"
        },
        {
          "indexed": false,
          "name": "author",
          "type": "address"
        }
      ],
      "name": "AppApproved",
      "type": "event",
      "signature": "0x277977b4f187cd818f93685ee6be069743e776844ff677bc918a96851c75048f"
    },
    {
      "anonymous": false,
      "inputs": [
        {
          "indexed": false,
          "name": "appId",
          "type": "uint256"
        },
        {
          "indexed": false,
          "name": "airportCode",
          "type": "string"
        },
        {
          "indexed": false,
          "name": "id",
          "type": "uint256"
        },
        {
          "indexed": false,
          "name": "state",
          "type": "string"
        },
        {
          "indexed": false,
          "name": "timestamp",
          "type": "string"
        },
        {
          "indexed": false,
          "name": "author",
          "type": "address"
        }
      ],
      "name": "AppRejected",
      "type": "event",
      "signature": "0xf83d4a75ac129aca072a95ad913a5800f6410f3dcc9adda5975c9d883ea72cc2"
    },
    {
      "anonymous": false,
      "inputs": [
        {
          "indexed": false,
          "name": "appId",
          "type": "uint256"
        },
        {
          "indexed": false,
          "name": "airportCode",
          "type": "string"
        },
        {
          "indexed": false,
          "name": "id",
          "type": "uint256"
        },
        {
          "indexed": false,
          "name": "state",
          "type": "string"
        },
        {
          "indexed": false,
          "name": "timestamp",
          "type": "string"
        },
        {
          "indexed": false,
          "name": "author",
          "type": "address"
        }
      ],
      "name": "AppGranted",
      "type": "event",
      "signature": "0x58dbeb9cbc4d40b9f39628c5a3333a2f1a966aae432fa6639c96c197162d3fed"
    },
    {
      "anonymous": false,
      "inputs": [
        {
          "indexed": false,
          "name": "appId",
          "type": "uint256"
        },
        {
          "indexed": false,
          "name": "airportCode",
          "type": "string"
        },
        {
          "indexed": false,
          "name": "id",
          "type": "uint256"
        },
        {
          "indexed": false,
          "name": "state",
          "type": "string"
        },
        {
          "indexed": false,
          "name": "timestamp",
          "type": "string"
        },
        {
          "indexed": false,
          "name": "author",
          "type": "address"
        }
      ],
      "name": "AppRecreated",
      "type": "event",
      "signature": "0xa291e05d8119d509b45c23cecd2dc81ae8fc2558ab4cbb5de21864b2392827b2"
    },
    {
      "anonymous": false,
      "inputs": [
        {
          "indexed": false,
          "name": "appId",
          "type": "uint256"
        },
        {
          "indexed": false,
          "name": "airportCode",
          "type": "string"
        },
        {
          "indexed": false,
          "name": "id",
          "type": "uint256"
        },
        {
          "indexed": false,
          "name": "state",
          "type": "string"
        },
        {
          "indexed": false,
          "name": "timestamp",
          "type": "string"
        },
        {
          "indexed": false,
          "name": "author",
          "type": "address"
        }
      ],
      "name": "AppReview",
      "type": "event",
      "signature": "0xe713984c7d04c2954a025bd88b686426f4bbf7d7647da2fe12e206b1bbbc383e"
    },
    {
      "constant": true,
      "inputs": [
        {
          "name": "a",
          "type": "string"
        },
        {
          "name": "b",
          "type": "string"
        }
      ],
      "name": "compareStrings",
      "outputs": [
        {
          "name": "",
          "type": "bool"
        }
      ],
      "payable": false,
      "stateMutability": "pure",
      "type": "function",
      "signature": "0xbed34bba"
    },
    {
      "constant": false,
      "inputs": [
        {
          "name": "airportCode",
          "type": "string"
        },
        {
          "name": "doc1",
          "type": "string"
        },
        {
          "name": "doc2",
          "type": "string"
        },
        {
          "name": "doc3",
          "type": "string"
        },
        {
          "name": "doc4",
          "type": "string"
        },
        {
          "name": "timestamp",
          "type": "string"
        }
      ],
      "name": "createApp",
      "outputs": [],
      "payable": false,
      "stateMutability": "nonpayable",
      "type": "function",
      "signature": "0xaef5108f"
    },
    {
      "constant": false,
      "inputs": [
        {
          "name": "_id",
          "type": "uint256"
        },
        {
          "name": "timestamp",
          "type": "string"
        }
      ],
      "name": "issueApp",
      "outputs": [],
      "payable": false,
      "stateMutability": "nonpayable",
      "type": "function",
      "signature": "0x365f8b36"
    },
    {
      "constant": false,
      "inputs": [
        {
          "name": "_id",
          "type": "uint256"
        },
        {
          "name": "timestamp",
          "type": "string"
        }
      ],
      "name": "assignApp",
      "outputs": [],
      "payable": false,
      "stateMutability": "nonpayable",
      "type": "function",
      "signature": "0x138cfd47"
    },
    {
      "constant": false,
      "inputs": [
        {
          "name": "_id",
          "type": "uint256"
        },
        {
          "name": "timestamp",
          "type": "string"
        }
      ],
      "name": "approveApp",
      "outputs": [],
      "payable": false,
      "stateMutability": "nonpayable",
      "type": "function",
      "signature": "0x3ffddc9a"
    },
    {
      "constant": false,
      "inputs": [
        {
          "name": "_id",
          "type": "uint256"
        },
        {
          "name": "timestamp",
          "type": "string"
        }
      ],
      "name": "rejectApp",
      "outputs": [],
      "payable": false,
      "stateMutability": "nonpayable",
      "type": "function",
      "signature": "0x5d4c6d22"
    },
    {
      "constant": false,
      "inputs": [
        {
          "name": "_id",
          "type": "uint256"
        },
        {
          "name": "timestamp",
          "type": "string"
        }
      ],
      "name": "renewApp",
      "outputs": [],
      "payable": false,
      "stateMutability": "nonpayable",
      "type": "function",
      "signature": "0xee55ba3a"
    },
    {
      "constant": false,
      "inputs": [
        {
          "name": "_id",
          "type": "uint256"
        },
        {
          "name": "timestamp",
          "type": "string"
        }
      ],
      "name": "recreateApp",
      "outputs": [],
      "payable": false,
      "stateMutability": "nonpayable",
      "type": "function",
      "signature": "0x60871229"
    },
    {
      "constant": false,
      "inputs": [
        {
          "name": "_id",
          "type": "uint256"
        },
        {
          "name": "timestamp",
          "type": "string"
        }
      ],
      "name": "reviewApp",
      "outputs": [],
      "payable": false,
      "stateMutability": "nonpayable",
      "type": "function",
      "signature": "0x9760e144"
    },
    {
      "constant": false,
      "inputs": [
        {
          "name": "_id",
          "type": "uint256"
        },
        {
          "name": "timestamp",
          "type": "string"
        }
      ],
      "name": "grantApp",
      "outputs": [],
      "payable": false,
      "stateMutability": "nonpayable",
      "type": "function",
      "signature": "0x989b1594"
    }
  ],
  "bytecode": "0x6080604052600060015560006002553480156200001b57600080fd5b506040805190810160405280601081526020017f416972706f727420446174616261736500000000000000000000000000000000815250600090805190602001906200006992919062000070565b506200011f565b828054600181600116156101000203166002900490600052602060002090601f016020900481019282601f10620000b357805160ff1916838001178555620000e4565b82800160010185558215620000e4579182015b82811115620000e3578251825591602001919060010190620000c6565b5b509050620000f39190620000f7565b5090565b6200011c91905b8082111562000118576000816000905550600101620000fe565b5090565b90565b615f13806200012f6000396000f3fe6080604052600436106100db576000357c0100000000000000000000000000000000000000000000000000000000900463ffffffff16806306fdde03146100e0578063138cfd471461017057806323389c5a14610242578063365f8b36146104485780633ffddc9a1461051a5780634c4dc6e0146105ec5780635d4c6d221461061757806360871229146106e957806361acc37e146107bb5780639760e14414610988578063989b159414610a5a578063aef5108f14610b2c578063b55ca2c314610ee7578063bed34bba14610f12578063ee55ba3a14611089575b600080fd5b3480156100ec57600080fd5b506100f561115b565b6040518080602001828103825283818151815260200191508051906020019080838360005b8381101561013557808201518184015260208101905061011a565b50505050905090810190601f1680156101625780820380516001836020036101000a031916815260200191505b509250505060405180910390f35b34801561017c57600080fd5b506102406004803603604081101561019357600080fd5b8101908080359060200190929190803590602001906401000000008111156101ba57600080fd5b8201836020820111156101cc57600080fd5b803590602001918460018302840111640100000000831117156101ee57600080fd5b91908080601f016020809104026020016040519081016040528093929190818152602001838380828437600081840152601f19601f8201169050808301925050505050505091929192905050506111f9565b005b34801561024e57600080fd5b5061027b6004803603602081101561026557600080fd5b81019080803590602001909291905050506119f7565b6040518087815260200186815260200180602001806020018060200180602001858103855289818151815260200191508051906020019080838360005b838110156102d35780820151818401526020810190506102b8565b50505050905090810190601f1680156103005780820380516001836020036101000a031916815260200191505b50858103845288818151815260200191508051906020019080838360005b8381101561033957808201518184015260208101905061031e565b50505050905090810190601f1680156103665780820380516001836020036101000a031916815260200191505b50858103835287818151815260200191508051906020019080838360005b8381101561039f578082015181840152602081019050610384565b50505050905090810190601f1680156103cc5780820380516001836020036101000a031916815260200191505b50858103825286818151815260200191508051906020019080838360005b838110156104055780820151818401526020810190506103ea565b50505050905090810190601f1680156104325780820380516001836020036101000a031916815260200191505b509a505050505050505050505060405180910390f35b34801561045457600080fd5b506105186004803603604081101561046b57600080fd5b81019080803590602001909291908035906020019064010000000081111561049257600080fd5b8201836020820111156104a457600080fd5b803590602001918460018302840111640100000000831117156104c657600080fd5b91908080601f016020809104026020016040519081016040528093929190818152602001838380828437600081840152601f19601f820116905080830192505050505050509192919290505050611c93565b005b34801561052657600080fd5b506105ea6004803603604081101561053d57600080fd5b81019080803590602001909291908035906020019064010000000081111561056457600080fd5b82018360208201111561057657600080fd5b8035906020019184600183028401116401000000008311171561059857600080fd5b91908080601f016020809104026020016040519081016040528093929190818152602001838380828437600081840152601f19601f820116905080830192505050505050509192919290505050612491565b005b3480156105f857600080fd5b50610601612c8f565b6040518082815260200191505060405180910390f35b34801561062357600080fd5b506106e76004803603604081101561063a57600080fd5b81019080803590602001909291908035906020019064010000000081111561066157600080fd5b82018360208201111561067357600080fd5b8035906020019184600183028401116401000000008311171561069557600080fd5b91908080601f016020809104026020016040519081016040528093929190818152602001838380828437600081840152601f19601f820116905080830192505050505050509192919290505050612c95565b005b3480156106f557600080fd5b506107b96004803603604081101561070c57600080fd5b81019080803590602001909291908035906020019064010000000081111561073357600080fd5b82018360208201111561074557600080fd5b8035906020019184600183028401116401000000008311171561076757600080fd5b91908080601f016020809104026020016040519081016040528093929190818152602001838380828437600081840152601f19601f820116905080830192505050505050509192919290505050613493565b005b3480156107c757600080fd5b506107f4600480360360208110156107de57600080fd5b8101908080359060200190929190505050613c91565b604051808781526020018060200186815260200180602001806020018573ffffffffffffffffffffffffffffffffffffffff1673ffffffffffffffffffffffffffffffffffffffff168152602001848103845289818151815260200191508051906020019080838360005b8381101561087a57808201518184015260208101905061085f565b50505050905090810190601f1680156108a75780820380516001836020036101000a031916815260200191505b50848103835287818151815260200191508051906020019080838360005b838110156108e05780820151818401526020810190506108c5565b50505050905090810190601f16801561090d5780820380516001836020036101000a031916815260200191505b50848103825286818151815260200191508051906020019080838360005b8381101561094657808201518184015260208101905061092b565b50505050905090810190601f1680156109735780820380516001836020036101000a031916815260200191505b50995050505050505050505060405180910390f35b34801561099457600080fd5b50610a58600480360360408110156109ab57600080fd5b8101908080359060200190929190803590602001906401000000008111156109d257600080fd5b8201836020820111156109e457600080fd5b80359060200191846001830284011164010000000083111715610a0657600080fd5b91908080601f016020809104026020016040519081016040528093929190818152602001838380828437600081840152601f19601f820116905080830192505050505050509192919290505050613eb5565b005b348015610a6657600080fd5b50610b2a60048036036040811015610a7d57600080fd5b810190808035906020019092919080359060200190640100000000811115610aa457600080fd5b820183602082011115610ab657600080fd5b80359060200191846001830284011164010000000083111715610ad857600080fd5b91908080601f016020809104026020016040519081016040528093929190818152602001838380828437600081840152601f19601f8201169050808301925050505050505091929192905050506146b3565b005b348015610b3857600080fd5b50610ee5600480360360c0811015610b4f57600080fd5b8101908080359060200190640100000000811115610b6c57600080fd5b820183602082011115610b7e57600080fd5b80359060200191846001830284011164010000000083111715610ba057600080fd5b91908080601f016020809104026020016040519081016040528093929190818152602001838380828437600081840152601f19601f82011690508083019250505050505050919291929080359060200190640100000000811115610c0357600080fd5b820183602082011115610c1557600080fd5b80359060200191846001830284011164010000000083111715610c3757600080fd5b91908080601f016020809104026020016040519081016040528093929190818152602001838380828437600081840152601f19601f82011690508083019250505050505050919291929080359060200190640100000000811115610c9a57600080fd5b820183602082011115610cac57600080fd5b80359060200191846001830284011164010000000083111715610cce57600080fd5b91908080601f016020809104026020016040519081016040528093929190818152602001838380828437600081840152601f19601f82011690508083019250505050505050919291929080359060200190640100000000811115610d3157600080fd5b820183602082011115610d4357600080fd5b80359060200191846001830284011164010000000083111715610d6557600080fd5b91908080601f016020809104026020016040519081016040528093929190818152602001838380828437600081840152601f19601f82011690508083019250505050505050919291929080359060200190640100000000811115610dc857600080fd5b820183602082011115610dda57600080fd5b80359060200191846001830284011164010000000083111715610dfc57600080fd5b91908080601f016020809104026020016040519081016040528093929190818152602001838380828437600081840152601f19601f82011690508083019250505050505050919291929080359060200190640100000000811115610e5f57600080fd5b820183602082011115610e7157600080fd5b80359060200191846001830284011164010000000083111715610e9357600080fd5b91908080601f016020809104026020016040519081016040528093929190818152602001838380828437600081840152601f19601f820116905080830192505050505050509192919290505050614eb1565b005b348015610ef357600080fd5b50610efc6154c7565b6040518082815260200191505060405180910390f35b348015610f1e57600080fd5b5061106f60048036036040811015610f3557600080fd5b8101908080359060200190640100000000811115610f5257600080fd5b820183602082011115610f6457600080fd5b80359060200191846001830284011164010000000083111715610f8657600080fd5b91908080601f016020809104026020016040519081016040528093929190818152602001838380828437600081840152601f19601f82011690508083019250505050505050919291929080359060200190640100000000811115610fe957600080fd5b820183602082011115610ffb57600080fd5b8035906020019184600183028401116401000000008311171561101d57600080fd5b91908080601f016020809104026020016040519081016040528093929190818152602001838380828437600081840152601f19601f8201169050808301925050505050505091929192905050506154cd565b604051808215151515815260200191505060405180910390f35b34801561109557600080fd5b50611159600480360360408110156110ac57600080fd5b8101908080359060200190929190803590602001906401000000008111156110d357600080fd5b8201836020820111156110e557600080fd5b8035906020019184600183028401116401000000008311171561110757600080fd5b91908080601f016020809104026020016040519081016040528093929190818152602001838380828437600081840152601f19601f8201169050808301925050505050505091929192905050506155c0565b005b60008054600181600116156101000203166002900480601f0160208091040260200160405190810160405280929190818152602001828054600181600116156101000203166002900480156111f15780601f106111c6576101008083540402835291602001916111f1565b820191906000526020600020905b8154815290600101906020018083116111d457829003601f168201915b505050505081565b60008211801561120b57506001548211155b151561121657600080fd5b61121e615dbe565b6003600084815260200190815260200160002060c0604051908101604052908160008201548152602001600182018054600181600116156101000203166002900480601f0160208091040260200160405190810160405280929190818152602001828054600181600116156101000203166002900480156112e05780601f106112b5576101008083540402835291602001916112e0565b820191906000526020600020905b8154815290600101906020018083116112c357829003601f168201915b5050505050815260200160028201548152602001600382018054600181600116156101000203166002900480601f01602080910402602001604051908101604052809291908181526020018280546001816001161561010002031660029004801561138c5780601f106113615761010080835404028352916020019161138c565b820191906000526020600020905b81548152906001019060200180831161136f57829003601f168201915b50505050508152602001600482018054600181600116156101000203166002900480601f01602080910402602001604051908101604052809291908181526020018280546001816001161561010002031660029004801561142e5780601f106114035761010080835404028352916020019161142e565b820191906000526020600020905b81548152906001019060200180831161141157829003601f168201915b505050505081526020016005820160009054906101000a900473ffffffffffffffffffffffffffffffffffffffff1673ffffffffffffffffffffffffffffffffffffffff1673ffffffffffffffffffffffffffffffffffffffff16815250509050611497615e0b565b600460008360400151815260200190815260200160002060c060405190810160405290816000820154815260200160018201548152602001600282018054600181600116156101000203166002900480601f0160208091040260200160405190810160405280929190818152602001828054600181600116156101000203166002900480156115675780601f1061153c57610100808354040283529160200191611567565b820191906000526020600020905b81548152906001019060200180831161154a57829003601f168201915b50505050508152602001600382018054600181600116156101000203166002900480601f0160208091040260200160405190810160405280929190818152602001828054600181600116156101000203166002900480156116095780601f106115de57610100808354040283529160200191611609565b820191906000526020600020905b8154815290600101906020018083116115ec57829003601f168201915b50505050508152602001600482018054600181600116156101000203166002900480601f0160208091040260200160405190810160405280929190818152602001828054600181600116156101000203166002900480156116ab5780601f10611680576101008083540402835291602001916116ab565b820191906000526020600020905b81548152906001019060200180831161168e57829003601f168201915b50505050508152602001600582018054600181600116156101000203166002900480601f01602080910402602001604051908101604052809291908181526020018280546001816001161561010002031660029004801561174d5780601f106117225761010080835404028352916020019161174d565b820191906000526020600020905b81548152906001019060200180831161173057829003601f168201915b50505050508152505090506040805190810160405280600881526020017f61737369676e6564000000000000000000000000000000000000000000000000815250826060018190525081600360008681526020019081526020016000206000820151816000015560208201518160010190805190602001906117d0929190615e42565b506040820151816002015560608201518160030190805190602001906117f7929190615e42565b506080820151816004019080519060200190611814929190615e42565b5060a08201518160050160006101000a81548173ffffffffffffffffffffffffffffffffffffffff021916908373ffffffffffffffffffffffffffffffffffffffff1602179055509050507fbd80e31258ae44f7055fcf6e9b625493f6aec6ce712291a1f83054c33251f05b8260000151836020015183600001518633604051808681526020018060200185815260200180602001806020018573ffffffffffffffffffffffffffffffffffffffff1673ffffffffffffffffffffffffffffffffffffffff168152602001848103845288818151815260200191508051906020019080838360005b838110156119175780820151818401526020810190506118fc565b50505050905090810190601f1680156119445780820380516001836020036101000a031916815260200191505b50848103835260088152602001807f61737369676e6564000000000000000000000000000000000000000000000000815250602001848103825286818151815260200191508051906020019080838360005b838110156119b1578082015181840152602081019050611996565b50505050905090810190601f1680156119de5780820380516001836020036101000a031916815260200191505b509850505050505050505060405180910390a150505050565b6004602052806000526040600020600091509050806000015490806001015490806002018054600181600116156101000203166002900480601f016020809104026020016040519081016040528092919081815260200182805460018160011615610100020316600290048015611aaf5780601f10611a8457610100808354040283529160200191611aaf565b820191906000526020600020905b815481529060010190602001808311611a9257829003601f168201915b505050505090806003018054600181600116156101000203166002900480601f016020809104026020016040519081016040528092919081815260200182805460018160011615610100020316600290048015611b4d5780601f10611b2257610100808354040283529160200191611b4d565b820191906000526020600020905b815481529060010190602001808311611b3057829003601f168201915b505050505090806004018054600181600116156101000203166002900480601f016020809104026020016040519081016040528092919081815260200182805460018160011615610100020316600290048015611beb5780601f10611bc057610100808354040283529160200191611beb565b820191906000526020600020905b815481529060010190602001808311611bce57829003601f168201915b505050505090806005018054600181600116156101000203166002900480601f016020809104026020016040519081016040528092919081815260200182805460018160011615610100020316600290048015611c895780601f10611c5e57610100808354040283529160200191611c89565b820191906000526020600020905b815481529060010190602001808311611c6c57829003601f168201915b5050505050905086565b600082118015611ca557506001548211155b1515611cb057600080fd5b611cb8615dbe565b6003600084815260200190815260200160002060c0604051908101604052908160008201548152602001600182018054600181600116156101000203166002900480601f016020809104026020016040519081016040528092919081815260200182805460018160011615610100020316600290048015611d7a5780601f10611d4f57610100808354040283529160200191611d7a565b820191906000526020600020905b815481529060010190602001808311611d5d57829003601f168201915b5050505050815260200160028201548152602001600382018054600181600116156101000203166002900480601f016020809104026020016040519081016040528092919081815260200182805460018160011615610100020316600290048015611e265780601f10611dfb57610100808354040283529160200191611e26565b820191906000526020600020905b815481529060010190602001808311611e0957829003601f168201915b50505050508152602001600482018054600181600116156101000203166002900480601f016020809104026020016040519081016040528092919081815260200182805460018160011615610100020316600290048015611ec85780601f10611e9d57610100808354040283529160200191611ec8565b820191906000526020600020905b815481529060010190602001808311611eab57829003601f168201915b505050505081526020016005820160009054906101000a900473ffffffffffffffffffffffffffffffffffffffff1673ffffffffffffffffffffffffffffffffffffffff1673ffffffffffffffffffffffffffffffffffffffff16815250509050611f31615e0b565b600460008360400151815260200190815260200160002060c060405190810160405290816000820154815260200160018201548152602001600282018054600181600116156101000203166002900480601f0160208091040260200160405190810160405280929190818152602001828054600181600116156101000203166002900480156120015780601f10611fd657610100808354040283529160200191612001565b820191906000526020600020905b815481529060010190602001808311611fe457829003601f168201915b50505050508152602001600382018054600181600116156101000203166002900480601f0160208091040260200160405190810160405280929190818152602001828054600181600116156101000203166002900480156120a35780601f10612078576101008083540402835291602001916120a3565b820191906000526020600020905b81548152906001019060200180831161208657829003601f168201915b50505050508152602001600482018054600181600116156101000203166002900480601f0160208091040260200160405190810160405280929190818152602001828054600181600116156101000203166002900480156121455780601f1061211a57610100808354040283529160200191612145565b820191906000526020600020905b81548152906001019060200180831161212857829003601f168201915b50505050508152602001600582018054600181600116156101000203166002900480601f0160208091040260200160405190810160405280929190818152602001828054600181600116156101000203166002900480156121e75780601f106121bc576101008083540402835291602001916121e7565b820191906000526020600020905b8154815290600101906020018083116121ca57829003601f168201915b50505050508152505090506040805190810160405280600681526020017f69737375656400000000000000000000000000000000000000000000000000008152508260600181905250816003600086815260200190815260200160002060008201518160000155602082015181600101908051906020019061226a929190615e42565b50604082015181600201556060820151816003019080519060200190612291929190615e42565b5060808201518160040190805190602001906122ae929190615e42565b5060a08201518160050160006101000a81548173ffffffffffffffffffffffffffffffffffffffff021916908373ffffffffffffffffffffffffffffffffffffffff1602179055509050507f45baadd18d4e1f978b94605de81343ac320dc23543ccb3ef3add079d355b9f798260000151836020015183600001518633604051808681526020018060200185815260200180602001806020018573ffffffffffffffffffffffffffffffffffffffff1673ffffffffffffffffffffffffffffffffffffffff168152602001848103845288818151815260200191508051906020019080838360005b838110156123b1578082015181840152602081019050612396565b50505050905090810190601f1680156123de5780820380516001836020036101000a031916815260200191505b50848103835260068152602001807f6973737565640000000000000000000000000000000000000000000000000000815250602001848103825286818151815260200191508051906020019080838360005b8381101561244b578082015181840152602081019050612430565b50505050905090810190601f1680156124785780820380516001836020036101000a031916815260200191505b509850505050505050505060405180910390a150505050565b6000821180156124a357506001548211155b15156124ae57600080fd5b6124b6615dbe565b6003600084815260200190815260200160002060c0604051908101604052908160008201548152602001600182018054600181600116156101000203166002900480601f0160208091040260200160405190810160405280929190818152602001828054600181600116156101000203166002900480156125785780601f1061254d57610100808354040283529160200191612578565b820191906000526020600020905b81548152906001019060200180831161255b57829003601f168201915b5050505050815260200160028201548152602001600382018054600181600116156101000203166002900480601f0160208091040260200160405190810160405280929190818152602001828054600181600116156101000203166002900480156126245780601f106125f957610100808354040283529160200191612624565b820191906000526020600020905b81548152906001019060200180831161260757829003601f168201915b50505050508152602001600482018054600181600116156101000203166002900480601f0160208091040260200160405190810160405280929190818152602001828054600181600116156101000203166002900480156126c65780601f1061269b576101008083540402835291602001916126c6565b820191906000526020600020905b8154815290600101906020018083116126a957829003601f168201915b505050505081526020016005820160009054906101000a900473ffffffffffffffffffffffffffffffffffffffff1673ffffffffffffffffffffffffffffffffffffffff1673ffffffffffffffffffffffffffffffffffffffff1681525050905061272f615e0b565b600460008360400151815260200190815260200160002060c060405190810160405290816000820154815260200160018201548152602001600282018054600181600116156101000203166002900480601f0160208091040260200160405190810160405280929190818152602001828054600181600116156101000203166002900480156127ff5780601f106127d4576101008083540402835291602001916127ff565b820191906000526020600020905b8154815290600101906020018083116127e257829003601f168201915b50505050508152602001600382018054600181600116156101000203166002900480601f0160208091040260200160405190810160405280929190818152602001828054600181600116156101000203166002900480156128a15780601f10612876576101008083540402835291602001916128a1565b820191906000526020600020905b81548152906001019060200180831161288457829003601f168201915b50505050508152602001600482018054600181600116156101000203166002900480601f0160208091040260200160405190810160405280929190818152602001828054600181600116156101000203166002900480156129435780601f1061291857610100808354040283529160200191612943565b820191906000526020600020905b81548152906001019060200180831161292657829003601f168201915b50505050508152602001600582018054600181600116156101000203166002900480601f0160208091040260200160405190810160405280929190818152602001828054600181600116156101000203166002900480156129e55780601f106129ba576101008083540402835291602001916129e5565b820191906000526020600020905b8154815290600101906020018083116129c857829003601f168201915b50505050508152505090506040805190810160405280600881526020017f617070726f76656400000000000000000000000000000000000000000000000081525082606001819052508160036000868152602001908152602001600020600082015181600001556020820151816001019080519060200190612a68929190615e42565b50604082015181600201556060820151816003019080519060200190612a8f929190615e42565b506080820151816004019080519060200190612aac929190615e42565b5060a08201518160050160006101000a81548173ffffffffffffffffffffffffffffffffffffffff021916908373ffffffffffffffffffffffffffffffffffffffff1602179055509050507f277977b4f187cd818f93685ee6be069743e776844ff677bc918a96851c75048f8260000151836020015183600001518633604051808681526020018060200185815260200180602001806020018573ffffffffffffffffffffffffffffffffffffffff1673ffffffffffffffffffffffffffffffffffffffff168152602001848103845288818151815260200191508051906020019080838360005b83811015612baf578082015181840152602081019050612b94565b50505050905090810190601f168015612bdc5780820380516001836020036101000a031916815260200191505b50848103835260088152602001807f617070726f766564000000000000000000000000000000000000000000000000815250602001848103825286818151815260200191508051906020019080838360005b83811015612c49578082015181840152602081019050612c2e565b50505050905090810190601f168015612c765780820380516001836020036101000a031916815260200191505b509850505050505050505060405180910390a150505050565b60025481565b600082118015612ca757506001548211155b1515612cb257600080fd5b612cba615dbe565b6003600084815260200190815260200160002060c0604051908101604052908160008201548152602001600182018054600181600116156101000203166002900480601f016020809104026020016040519081016040528092919081815260200182805460018160011615610100020316600290048015612d7c5780601f10612d5157610100808354040283529160200191612d7c565b820191906000526020600020905b815481529060010190602001808311612d5f57829003601f168201915b5050505050815260200160028201548152602001600382018054600181600116156101000203166002900480601f016020809104026020016040519081016040528092919081815260200182805460018160011615610100020316600290048015612e285780601f10612dfd57610100808354040283529160200191612e28565b820191906000526020600020905b815481529060010190602001808311612e0b57829003601f168201915b50505050508152602001600482018054600181600116156101000203166002900480601f016020809104026020016040519081016040528092919081815260200182805460018160011615610100020316600290048015612eca5780601f10612e9f57610100808354040283529160200191612eca565b820191906000526020600020905b815481529060010190602001808311612ead57829003601f168201915b505050505081526020016005820160009054906101000a900473ffffffffffffffffffffffffffffffffffffffff1673ffffffffffffffffffffffffffffffffffffffff1673ffffffffffffffffffffffffffffffffffffffff16815250509050612f33615e0b565b600460008360400151815260200190815260200160002060c060405190810160405290816000820154815260200160018201548152602001600282018054600181600116156101000203166002900480601f0160208091040260200160405190810160405280929190818152602001828054600181600116156101000203166002900480156130035780601f10612fd857610100808354040283529160200191613003565b820191906000526020600020905b815481529060010190602001808311612fe657829003601f168201915b50505050508152602001600382018054600181600116156101000203166002900480601f0160208091040260200160405190810160405280929190818152602001828054600181600116156101000203166002900480156130a55780601f1061307a576101008083540402835291602001916130a5565b820191906000526020600020905b81548152906001019060200180831161308857829003601f168201915b50505050508152602001600482018054600181600116156101000203166002900480601f0160208091040260200160405190810160405280929190818152602001828054600181600116156101000203166002900480156131475780601f1061311c57610100808354040283529160200191613147565b820191906000526020600020905b81548152906001019060200180831161312a57829003601f168201915b50505050508152602001600582018054600181600116156101000203166002900480601f0160208091040260200160405190810160405280929190818152602001828054600181600116156101000203166002900480156131e95780601f106131be576101008083540402835291602001916131e9565b820191906000526020600020905b8154815290600101906020018083116131cc57829003601f168201915b50505050508152505090506040805190810160405280600881526020017f72656a65637465640000000000000000000000000000000000000000000000008152508260600181905250816003600086815260200190815260200160002060008201518160000155602082015181600101908051906020019061326c929190615e42565b50604082015181600201556060820151816003019080519060200190613293929190615e42565b5060808201518160040190805190602001906132b0929190615e42565b5060a08201518160050160006101000a81548173ffffffffffffffffffffffffffffffffffffffff021916908373ffffffffffffffffffffffffffffffffffffffff1602179055509050507ff83d4a75ac129aca072a95ad913a5800f6410f3dcc9adda5975c9d883ea72cc28260000151836020015183600001518633604051808681526020018060200185815260200180602001806020018573ffffffffffffffffffffffffffffffffffffffff1673ffffffffffffffffffffffffffffffffffffffff168152602001848103845288818151815260200191508051906020019080838360005b838110156133b3578082015181840152602081019050613398565b50505050905090810190601f1680156133e05780820380516001836020036101000a031916815260200191505b50848103835260088152602001807f72656a6563746564000000000000000000000000000000000000000000000000815250602001848103825286818151815260200191508051906020019080838360005b8381101561344d578082015181840152602081019050613432565b50505050905090810190601f16801561347a5780820380516001836020036101000a031916815260200191505b509850505050505050505060405180910390a150505050565b6000821180156134a557506001548211155b15156134b057600080fd5b6134b8615dbe565b6003600084815260200190815260200160002060c0604051908101604052908160008201548152602001600182018054600181600116156101000203166002900480601f01602080910402602001604051908101604052809291908181526020018280546001816001161561010002031660029004801561357a5780601f1061354f5761010080835404028352916020019161357a565b820191906000526020600020905b81548152906001019060200180831161355d57829003601f168201915b5050505050815260200160028201548152602001600382018054600181600116156101000203166002900480601f0160208091040260200160405190810160405280929190818152602001828054600181600116156101000203166002900480156136265780601f106135fb57610100808354040283529160200191613626565b820191906000526020600020905b81548152906001019060200180831161360957829003601f168201915b50505050508152602001600482018054600181600116156101000203166002900480601f0160208091040260200160405190810160405280929190818152602001828054600181600116156101000203166002900480156136c85780601f1061369d576101008083540402835291602001916136c8565b820191906000526020600020905b8154815290600101906020018083116136ab57829003601f168201915b505050505081526020016005820160009054906101000a900473ffffffffffffffffffffffffffffffffffffffff1673ffffffffffffffffffffffffffffffffffffffff1673ffffffffffffffffffffffffffffffffffffffff16815250509050613731615e0b565b600460008360400151815260200190815260200160002060c060405190810160405290816000820154815260200160018201548152602001600282018054600181600116156101000203166002900480601f0160208091040260200160405190810160405280929190818152602001828054600181600116156101000203166002900480156138015780601f106137d657610100808354040283529160200191613801565b820191906000526020600020905b8154815290600101906020018083116137e457829003601f168201915b50505050508152602001600382018054600181600116156101000203166002900480601f0160208091040260200160405190810160405280929190818152602001828054600181600116156101000203166002900480156138a35780601f10613878576101008083540402835291602001916138a3565b820191906000526020600020905b81548152906001019060200180831161388657829003601f168201915b50505050508152602001600482018054600181600116156101000203166002900480601f0160208091040260200160405190810160405280929190818152602001828054600181600116156101000203166002900480156139455780601f1061391a57610100808354040283529160200191613945565b820191906000526020600020905b81548152906001019060200180831161392857829003601f168201915b50505050508152602001600582018054600181600116156101000203166002900480601f0160208091040260200160405190810160405280929190818152602001828054600181600116156101000203166002900480156139e75780601f106139bc576101008083540402835291602001916139e7565b820191906000526020600020905b8154815290600101906020018083116139ca57829003601f168201915b50505050508152505090506040805190810160405280600981526020017f726563726561746564000000000000000000000000000000000000000000000081525082606001819052508160036000868152602001908152602001600020600082015181600001556020820151816001019080519060200190613a6a929190615e42565b50604082015181600201556060820151816003019080519060200190613a91929190615e42565b506080820151816004019080519060200190613aae929190615e42565b5060a08201518160050160006101000a81548173ffffffffffffffffffffffffffffffffffffffff021916908373ffffffffffffffffffffffffffffffffffffffff1602179055509050507fa291e05d8119d509b45c23cecd2dc81ae8fc2558ab4cbb5de21864b2392827b28260000151836020015183600001518633604051808681526020018060200185815260200180602001806020018573ffffffffffffffffffffffffffffffffffffffff1673ffffffffffffffffffffffffffffffffffffffff168152602001848103845288818151815260200191508051906020019080838360005b83811015613bb1578082015181840152602081019050613b96565b50505050905090810190601f168015613bde5780820380516001836020036101000a031916815260200191505b50848103835260098152602001807f7265637265617465640000000000000000000000000000000000000000000000815250602001848103825286818151815260200191508051906020019080838360005b83811015613c4b578082015181840152602081019050613c30565b50505050905090810190601f168015613c785780820380516001836020036101000a031916815260200191505b509850505050505050505060405180910390a150505050565b6003602052806000526040600020600091509050806000015490806001018054600181600116156101000203166002900480601f016020809104026020016040519081016040528092919081815260200182805460018160011615610100020316600290048015613d435780601f10613d1857610100808354040283529160200191613d43565b820191906000526020600020905b815481529060010190602001808311613d2657829003601f168201915b505050505090806002015490806003018054600181600116156101000203166002900480601f016020809104026020016040519081016040528092919081815260200182805460018160011615610100020316600290048015613de75780601f10613dbc57610100808354040283529160200191613de7565b820191906000526020600020905b815481529060010190602001808311613dca57829003601f168201915b505050505090806004018054600181600116156101000203166002900480601f016020809104026020016040519081016040528092919081815260200182805460018160011615610100020316600290048015613e855780601f10613e5a57610100808354040283529160200191613e85565b820191906000526020600020905b815481529060010190602001808311613e6857829003601f168201915b5050505050908060050160009054906101000a900473ffffffffffffffffffffffffffffffffffffffff16905086565b600082118015613ec757506001548211155b1515613ed257600080fd5b613eda615dbe565b6003600084815260200190815260200160002060c0604051908101604052908160008201548152602001600182018054600181600116156101000203166002900480601f016020809104026020016040519081016040528092919081815260200182805460018160011615610100020316600290048015613f9c5780601f10613f7157610100808354040283529160200191613f9c565b820191906000526020600020905b815481529060010190602001808311613f7f57829003601f168201915b5050505050815260200160028201548152602001600382018054600181600116156101000203166002900480601f0160208091040260200160405190810160405280929190818152602001828054600181600116156101000203166002900480156140485780601f1061401d57610100808354040283529160200191614048565b820191906000526020600020905b81548152906001019060200180831161402b57829003601f168201915b50505050508152602001600482018054600181600116156101000203166002900480601f0160208091040260200160405190810160405280929190818152602001828054600181600116156101000203166002900480156140ea5780601f106140bf576101008083540402835291602001916140ea565b820191906000526020600020905b8154815290600101906020018083116140cd57829003601f168201915b505050505081526020016005820160009054906101000a900473ffffffffffffffffffffffffffffffffffffffff1673ffffffffffffffffffffffffffffffffffffffff1673ffffffffffffffffffffffffffffffffffffffff16815250509050614153615e0b565b600460008360400151815260200190815260200160002060c060405190810160405290816000820154815260200160018201548152602001600282018054600181600116156101000203166002900480601f0160208091040260200160405190810160405280929190818152602001828054600181600116156101000203166002900480156142235780601f106141f857610100808354040283529160200191614223565b820191906000526020600020905b81548152906001019060200180831161420657829003601f168201915b50505050508152602001600382018054600181600116156101000203166002900480601f0160208091040260200160405190810160405280929190818152602001828054600181600116156101000203166002900480156142c55780601f1061429a576101008083540402835291602001916142c5565b820191906000526020600020905b8154815290600101906020018083116142a857829003601f168201915b50505050508152602001600482018054600181600116156101000203166002900480601f0160208091040260200160405190810160405280929190818152602001828054600181600116156101000203166002900480156143675780601f1061433c57610100808354040283529160200191614367565b820191906000526020600020905b81548152906001019060200180831161434a57829003601f168201915b50505050508152602001600582018054600181600116156101000203166002900480601f0160208091040260200160405190810160405280929190818152602001828054600181600116156101000203166002900480156144095780601f106143de57610100808354040283529160200191614409565b820191906000526020600020905b8154815290600101906020018083116143ec57829003601f168201915b50505050508152505090506040805190810160405280600681526020017f72657669657700000000000000000000000000000000000000000000000000008152508260600181905250816003600086815260200190815260200160002060008201518160000155602082015181600101908051906020019061448c929190615e42565b506040820151816002015560608201518160030190805190602001906144b3929190615e42565b5060808201518160040190805190602001906144d0929190615e42565b5060a08201518160050160006101000a81548173ffffffffffffffffffffffffffffffffffffffff021916908373ffffffffffffffffffffffffffffffffffffffff1602179055509050507fe713984c7d04c2954a025bd88b686426f4bbf7d7647da2fe12e206b1bbbc383e8260000151836020015183600001518633604051808681526020018060200185815260200180602001806020018573ffffffffffffffffffffffffffffffffffffffff1673ffffffffffffffffffffffffffffffffffffffff168152602001848103845288818151815260200191508051906020019080838360005b838110156145d35780820151818401526020810190506145b8565b50505050905090810190601f1680156146005780820380516001836020036101000a031916815260200191505b50848103835260068152602001807f7265766965770000000000000000000000000000000000000000000000000000815250602001848103825286818151815260200191508051906020019080838360005b8381101561466d578082015181840152602081019050614652565b50505050905090810190601f16801561469a5780820380516001836020036101000a031916815260200191505b509850505050505050505060405180910390a150505050565b6000821180156146c557506001548211155b15156146d057600080fd5b6146d8615dbe565b6003600084815260200190815260200160002060c0604051908101604052908160008201548152602001600182018054600181600116156101000203166002900480601f01602080910402602001604051908101604052809291908181526020018280546001816001161561010002031660029004801561479a5780601f1061476f5761010080835404028352916020019161479a565b820191906000526020600020905b81548152906001019060200180831161477d57829003601f168201915b5050505050815260200160028201548152602001600382018054600181600116156101000203166002900480601f0160208091040260200160405190810160405280929190818152602001828054600181600116156101000203166002900480156148465780601f1061481b57610100808354040283529160200191614846565b820191906000526020600020905b81548152906001019060200180831161482957829003601f168201915b50505050508152602001600482018054600181600116156101000203166002900480601f0160208091040260200160405190810160405280929190818152602001828054600181600116156101000203166002900480156148e85780601f106148bd576101008083540402835291602001916148e8565b820191906000526020600020905b8154815290600101906020018083116148cb57829003601f168201915b505050505081526020016005820160009054906101000a900473ffffffffffffffffffffffffffffffffffffffff1673ffffffffffffffffffffffffffffffffffffffff1673ffffffffffffffffffffffffffffffffffffffff16815250509050614951615e0b565b600460008360400151815260200190815260200160002060c060405190810160405290816000820154815260200160018201548152602001600282018054600181600116156101000203166002900480601f016020809104026020016040519081016040528092919081815260200182805460018160011615610100020316600290048015614a215780601f106149f657610100808354040283529160200191614a21565b820191906000526020600020905b815481529060010190602001808311614a0457829003601f168201915b50505050508152602001600382018054600181600116156101000203166002900480601f016020809104026020016040519081016040528092919081815260200182805460018160011615610100020316600290048015614ac35780601f10614a9857610100808354040283529160200191614ac3565b820191906000526020600020905b815481529060010190602001808311614aa657829003601f168201915b50505050508152602001600482018054600181600116156101000203166002900480601f016020809104026020016040519081016040528092919081815260200182805460018160011615610100020316600290048015614b655780601f10614b3a57610100808354040283529160200191614b65565b820191906000526020600020905b815481529060010190602001808311614b4857829003601f168201915b50505050508152602001600582018054600181600116156101000203166002900480601f016020809104026020016040519081016040528092919081815260200182805460018160011615610100020316600290048015614c075780601f10614bdc57610100808354040283529160200191614c07565b820191906000526020600020905b815481529060010190602001808311614bea57829003601f168201915b50505050508152505090506040805190810160405280600781526020017f6772616e7465640000000000000000000000000000000000000000000000000081525082606001819052508160036000868152602001908152602001600020600082015181600001556020820151816001019080519060200190614c8a929190615e42565b50604082015181600201556060820151816003019080519060200190614cb1929190615e42565b506080820151816004019080519060200190614cce929190615e42565b5060a08201518160050160006101000a81548173ffffffffffffffffffffffffffffffffffffffff021916908373ffffffffffffffffffffffffffffffffffffffff1602179055509050507f58dbeb9cbc4d40b9f39628c5a3333a2f1a966aae432fa6639c96c197162d3fed8260000151836020015183600001518633604051808681526020018060200185815260200180602001806020018573ffffffffffffffffffffffffffffffffffffffff1673ffffffffffffffffffffffffffffffffffffffff168152602001848103845288818151815260200191508051906020019080838360005b83811015614dd1578082015181840152602081019050614db6565b50505050905090810190601f168015614dfe5780820380516001836020036101000a031916815260200191505b50848103835260078152602001807f6772616e74656400000000000000000000000000000000000000000000000000815250602001848103825286818151815260200191508051906020019080838360005b83811015614e6b578082015181840152602081019050614e50565b50505050905090810190601f168015614e985780820380516001836020036101000a031916815260200191505b509850505050505050505060405180910390a150505050565b60008651111515614ec157600080fd5b60008551111515614ed157600080fd5b60008451111515614ee157600080fd5b60008351111515614ef157600080fd5b60008251111515614f0157600080fd5b60016000815480929190600101919050555060026000815480929190600101919050555060c060405190810160405280600254815260200160015481526020018681526020018581526020018481526020018381525060046000600254815260200190815260200160002060008201518160000155602082015181600101556040820151816002019080519060200190614f9c929190615e42565b506060820151816003019080519060200190614fb9929190615e42565b506080820151816004019080519060200190614fd6929190615e42565b5060a0820151816005019080519060200190614ff3929190615e42565b509050507f1b671bbb64565da7b45ceaf6219bba3fd668049056ae524576932af0d7834f04600254600154878787876040518087815260200186815260200180602001806020018060200180602001858103855289818151815260200191508051906020019080838360005b8381101561507a57808201518184015260208101905061505f565b50505050905090810190601f1680156150a75780820380516001836020036101000a031916815260200191505b50858103845288818151815260200191508051906020019080838360005b838110156150e05780820151818401526020810190506150c5565b50505050905090810190601f16801561510d5780820380516001836020036101000a031916815260200191505b50858103835287818151815260200191508051906020019080838360005b8381101561514657808201518184015260208101905061512b565b50505050905090810190601f1680156151735780820380516001836020036101000a031916815260200191505b50858103825286818151815260200191508051906020019080838360005b838110156151ac578082015181840152602081019050615191565b50505050905090810190601f1680156151d95780820380516001836020036101000a031916815260200191505b509a505050505050505050505060405180910390a160c060405190810160405280600154815260200187815260200160025481526020016040805190810160405280600781526020017f637265617465640000000000000000000000000000000000000000000000000081525081526020018281526020013373ffffffffffffffffffffffffffffffffffffffff168152506003600060015481526020019081526020016000206000820151816000015560208201518160010190805190602001906152a6929190615e42565b506040820151816002015560608201518160030190805190602001906152cd929190615e42565b5060808201518160040190805190602001906152ea929190615e42565b5060a08201518160050160006101000a81548173ffffffffffffffffffffffffffffffffffffffff021916908373ffffffffffffffffffffffffffffffffffffffff1602179055509050507f0ef03d65558316611b793a11377006b8fa251da66e5528a724d893e2ed81c066600154876002548433604051808681526020018060200185815260200180602001806020018573ffffffffffffffffffffffffffffffffffffffff1673ffffffffffffffffffffffffffffffffffffffff168152602001848103845288818151815260200191508051906020019080838360005b838110156153e55780820151818401526020810190506153ca565b50505050905090810190601f1680156154125780820380516001836020036101000a031916815260200191505b50848103835260078152602001807f6372656174656400000000000000000000000000000000000000000000000000815250602001848103825286818151815260200191508051906020019080838360005b8381101561547f578082015181840152602081019050615464565b50505050905090810190601f1680156154ac5780820380516001836020036101000a031916815260200191505b509850505050505050505060405180910390a1505050505050565b60015481565b6000816040516020018082805190602001908083835b60208310151561550857805182526020820191506020810190506020830392506154e3565b6001836020036101000a03801982511681845116808217855250505050505090500191505060405160208183030381529060405280519060200120836040516020018082805190602001908083835b60208310151561557c5780518252602082019150602081019050602083039250615557565b6001836020036101000a0380198251168184511680821785525050505050509050019150506040516020818303038152906040528051906020012014905092915050565b6000821180156155d257506001548211155b15156155dd57600080fd5b6155e5615dbe565b6003600084815260200190815260200160002060c0604051908101604052908160008201548152602001600182018054600181600116156101000203166002900480601f0160208091040260200160405190810160405280929190818152602001828054600181600116156101000203166002900480156156a75780601f1061567c576101008083540402835291602001916156a7565b820191906000526020600020905b81548152906001019060200180831161568a57829003601f168201915b5050505050815260200160028201548152602001600382018054600181600116156101000203166002900480601f0160208091040260200160405190810160405280929190818152602001828054600181600116156101000203166002900480156157535780601f1061572857610100808354040283529160200191615753565b820191906000526020600020905b81548152906001019060200180831161573657829003601f168201915b50505050508152602001600482018054600181600116156101000203166002900480601f0160208091040260200160405190810160405280929190818152602001828054600181600116156101000203166002900480156157f55780601f106157ca576101008083540402835291602001916157f5565b820191906000526020600020905b8154815290600101906020018083116157d857829003601f168201915b505050505081526020016005820160009054906101000a900473ffffffffffffffffffffffffffffffffffffffff1673ffffffffffffffffffffffffffffffffffffffff1673ffffffffffffffffffffffffffffffffffffffff1681525050905061585e615e0b565b600460008360400151815260200190815260200160002060c060405190810160405290816000820154815260200160018201548152602001600282018054600181600116156101000203166002900480601f01602080910402602001604051908101604052809291908181526020018280546001816001161561010002031660029004801561592e5780601f106159035761010080835404028352916020019161592e565b820191906000526020600020905b81548152906001019060200180831161591157829003601f168201915b50505050508152602001600382018054600181600116156101000203166002900480601f0160208091040260200160405190810160405280929190818152602001828054600181600116156101000203166002900480156159d05780601f106159a5576101008083540402835291602001916159d0565b820191906000526020600020905b8154815290600101906020018083116159b357829003601f168201915b50505050508152602001600482018054600181600116156101000203166002900480601f016020809104026020016040519081016040528092919081815260200182805460018160011615610100020316600290048015615a725780601f10615a4757610100808354040283529160200191615a72565b820191906000526020600020905b815481529060010190602001808311615a5557829003601f168201915b50505050508152602001600582018054600181600116156101000203166002900480601f016020809104026020016040519081016040528092919081815260200182805460018160011615610100020316600290048015615b145780601f10615ae957610100808354040283529160200191615b14565b820191906000526020600020905b815481529060010190602001808311615af757829003601f168201915b50505050508152505090506040805190810160405280600781526020017f72656e657765640000000000000000000000000000000000000000000000000081525082606001819052508160036000868152602001908152602001600020600082015181600001556020820151816001019080519060200190615b97929190615e42565b50604082015181600201556060820151816003019080519060200190615bbe929190615e42565b506080820151816004019080519060200190615bdb929190615e42565b5060a08201518160050160006101000a81548173ffffffffffffffffffffffffffffffffffffffff021916908373ffffffffffffffffffffffffffffffffffffffff1602179055509050507fa291e05d8119d509b45c23cecd2dc81ae8fc2558ab4cbb5de21864b2392827b28260000151836020015183600001518633604051808681526020018060200185815260200180602001806020018573ffffffffffffffffffffffffffffffffffffffff1673ffffffffffffffffffffffffffffffffffffffff168152602001848103845288818151815260200191508051906020019080838360005b83811015615cde578082015181840152602081019050615cc3565b50505050905090810190601f168015615d0b5780820380516001836020036101000a031916815260200191505b50848103835260078152602001807f72656e6577656400000000000000000000000000000000000000000000000000815250602001848103825286818151815260200191508051906020019080838360005b83811015615d78578082015181840152602081019050615d5d565b50505050905090810190601f168015615da55780820380516001836020036101000a031916815260200191505b509850505050505050505060405180910390a150505050565b60c0604051908101604052806000815260200160608152602001600081526020016060815260200160608152602001600073ffffffffffffffffffffffffffffffffffffffff1681525090565b60c0604051908101604052806000815260200160008152602001606081526020016060815260200160608152602001606081525090565b828054600181600116156101000203166002900490600052602060002090601f016020900481019282601f10615e8357805160ff1916838001178555615eb1565b82800160010185558215615eb1579182015b82811115615eb0578251825591602001919060010190615e95565b5b509050615ebe9190615ec2565b5090565b615ee491905b80821115615ee0576000816000905550600101615ec8565b5090565b9056fea165627a7a72305820591871e8ea9a3e593574ec0c1c3f6e27e3df0d61558debd21d3791e86f2a36940029",
  "source": "pragma solidity >=0.4.16 <0.7.0;\n//pragma experimental ABIEncoderV2;\n\ncontract SocialNetwork {\n    // State variable\n    string public name;\n    uint public appCount = 0;\n    uint public docCount =0;\n\n    mapping(uint => Application) public apps;\n    mapping(uint => Document) public docs;\n    \n    struct Document {\n        uint id;\n        uint appId;\n        string aerodromeManual;\n        string licensingFee;\n        string CARcompliance;\n        string exceptionsDoc;\n    }\n\n    struct Application{\n        uint appId;\n        string airportCode;\n        uint id;\n        string state;\n        string timestamp;\n        address payable author;\n    }\n\n    event AppCreated(\n        uint appId,\n        string airportCode,\n        uint id,\n        string state,\n        string timestamp,\n        address payable author\n    );\n\n    event DocCreated(\n       uint id,\n        uint appId,\n        string aerodromeManual,\n        string licensingFee,\n        string CARcompliance,\n        string exceptionsDoc\n    );\n\n    event DocIdUpdated(\n       uint id,\n        uint appId,\n        string aerodromeManual,\n        string licensingFee,\n        string CARcompliance,\n        string exceptionsDoc\n    );\n\n    event AppIssued(\n        uint appId,\n        string airportCode,\n        uint id,\n        string state,\n        string timestamp,\n        address payable author\n    );\n\nevent AppAssigned(\n        uint appId,\n        string airportCode,\n        uint id,\n        string state,\n        string timestamp,\n        address payable author\n    );\n    \n event AppApproved(\n    uint appId,\n    string airportCode,\n    uint id,\n    string state,\n    string timestamp,\n    address payable author\n);\n\n event AppRejected(\n    uint appId,\n    string airportCode,\n    uint id,\n    string state,\n    string timestamp,\n    address payable author\n);\n\n event AppGranted(\n    uint appId,\n    string airportCode,\n    uint id,\n    string state,\n    string timestamp,\n    address payable author\n);\n\n event AppRecreated(\n    uint appId,\n    string airportCode,\n    uint id,\n    string state,\n    string timestamp,\n    address payable author\n);\n\n event AppReview(\n    uint appId,\n    string airportCode,\n    uint id,\n    string state,\n    string timestamp,\n    address payable author\n);\n\n    // Constructor function\n    constructor () public {\n        name = \"Airport Database\";\n    }\n\n    function compareStrings (string memory a, string memory b) public pure returns (bool) {\n        return (keccak256(abi.encodePacked((a))) == keccak256(abi.encodePacked((b))) );\n\n       }\n\n   function createApp(string memory airportCode, string memory doc1, string memory doc2, string memory doc3,string memory doc4, string memory timestamp) \n   public {\n    // Compulsory requires an airportcode\n    require(bytes(airportCode).length > 0);\n    require(bytes(doc1).length>0);\n    require(bytes(doc2).length>0);\n    require(bytes(doc3).length>0);\n    require(bytes(doc4).length>0);\n    // Increment the application count\n    appCount ++;\n    docCount ++;\n    //Create the document first\n    docs[docCount] = Document(docCount,appCount,doc1,doc2,doc3,doc4);\n    emit DocCreated(docCount,appCount,doc1,doc2,doc3,doc4);\n    // Create the application\n    apps[appCount] = Application(appCount,airportCode,docCount,\"created\",timestamp,msg.sender);\n    // Trigger event\n    emit AppCreated(appCount,airportCode,docCount,\"created\",timestamp,msg.sender);\n}\n\n function issueApp(uint _id, string memory timestamp) public {\n    //Require valid ID\n    require(_id > 0 && _id <= appCount);\n    //fetch the application and document \n    Application memory app = apps[_id];\n    Document memory doc = docs[app.id];\n        // If the state of the application is created only then the further state change will taake place\n        // if(compareStrings(app.state,\"created\")){\n            //Change the state of the application\n             app.state=\"issued\";\n            //Update the application\n             apps[_id] = app;\n            //Trigger event\n             emit AppIssued(app.appId,app.airportCode,doc.id,\"issued\",timestamp,msg.sender);\n        // }\n}\n\n\nfunction assignApp(uint _id, string memory timestamp) public {\n   //Require valid ID\n    require(_id > 0 && _id <= appCount);\n    //fetch the application and document \n    Application memory app = apps[_id];\n    Document memory doc = docs[app.id];\n        // If the state of the application is issued only then the further state change will take place\n       // if(compareStrings(app.state,\"issued\")){\n            //Change the state of the application\n             app.state=\"assigned\";\n            //Update the application\n             apps[_id] = app;\n            //Trigger event\n             emit AppAssigned(app.appId,app.airportCode,doc.id,\"assigned\",timestamp,msg.sender);\n       // }\n}\n\nfunction approveApp(uint _id, string memory timestamp) public {\n   //Require valid ID\n    require(_id > 0 && _id <= appCount);\n    //fetch the application and document \n    Application memory app = apps[_id];\n    Document memory doc = docs[app.id];\n        // If the state of the application is assigned only then the further state change will take place\n        //if(compareStrings(app.state,\"assigned\")){\n            //Change the state of the application\n             app.state=\"approved\";\n            //Update the application\n             apps[_id] = app;\n            //Trigger event\n             emit AppApproved(app.appId,app.airportCode,doc.id,\"approved\",timestamp,msg.sender);\n       // }\n}\n\nfunction rejectApp(uint _id, string memory timestamp) public {\n   //Require valid ID\n    require(_id > 0 && _id <= appCount);\n    //fetch the application and document \n    Application memory app = apps[_id];\n    Document memory doc = docs[app.id];\n        // If the state of the application is assigned only then the further state change will take place\n        //if(compareStrings(app.state,\"assigned\")){\n            //Change the state of the application\n             app.state=\"rejected\";\n            //Update the application\n             apps[_id] = app;\n            //Trigger event\n             emit AppRejected(app.appId,app.airportCode,doc.id,\"rejected\",timestamp,msg.sender);\n       // }\n}\n\nfunction renewApp(uint _id, string memory timestamp) public {\n   //Require valid ID\n    require(_id > 0 && _id <= appCount);\n    //fetch the application and document \n    Application memory app = apps[_id];\n    Document memory doc = docs[app.id];\n        // validation of state is not used here because this function is used twice. \n            //Change the state of the application\n             app.state=\"renewed\";\n            //Update the application\n             apps[_id] = app;\n            //Trigger event\n             emit AppRecreated(app.appId,app.airportCode,doc.id,\"renewed\",timestamp,msg.sender);\n        }\n\nfunction recreateApp(uint _id, string memory timestamp) public {\n   //Require valid ID\n    require(_id > 0 && _id <= appCount);\n    //fetch the application and document \n    Application memory app = apps[_id];\n    Document memory doc = docs[app.id];\n        // validation of state is not used here because this function is used twice. \n            //Change the state of the application\n             app.state=\"recreated\";\n            //Update the application\n             apps[_id] = app;\n            //Trigger event\n             emit AppRecreated(app.appId,app.airportCode,doc.id,\"recreated\",timestamp,msg.sender);\n        }\n\nfunction reviewApp(uint _id, string memory timestamp) public {\n   //Require valid ID\n    require(_id > 0 && _id <= appCount);\n    //fetch the application and document \n    Application memory app = apps[_id];\n    Document memory doc = docs[app.id];\n        // validation of state is not used here because this function is used twice. \n            //Change the state of the application\n             app.state=\"review\";\n            //Update the application\n             apps[_id] = app;\n            //Trigger event\n             emit AppReview(app.appId,app.airportCode,doc.id,\"review\",timestamp,msg.sender);\n        }\n\n\nfunction grantApp(uint _id, string memory timestamp) public {\n    //Require valid ID\n    require(_id > 0 && _id <= appCount);\n    //fetch the application and document \n    Application memory app = apps[_id];\n    Document memory doc = docs[app.id];\n        // If the state of the application is assigned only then the further state change will take place\n       // if(compareStrings(app.state,\"approved\")){\n            //Change the state of the application\n             app.state=\"granted\";\n            //Update the application\n             apps[_id] = app;\n            //Trigger event\n             emit AppGranted(app.appId,app.airportCode,doc.id,\"granted\",timestamp,msg.sender);\n        //}\n}\n\n\n\n}\n",
  "sourcePath": "/home/akshada/Knowledge-Management-System/client/src/contracts/SocialNetwork.sol",
  "compiler": {
    "name": "solc",
    "version": "0.5.0+commit.1d4f565a.Emscripten.clang"
  },
  "schemaVersion": "3.0.1",
  "updatedAt": "2020-08-02T14:49:29.212Z",
  "devdoc": {
    "methods": {}
  },
  "userdoc": {
    "methods": {}
  }
}