{
  "contractName": "SocialNetwork",
  "abi": [
    {
      "constant": true,
      "inputs": [],
      "name": "name",
      "outputs": [
        {
          "name": "",
          "type": "string"
        }
      ],
      "payable": false,
      "stateMutability": "view",
      "type": "function",
      "signature": "0x06fdde03"
    },
    {
      "constant": true,
      "inputs": [
        {
          "name": "",
          "type": "uint256"
        }
      ],
      "name": "docs",
      "outputs": [
        {
          "name": "id",
          "type": "uint256"
        },
        {
          "name": "appId",
          "type": "uint256"
        },
        {
          "name": "aerodromeManual",
          "type": "string"
        },
        {
          "name": "licensingFee",
          "type": "string"
        },
        {
          "name": "CARcompliance",
          "type": "string"
        },
        {
          "name": "exceptionsDoc",
          "type": "string"
        }
      ],
      "payable": false,
      "stateMutability": "view",
      "type": "function",
      "signature": "0x23389c5a"
    },
    {
      "constant": true,
      "inputs": [],
      "name": "docCount",
      "outputs": [
        {
          "name": "",
          "type": "uint256"
        }
      ],
      "payable": false,
      "stateMutability": "view",
      "type": "function",
      "signature": "0x4c4dc6e0"
    },
    {
      "constant": true,
      "inputs": [
        {
          "name": "",
          "type": "uint256"
        }
      ],
      "name": "apps",
      "outputs": [
        {
          "name": "appId",
          "type": "uint256"
        },
        {
          "name": "airportCode",
          "type": "string"
        },
        {
          "name": "id",
          "type": "uint256"
        },
        {
          "name": "state",
          "type": "string"
        },
        {
          "name": "timestamp",
          "type": "string"
        },
        {
          "name": "author",
          "type": "address"
        }
      ],
      "payable": false,
      "stateMutability": "view",
      "type": "function",
      "signature": "0x61acc37e"
    },
    {
      "constant": true,
      "inputs": [],
      "name": "appCount",
      "outputs": [
        {
          "name": "",
          "type": "uint256"
        }
      ],
      "payable": false,
      "stateMutability": "view",
      "type": "function",
      "signature": "0xb55ca2c3"
    },
    {
      "inputs": [],
      "payable": false,
      "stateMutability": "nonpayable",
      "type": "constructor",
      "signature": "constructor"
    },
    {
      "anonymous": false,
      "inputs": [
        {
          "indexed": false,
          "name": "appId",
          "type": "uint256"
        },
        {
          "indexed": false,
          "name": "airportCode",
          "type": "string"
        },
        {
          "indexed": false,
          "name": "id",
          "type": "uint256"
        },
        {
          "indexed": false,
          "name": "state",
          "type": "string"
        },
        {
          "indexed": false,
          "name": "timestamp",
          "type": "string"
        },
        {
          "indexed": false,
          "name": "author",
          "type": "address"
        }
      ],
      "name": "AppCreated",
      "type": "event",
      "signature": "0x0ef03d65558316611b793a11377006b8fa251da66e5528a724d893e2ed81c066"
    },
    {
      "anonymous": false,
      "inputs": [
        {
          "indexed": false,
          "name": "id",
          "type": "uint256"
        },
        {
          "indexed": false,
          "name": "appId",
          "type": "uint256"
        },
        {
          "indexed": false,
          "name": "aerodromeManual",
          "type": "string"
        },
        {
          "indexed": false,
          "name": "licensingFee",
          "type": "string"
        },
        {
          "indexed": false,
          "name": "CARcompliance",
          "type": "string"
        },
        {
          "indexed": false,
          "name": "exceptionsDoc",
          "type": "string"
        }
      ],
      "name": "DocCreated",
      "type": "event",
      "signature": "0x1b671bbb64565da7b45ceaf6219bba3fd668049056ae524576932af0d7834f04"
    },
    {
      "anonymous": false,
      "inputs": [
        {
          "indexed": false,
          "name": "id",
          "type": "uint256"
        },
        {
          "indexed": false,
          "name": "appId",
          "type": "uint256"
        },
        {
          "indexed": false,
          "name": "aerodromeManual",
          "type": "string"
        },
        {
          "indexed": false,
          "name": "licensingFee",
          "type": "string"
        },
        {
          "indexed": false,
          "name": "CARcompliance",
          "type": "string"
        },
        {
          "indexed": false,
          "name": "exceptionsDoc",
          "type": "string"
        }
      ],
      "name": "DocIdUpdated",
      "type": "event",
      "signature": "0x9d50b47023a2f7f31702ba419b0bd9b107b9a68a714037da3b56e168e84a5134"
    },
    {
      "anonymous": false,
      "inputs": [
        {
          "indexed": false,
          "name": "appId",
          "type": "uint256"
        },
        {
          "indexed": false,
          "name": "airportCode",
          "type": "string"
        },
        {
          "indexed": false,
          "name": "id",
          "type": "uint256"
        },
        {
          "indexed": false,
          "name": "state",
          "type": "string"
        },
        {
          "indexed": false,
          "name": "timestamp",
          "type": "string"
        },
        {
          "indexed": false,
          "name": "author",
          "type": "address"
        }
      ],
      "name": "AppIssued",
      "type": "event",
      "signature": "0x45baadd18d4e1f978b94605de81343ac320dc23543ccb3ef3add079d355b9f79"
    },
    {
      "anonymous": false,
      "inputs": [
        {
          "indexed": false,
          "name": "appId",
          "type": "uint256"
        },
        {
          "indexed": false,
          "name": "airportCode",
          "type": "string"
        },
        {
          "indexed": false,
          "name": "id",
          "type": "uint256"
        },
        {
          "indexed": false,
          "name": "state",
          "type": "string"
        },
        {
          "indexed": false,
          "name": "timestamp",
          "type": "string"
        },
        {
          "indexed": false,
          "name": "author",
          "type": "address"
        }
      ],
      "name": "AppAssigned",
      "type": "event",
      "signature": "0xbd80e31258ae44f7055fcf6e9b625493f6aec6ce712291a1f83054c33251f05b"
    },
    {
      "anonymous": false,
      "inputs": [
        {
          "indexed": false,
          "name": "appId",
          "type": "uint256"
        },
        {
          "indexed": false,
          "name": "airportCode",
          "type": "string"
        },
        {
          "indexed": false,
          "name": "id",
          "type": "uint256"
        },
        {
          "indexed": false,
          "name": "state",
          "type": "string"
        },
        {
          "indexed": false,
          "name": "timestamp",
          "type": "string"
        },
        {
          "indexed": false,
          "name": "author",
          "type": "address"
        }
      ],
      "name": "AppApproved",
      "type": "event",
      "signature": "0x277977b4f187cd818f93685ee6be069743e776844ff677bc918a96851c75048f"
    },
    {
      "anonymous": false,
      "inputs": [
        {
          "indexed": false,
          "name": "appId",
          "type": "uint256"
        },
        {
          "indexed": false,
          "name": "airportCode",
          "type": "string"
        },
        {
          "indexed": false,
          "name": "id",
          "type": "uint256"
        },
        {
          "indexed": false,
          "name": "state",
          "type": "string"
        },
        {
          "indexed": false,
          "name": "timestamp",
          "type": "string"
        },
        {
          "indexed": false,
          "name": "author",
          "type": "address"
        }
      ],
      "name": "AppRejected",
      "type": "event",
      "signature": "0xf83d4a75ac129aca072a95ad913a5800f6410f3dcc9adda5975c9d883ea72cc2"
    },
    {
      "anonymous": false,
      "inputs": [
        {
          "indexed": false,
          "name": "appId",
          "type": "uint256"
        },
        {
          "indexed": false,
          "name": "airportCode",
          "type": "string"
        },
        {
          "indexed": false,
          "name": "id",
          "type": "uint256"
        },
        {
          "indexed": false,
          "name": "state",
          "type": "string"
        },
        {
          "indexed": false,
          "name": "timestamp",
          "type": "string"
        },
        {
          "indexed": false,
          "name": "author",
          "type": "address"
        }
      ],
      "name": "AppGranted",
      "type": "event",
      "signature": "0x58dbeb9cbc4d40b9f39628c5a3333a2f1a966aae432fa6639c96c197162d3fed"
    },
    {
      "anonymous": false,
      "inputs": [
        {
          "indexed": false,
          "name": "appId",
          "type": "uint256"
        },
        {
          "indexed": false,
          "name": "airportCode",
          "type": "string"
        },
        {
          "indexed": false,
          "name": "id",
          "type": "uint256"
        },
        {
          "indexed": false,
          "name": "state",
          "type": "string"
        },
        {
          "indexed": false,
          "name": "timestamp",
          "type": "string"
        },
        {
          "indexed": false,
          "name": "author",
          "type": "address"
        }
      ],
      "name": "AppRecreated",
      "type": "event",
      "signature": "0xa291e05d8119d509b45c23cecd2dc81ae8fc2558ab4cbb5de21864b2392827b2"
    },
    {
      "anonymous": false,
      "inputs": [
        {
          "indexed": false,
          "name": "appId",
          "type": "uint256"
        },
        {
          "indexed": false,
          "name": "airportCode",
          "type": "string"
        },
        {
          "indexed": false,
          "name": "id",
          "type": "uint256"
        },
        {
          "indexed": false,
          "name": "state",
          "type": "string"
        },
        {
          "indexed": false,
          "name": "timestamp",
          "type": "string"
        },
        {
          "indexed": false,
          "name": "author",
          "type": "address"
        }
      ],
      "name": "AppReview",
      "type": "event",
      "signature": "0xe713984c7d04c2954a025bd88b686426f4bbf7d7647da2fe12e206b1bbbc383e"
    },
    {
      "constant": true,
      "inputs": [
        {
          "name": "a",
          "type": "string"
        },
        {
          "name": "b",
          "type": "string"
        }
      ],
      "name": "compareStrings",
      "outputs": [
        {
          "name": "",
          "type": "bool"
        }
      ],
      "payable": false,
      "stateMutability": "pure",
      "type": "function",
      "signature": "0xbed34bba"
    },
    {
      "constant": false,
      "inputs": [
        {
          "name": "airportCode",
          "type": "string"
        },
        {
          "name": "doc1",
          "type": "string"
        },
        {
          "name": "doc2",
          "type": "string"
        },
        {
          "name": "doc3",
          "type": "string"
        },
        {
          "name": "doc4",
          "type": "string"
        },
        {
          "name": "timestamp",
          "type": "string"
        }
      ],
      "name": "createApp",
      "outputs": [],
      "payable": false,
      "stateMutability": "nonpayable",
      "type": "function",
      "signature": "0xaef5108f"
    },
    {
      "constant": false,
      "inputs": [
        {
          "name": "_id",
          "type": "uint256"
        },
        {
          "name": "timestamp",
          "type": "string"
        }
      ],
      "name": "issueApp",
      "outputs": [],
      "payable": false,
      "stateMutability": "nonpayable",
      "type": "function",
      "signature": "0x365f8b36"
    },
    {
      "constant": false,
      "inputs": [
        {
          "name": "_id",
          "type": "uint256"
        },
        {
          "name": "timestamp",
          "type": "string"
        }
      ],
      "name": "assignApp",
      "outputs": [],
      "payable": false,
      "stateMutability": "nonpayable",
      "type": "function",
      "signature": "0x138cfd47"
    },
    {
      "constant": false,
      "inputs": [
        {
          "name": "_id",
          "type": "uint256"
        },
        {
          "name": "timestamp",
          "type": "string"
        }
      ],
      "name": "approveApp",
      "outputs": [],
      "payable": false,
      "stateMutability": "nonpayable",
      "type": "function",
      "signature": "0x3ffddc9a"
    },
    {
      "constant": false,
      "inputs": [
        {
          "name": "_id",
          "type": "uint256"
        },
        {
          "name": "timestamp",
          "type": "string"
        }
      ],
      "name": "rejectApp",
      "outputs": [],
      "payable": false,
      "stateMutability": "nonpayable",
      "type": "function",
      "signature": "0x5d4c6d22"
    },
    {
      "constant": false,
      "inputs": [
        {
          "name": "_id",
          "type": "uint256"
        },
        {
          "name": "airportCode",
          "type": "string"
        },
        {
          "name": "doc1",
          "type": "string"
        },
        {
          "name": "doc2",
          "type": "string"
        },
        {
          "name": "doc3",
          "type": "string"
        },
        {
          "name": "doc4",
          "type": "string"
        },
        {
          "name": "timestamp",
          "type": "string"
        }
      ],
      "name": "recreateApp",
      "outputs": [],
      "payable": false,
      "stateMutability": "nonpayable",
      "type": "function",
      "signature": "0xeceac097"
    },
    {
      "constant": false,
      "inputs": [
        {
          "name": "_id",
          "type": "uint256"
        },
        {
          "name": "timestamp",
          "type": "string"
        }
      ],
      "name": "reviewApp",
      "outputs": [],
      "payable": false,
      "stateMutability": "nonpayable",
      "type": "function",
      "signature": "0x9760e144"
    },
    {
      "constant": false,
      "inputs": [
        {
          "name": "_id",
          "type": "uint256"
        },
        {
          "name": "timestamp",
          "type": "string"
        }
      ],
      "name": "grantApp",
      "outputs": [],
      "payable": false,
      "stateMutability": "nonpayable",
      "type": "function",
      "signature": "0x989b1594"
    }
  ],
  "bytecode": "0x6080604052600060015560006002553480156200001b57600080fd5b506040805190810160405280601081526020017f416972706f727420446174616261736500000000000000000000000000000000815250600090805190602001906200006992919062000070565b506200011f565b828054600181600116156101000203166002900490600052602060002090601f016020900481019282601f10620000b357805160ff1916838001178555620000e4565b82800160010185558215620000e4579182015b82811115620000e3578251825591602001919060010190620000c6565b5b509050620000f39190620000f7565b5090565b6200011c91905b8082111562000118576000816000905550600101620000fe565b5090565b90565b61595d806200012f6000396000f3fe6080604052600436106100d0576000357c0100000000000000000000000000000000000000000000000000000000900463ffffffff16806306fdde03146100d5578063138cfd471461016557806323389c5a14610237578063365f8b361461043d5780633ffddc9a1461050f5780634c4dc6e0146105e15780635d4c6d221461060c57806361acc37e146106de5780639760e144146108ab578063989b15941461097d578063aef5108f14610a4f578063b55ca2c314610e0a578063bed34bba14610e35578063eceac09714610fac575b600080fd5b3480156100e157600080fd5b506100ea611371565b6040518080602001828103825283818151815260200191508051906020019080838360005b8381101561012a57808201518184015260208101905061010f565b50505050905090810190601f1680156101575780820380516001836020036101000a031916815260200191505b509250505060405180910390f35b34801561017157600080fd5b506102356004803603604081101561018857600080fd5b8101908080359060200190929190803590602001906401000000008111156101af57600080fd5b8201836020820111156101c157600080fd5b803590602001918460018302840111640100000000831117156101e357600080fd5b91908080601f016020809104026020016040519081016040528093929190818152602001838380828437600081840152601f19601f82011690508083019250505050505050919291929050505061140f565b005b34801561024357600080fd5b506102706004803603602081101561025a57600080fd5b8101908080359060200190929190505050611c0d565b6040518087815260200186815260200180602001806020018060200180602001858103855289818151815260200191508051906020019080838360005b838110156102c85780820151818401526020810190506102ad565b50505050905090810190601f1680156102f55780820380516001836020036101000a031916815260200191505b50858103845288818151815260200191508051906020019080838360005b8381101561032e578082015181840152602081019050610313565b50505050905090810190601f16801561035b5780820380516001836020036101000a031916815260200191505b50858103835287818151815260200191508051906020019080838360005b83811015610394578082015181840152602081019050610379565b50505050905090810190601f1680156103c15780820380516001836020036101000a031916815260200191505b50858103825286818151815260200191508051906020019080838360005b838110156103fa5780820151818401526020810190506103df565b50505050905090810190601f1680156104275780820380516001836020036101000a031916815260200191505b509a505050505050505050505060405180910390f35b34801561044957600080fd5b5061050d6004803603604081101561046057600080fd5b81019080803590602001909291908035906020019064010000000081111561048757600080fd5b82018360208201111561049957600080fd5b803590602001918460018302840111640100000000831117156104bb57600080fd5b91908080601f016020809104026020016040519081016040528093929190818152602001838380828437600081840152601f19601f820116905080830192505050505050509192919290505050611ea9565b005b34801561051b57600080fd5b506105df6004803603604081101561053257600080fd5b81019080803590602001909291908035906020019064010000000081111561055957600080fd5b82018360208201111561056b57600080fd5b8035906020019184600183028401116401000000008311171561058d57600080fd5b91908080601f016020809104026020016040519081016040528093929190818152602001838380828437600081840152601f19601f8201169050808301925050505050505091929192905050506126a7565b005b3480156105ed57600080fd5b506105f6612ea5565b6040518082815260200191505060405180910390f35b34801561061857600080fd5b506106dc6004803603604081101561062f57600080fd5b81019080803590602001909291908035906020019064010000000081111561065657600080fd5b82018360208201111561066857600080fd5b8035906020019184600183028401116401000000008311171561068a57600080fd5b91908080601f016020809104026020016040519081016040528093929190818152602001838380828437600081840152601f19601f820116905080830192505050505050509192919290505050612eab565b005b3480156106ea57600080fd5b506107176004803603602081101561070157600080fd5b81019080803590602001909291905050506136a9565b604051808781526020018060200186815260200180602001806020018573ffffffffffffffffffffffffffffffffffffffff1673ffffffffffffffffffffffffffffffffffffffff168152602001848103845289818151815260200191508051906020019080838360005b8381101561079d578082015181840152602081019050610782565b50505050905090810190601f1680156107ca5780820380516001836020036101000a031916815260200191505b50848103835287818151815260200191508051906020019080838360005b838110156108035780820151818401526020810190506107e8565b50505050905090810190601f1680156108305780820380516001836020036101000a031916815260200191505b50848103825286818151815260200191508051906020019080838360005b8381101561086957808201518184015260208101905061084e565b50505050905090810190601f1680156108965780820380516001836020036101000a031916815260200191505b50995050505050505050505060405180910390f35b3480156108b757600080fd5b5061097b600480360360408110156108ce57600080fd5b8101908080359060200190929190803590602001906401000000008111156108f557600080fd5b82018360208201111561090757600080fd5b8035906020019184600183028401116401000000008311171561092957600080fd5b91908080601f016020809104026020016040519081016040528093929190818152602001838380828437600081840152601f19601f8201169050808301925050505050505091929192905050506138cd565b005b34801561098957600080fd5b50610a4d600480360360408110156109a057600080fd5b8101908080359060200190929190803590602001906401000000008111156109c757600080fd5b8201836020820111156109d957600080fd5b803590602001918460018302840111640100000000831117156109fb57600080fd5b91908080601f016020809104026020016040519081016040528093929190818152602001838380828437600081840152601f19601f8201169050808301925050505050505091929192905050506140cb565b005b348015610a5b57600080fd5b50610e08600480360360c0811015610a7257600080fd5b8101908080359060200190640100000000811115610a8f57600080fd5b820183602082011115610aa157600080fd5b80359060200191846001830284011164010000000083111715610ac357600080fd5b91908080601f016020809104026020016040519081016040528093929190818152602001838380828437600081840152601f19601f82011690508083019250505050505050919291929080359060200190640100000000811115610b2657600080fd5b820183602082011115610b3857600080fd5b80359060200191846001830284011164010000000083111715610b5a57600080fd5b91908080601f016020809104026020016040519081016040528093929190818152602001838380828437600081840152601f19601f82011690508083019250505050505050919291929080359060200190640100000000811115610bbd57600080fd5b820183602082011115610bcf57600080fd5b80359060200191846001830284011164010000000083111715610bf157600080fd5b91908080601f016020809104026020016040519081016040528093929190818152602001838380828437600081840152601f19601f82011690508083019250505050505050919291929080359060200190640100000000811115610c5457600080fd5b820183602082011115610c6657600080fd5b80359060200191846001830284011164010000000083111715610c8857600080fd5b91908080601f016020809104026020016040519081016040528093929190818152602001838380828437600081840152601f19601f82011690508083019250505050505050919291929080359060200190640100000000811115610ceb57600080fd5b820183602082011115610cfd57600080fd5b80359060200191846001830284011164010000000083111715610d1f57600080fd5b91908080601f016020809104026020016040519081016040528093929190818152602001838380828437600081840152601f19601f82011690508083019250505050505050919291929080359060200190640100000000811115610d8257600080fd5b820183602082011115610d9457600080fd5b80359060200191846001830284011164010000000083111715610db657600080fd5b91908080601f016020809104026020016040519081016040528093929190818152602001838380828437600081840152601f19601f8201169050808301925050505050505091929192905050506148c9565b005b348015610e1657600080fd5b50610e1f614edf565b6040518082815260200191505060405180910390f35b348015610e4157600080fd5b50610f9260048036036040811015610e5857600080fd5b8101908080359060200190640100000000811115610e7557600080fd5b820183602082011115610e8757600080fd5b80359060200191846001830284011164010000000083111715610ea957600080fd5b91908080601f016020809104026020016040519081016040528093929190818152602001838380828437600081840152601f19601f82011690508083019250505050505050919291929080359060200190640100000000811115610f0c57600080fd5b820183602082011115610f1e57600080fd5b80359060200191846001830284011164010000000083111715610f4057600080fd5b91908080601f016020809104026020016040519081016040528093929190818152602001838380828437600081840152601f19601f820116905080830192505050505050509192919290505050614ee5565b604051808215151515815260200191505060405180910390f35b348015610fb857600080fd5b5061136f600480360360e0811015610fcf57600080fd5b810190808035906020019092919080359060200190640100000000811115610ff657600080fd5b82018360208201111561100857600080fd5b8035906020019184600183028401116401000000008311171561102a57600080fd5b91908080601f016020809104026020016040519081016040528093929190818152602001838380828437600081840152601f19601f8201169050808301925050505050505091929192908035906020019064010000000081111561108d57600080fd5b82018360208201111561109f57600080fd5b803590602001918460018302840111640100000000831117156110c157600080fd5b91908080601f016020809104026020016040519081016040528093929190818152602001838380828437600081840152601f19601f8201169050808301925050505050505091929192908035906020019064010000000081111561112457600080fd5b82018360208201111561113657600080fd5b8035906020019184600183028401116401000000008311171561115857600080fd5b91908080601f016020809104026020016040519081016040528093929190818152602001838380828437600081840152601f19601f820116905080830192505050505050509192919290803590602001906401000000008111156111bb57600080fd5b8201836020820111156111cd57600080fd5b803590602001918460018302840111640100000000831117156111ef57600080fd5b91908080601f016020809104026020016040519081016040528093929190818152602001838380828437600081840152601f19601f8201169050808301925050505050505091929192908035906020019064010000000081111561125257600080fd5b82018360208201111561126457600080fd5b8035906020019184600183028401116401000000008311171561128657600080fd5b91908080601f016020809104026020016040519081016040528093929190818152602001838380828437600081840152601f19601f820116905080830192505050505050509192919290803590602001906401000000008111156112e957600080fd5b8201836020820111156112fb57600080fd5b8035906020019184600183028401116401000000008311171561131d57600080fd5b91908080601f016020809104026020016040519081016040528093929190818152602001838380828437600081840152601f19601f820116905080830192505050505050509192919290505050614fd8565b005b60008054600181600116156101000203166002900480601f0160208091040260200160405190810160405280929190818152602001828054600181600116156101000203166002900480156114075780601f106113dc57610100808354040283529160200191611407565b820191906000526020600020905b8154815290600101906020018083116113ea57829003601f168201915b505050505081565b60008211801561142157506001548211155b151561142c57600080fd5b611434615808565b6003600084815260200190815260200160002060c0604051908101604052908160008201548152602001600182018054600181600116156101000203166002900480601f0160208091040260200160405190810160405280929190818152602001828054600181600116156101000203166002900480156114f65780601f106114cb576101008083540402835291602001916114f6565b820191906000526020600020905b8154815290600101906020018083116114d957829003601f168201915b5050505050815260200160028201548152602001600382018054600181600116156101000203166002900480601f0160208091040260200160405190810160405280929190818152602001828054600181600116156101000203166002900480156115a25780601f10611577576101008083540402835291602001916115a2565b820191906000526020600020905b81548152906001019060200180831161158557829003601f168201915b50505050508152602001600482018054600181600116156101000203166002900480601f0160208091040260200160405190810160405280929190818152602001828054600181600116156101000203166002900480156116445780601f1061161957610100808354040283529160200191611644565b820191906000526020600020905b81548152906001019060200180831161162757829003601f168201915b505050505081526020016005820160009054906101000a900473ffffffffffffffffffffffffffffffffffffffff1673ffffffffffffffffffffffffffffffffffffffff1673ffffffffffffffffffffffffffffffffffffffff168152505090506116ad615855565b600460008360400151815260200190815260200160002060c060405190810160405290816000820154815260200160018201548152602001600282018054600181600116156101000203166002900480601f01602080910402602001604051908101604052809291908181526020018280546001816001161561010002031660029004801561177d5780601f106117525761010080835404028352916020019161177d565b820191906000526020600020905b81548152906001019060200180831161176057829003601f168201915b50505050508152602001600382018054600181600116156101000203166002900480601f01602080910402602001604051908101604052809291908181526020018280546001816001161561010002031660029004801561181f5780601f106117f45761010080835404028352916020019161181f565b820191906000526020600020905b81548152906001019060200180831161180257829003601f168201915b50505050508152602001600482018054600181600116156101000203166002900480601f0160208091040260200160405190810160405280929190818152602001828054600181600116156101000203166002900480156118c15780601f10611896576101008083540402835291602001916118c1565b820191906000526020600020905b8154815290600101906020018083116118a457829003601f168201915b50505050508152602001600582018054600181600116156101000203166002900480601f0160208091040260200160405190810160405280929190818152602001828054600181600116156101000203166002900480156119635780601f1061193857610100808354040283529160200191611963565b820191906000526020600020905b81548152906001019060200180831161194657829003601f168201915b50505050508152505090506040805190810160405280600881526020017f61737369676e6564000000000000000000000000000000000000000000000000815250826060018190525081600360008681526020019081526020016000206000820151816000015560208201518160010190805190602001906119e692919061588c565b50604082015181600201556060820151816003019080519060200190611a0d92919061588c565b506080820151816004019080519060200190611a2a92919061588c565b5060a08201518160050160006101000a81548173ffffffffffffffffffffffffffffffffffffffff021916908373ffffffffffffffffffffffffffffffffffffffff1602179055509050507fbd80e31258ae44f7055fcf6e9b625493f6aec6ce712291a1f83054c33251f05b8260000151836020015183600001518633604051808681526020018060200185815260200180602001806020018573ffffffffffffffffffffffffffffffffffffffff1673ffffffffffffffffffffffffffffffffffffffff168152602001848103845288818151815260200191508051906020019080838360005b83811015611b2d578082015181840152602081019050611b12565b50505050905090810190601f168015611b5a5780820380516001836020036101000a031916815260200191505b50848103835260088152602001807f61737369676e6564000000000000000000000000000000000000000000000000815250602001848103825286818151815260200191508051906020019080838360005b83811015611bc7578082015181840152602081019050611bac565b50505050905090810190601f168015611bf45780820380516001836020036101000a031916815260200191505b509850505050505050505060405180910390a150505050565b6004602052806000526040600020600091509050806000015490806001015490806002018054600181600116156101000203166002900480601f016020809104026020016040519081016040528092919081815260200182805460018160011615610100020316600290048015611cc55780601f10611c9a57610100808354040283529160200191611cc5565b820191906000526020600020905b815481529060010190602001808311611ca857829003601f168201915b505050505090806003018054600181600116156101000203166002900480601f016020809104026020016040519081016040528092919081815260200182805460018160011615610100020316600290048015611d635780601f10611d3857610100808354040283529160200191611d63565b820191906000526020600020905b815481529060010190602001808311611d4657829003601f168201915b505050505090806004018054600181600116156101000203166002900480601f016020809104026020016040519081016040528092919081815260200182805460018160011615610100020316600290048015611e015780601f10611dd657610100808354040283529160200191611e01565b820191906000526020600020905b815481529060010190602001808311611de457829003601f168201915b505050505090806005018054600181600116156101000203166002900480601f016020809104026020016040519081016040528092919081815260200182805460018160011615610100020316600290048015611e9f5780601f10611e7457610100808354040283529160200191611e9f565b820191906000526020600020905b815481529060010190602001808311611e8257829003601f168201915b5050505050905086565b600082118015611ebb57506001548211155b1515611ec657600080fd5b611ece615808565b6003600084815260200190815260200160002060c0604051908101604052908160008201548152602001600182018054600181600116156101000203166002900480601f016020809104026020016040519081016040528092919081815260200182805460018160011615610100020316600290048015611f905780601f10611f6557610100808354040283529160200191611f90565b820191906000526020600020905b815481529060010190602001808311611f7357829003601f168201915b5050505050815260200160028201548152602001600382018054600181600116156101000203166002900480601f01602080910402602001604051908101604052809291908181526020018280546001816001161561010002031660029004801561203c5780601f106120115761010080835404028352916020019161203c565b820191906000526020600020905b81548152906001019060200180831161201f57829003601f168201915b50505050508152602001600482018054600181600116156101000203166002900480601f0160208091040260200160405190810160405280929190818152602001828054600181600116156101000203166002900480156120de5780601f106120b3576101008083540402835291602001916120de565b820191906000526020600020905b8154815290600101906020018083116120c157829003601f168201915b505050505081526020016005820160009054906101000a900473ffffffffffffffffffffffffffffffffffffffff1673ffffffffffffffffffffffffffffffffffffffff1673ffffffffffffffffffffffffffffffffffffffff16815250509050612147615855565b600460008360400151815260200190815260200160002060c060405190810160405290816000820154815260200160018201548152602001600282018054600181600116156101000203166002900480601f0160208091040260200160405190810160405280929190818152602001828054600181600116156101000203166002900480156122175780601f106121ec57610100808354040283529160200191612217565b820191906000526020600020905b8154815290600101906020018083116121fa57829003601f168201915b50505050508152602001600382018054600181600116156101000203166002900480601f0160208091040260200160405190810160405280929190818152602001828054600181600116156101000203166002900480156122b95780601f1061228e576101008083540402835291602001916122b9565b820191906000526020600020905b81548152906001019060200180831161229c57829003601f168201915b50505050508152602001600482018054600181600116156101000203166002900480601f01602080910402602001604051908101604052809291908181526020018280546001816001161561010002031660029004801561235b5780601f106123305761010080835404028352916020019161235b565b820191906000526020600020905b81548152906001019060200180831161233e57829003601f168201915b50505050508152602001600582018054600181600116156101000203166002900480601f0160208091040260200160405190810160405280929190818152602001828054600181600116156101000203166002900480156123fd5780601f106123d2576101008083540402835291602001916123fd565b820191906000526020600020905b8154815290600101906020018083116123e057829003601f168201915b50505050508152505090506040805190810160405280600681526020017f69737375656400000000000000000000000000000000000000000000000000008152508260600181905250816003600086815260200190815260200160002060008201518160000155602082015181600101908051906020019061248092919061588c565b506040820151816002015560608201518160030190805190602001906124a792919061588c565b5060808201518160040190805190602001906124c492919061588c565b5060a08201518160050160006101000a81548173ffffffffffffffffffffffffffffffffffffffff021916908373ffffffffffffffffffffffffffffffffffffffff1602179055509050507f45baadd18d4e1f978b94605de81343ac320dc23543ccb3ef3add079d355b9f798260000151836020015183600001518633604051808681526020018060200185815260200180602001806020018573ffffffffffffffffffffffffffffffffffffffff1673ffffffffffffffffffffffffffffffffffffffff168152602001848103845288818151815260200191508051906020019080838360005b838110156125c75780820151818401526020810190506125ac565b50505050905090810190601f1680156125f45780820380516001836020036101000a031916815260200191505b50848103835260068152602001807f6973737565640000000000000000000000000000000000000000000000000000815250602001848103825286818151815260200191508051906020019080838360005b83811015612661578082015181840152602081019050612646565b50505050905090810190601f16801561268e5780820380516001836020036101000a031916815260200191505b509850505050505050505060405180910390a150505050565b6000821180156126b957506001548211155b15156126c457600080fd5b6126cc615808565b6003600084815260200190815260200160002060c0604051908101604052908160008201548152602001600182018054600181600116156101000203166002900480601f01602080910402602001604051908101604052809291908181526020018280546001816001161561010002031660029004801561278e5780601f106127635761010080835404028352916020019161278e565b820191906000526020600020905b81548152906001019060200180831161277157829003601f168201915b5050505050815260200160028201548152602001600382018054600181600116156101000203166002900480601f01602080910402602001604051908101604052809291908181526020018280546001816001161561010002031660029004801561283a5780601f1061280f5761010080835404028352916020019161283a565b820191906000526020600020905b81548152906001019060200180831161281d57829003601f168201915b50505050508152602001600482018054600181600116156101000203166002900480601f0160208091040260200160405190810160405280929190818152602001828054600181600116156101000203166002900480156128dc5780601f106128b1576101008083540402835291602001916128dc565b820191906000526020600020905b8154815290600101906020018083116128bf57829003601f168201915b505050505081526020016005820160009054906101000a900473ffffffffffffffffffffffffffffffffffffffff1673ffffffffffffffffffffffffffffffffffffffff1673ffffffffffffffffffffffffffffffffffffffff16815250509050612945615855565b600460008360400151815260200190815260200160002060c060405190810160405290816000820154815260200160018201548152602001600282018054600181600116156101000203166002900480601f016020809104026020016040519081016040528092919081815260200182805460018160011615610100020316600290048015612a155780601f106129ea57610100808354040283529160200191612a15565b820191906000526020600020905b8154815290600101906020018083116129f857829003601f168201915b50505050508152602001600382018054600181600116156101000203166002900480601f016020809104026020016040519081016040528092919081815260200182805460018160011615610100020316600290048015612ab75780601f10612a8c57610100808354040283529160200191612ab7565b820191906000526020600020905b815481529060010190602001808311612a9a57829003601f168201915b50505050508152602001600482018054600181600116156101000203166002900480601f016020809104026020016040519081016040528092919081815260200182805460018160011615610100020316600290048015612b595780601f10612b2e57610100808354040283529160200191612b59565b820191906000526020600020905b815481529060010190602001808311612b3c57829003601f168201915b50505050508152602001600582018054600181600116156101000203166002900480601f016020809104026020016040519081016040528092919081815260200182805460018160011615610100020316600290048015612bfb5780601f10612bd057610100808354040283529160200191612bfb565b820191906000526020600020905b815481529060010190602001808311612bde57829003601f168201915b50505050508152505090506040805190810160405280600881526020017f617070726f76656400000000000000000000000000000000000000000000000081525082606001819052508160036000868152602001908152602001600020600082015181600001556020820151816001019080519060200190612c7e92919061588c565b50604082015181600201556060820151816003019080519060200190612ca592919061588c565b506080820151816004019080519060200190612cc292919061588c565b5060a08201518160050160006101000a81548173ffffffffffffffffffffffffffffffffffffffff021916908373ffffffffffffffffffffffffffffffffffffffff1602179055509050507f277977b4f187cd818f93685ee6be069743e776844ff677bc918a96851c75048f8260000151836020015183600001518633604051808681526020018060200185815260200180602001806020018573ffffffffffffffffffffffffffffffffffffffff1673ffffffffffffffffffffffffffffffffffffffff168152602001848103845288818151815260200191508051906020019080838360005b83811015612dc5578082015181840152602081019050612daa565b50505050905090810190601f168015612df25780820380516001836020036101000a031916815260200191505b50848103835260088152602001807f617070726f766564000000000000000000000000000000000000000000000000815250602001848103825286818151815260200191508051906020019080838360005b83811015612e5f578082015181840152602081019050612e44565b50505050905090810190601f168015612e8c5780820380516001836020036101000a031916815260200191505b509850505050505050505060405180910390a150505050565b60025481565b600082118015612ebd57506001548211155b1515612ec857600080fd5b612ed0615808565b6003600084815260200190815260200160002060c0604051908101604052908160008201548152602001600182018054600181600116156101000203166002900480601f016020809104026020016040519081016040528092919081815260200182805460018160011615610100020316600290048015612f925780601f10612f6757610100808354040283529160200191612f92565b820191906000526020600020905b815481529060010190602001808311612f7557829003601f168201915b5050505050815260200160028201548152602001600382018054600181600116156101000203166002900480601f01602080910402602001604051908101604052809291908181526020018280546001816001161561010002031660029004801561303e5780601f106130135761010080835404028352916020019161303e565b820191906000526020600020905b81548152906001019060200180831161302157829003601f168201915b50505050508152602001600482018054600181600116156101000203166002900480601f0160208091040260200160405190810160405280929190818152602001828054600181600116156101000203166002900480156130e05780601f106130b5576101008083540402835291602001916130e0565b820191906000526020600020905b8154815290600101906020018083116130c357829003601f168201915b505050505081526020016005820160009054906101000a900473ffffffffffffffffffffffffffffffffffffffff1673ffffffffffffffffffffffffffffffffffffffff1673ffffffffffffffffffffffffffffffffffffffff16815250509050613149615855565b600460008360400151815260200190815260200160002060c060405190810160405290816000820154815260200160018201548152602001600282018054600181600116156101000203166002900480601f0160208091040260200160405190810160405280929190818152602001828054600181600116156101000203166002900480156132195780601f106131ee57610100808354040283529160200191613219565b820191906000526020600020905b8154815290600101906020018083116131fc57829003601f168201915b50505050508152602001600382018054600181600116156101000203166002900480601f0160208091040260200160405190810160405280929190818152602001828054600181600116156101000203166002900480156132bb5780601f10613290576101008083540402835291602001916132bb565b820191906000526020600020905b81548152906001019060200180831161329e57829003601f168201915b50505050508152602001600482018054600181600116156101000203166002900480601f01602080910402602001604051908101604052809291908181526020018280546001816001161561010002031660029004801561335d5780601f106133325761010080835404028352916020019161335d565b820191906000526020600020905b81548152906001019060200180831161334057829003601f168201915b50505050508152602001600582018054600181600116156101000203166002900480601f0160208091040260200160405190810160405280929190818152602001828054600181600116156101000203166002900480156133ff5780601f106133d4576101008083540402835291602001916133ff565b820191906000526020600020905b8154815290600101906020018083116133e257829003601f168201915b50505050508152505090506040805190810160405280600881526020017f72656a65637465640000000000000000000000000000000000000000000000008152508260600181905250816003600086815260200190815260200160002060008201518160000155602082015181600101908051906020019061348292919061588c565b506040820151816002015560608201518160030190805190602001906134a992919061588c565b5060808201518160040190805190602001906134c692919061588c565b5060a08201518160050160006101000a81548173ffffffffffffffffffffffffffffffffffffffff021916908373ffffffffffffffffffffffffffffffffffffffff1602179055509050507ff83d4a75ac129aca072a95ad913a5800f6410f3dcc9adda5975c9d883ea72cc28260000151836020015183600001518633604051808681526020018060200185815260200180602001806020018573ffffffffffffffffffffffffffffffffffffffff1673ffffffffffffffffffffffffffffffffffffffff168152602001848103845288818151815260200191508051906020019080838360005b838110156135c95780820151818401526020810190506135ae565b50505050905090810190601f1680156135f65780820380516001836020036101000a031916815260200191505b50848103835260088152602001807f72656a6563746564000000000000000000000000000000000000000000000000815250602001848103825286818151815260200191508051906020019080838360005b83811015613663578082015181840152602081019050613648565b50505050905090810190601f1680156136905780820380516001836020036101000a031916815260200191505b509850505050505050505060405180910390a150505050565b6003602052806000526040600020600091509050806000015490806001018054600181600116156101000203166002900480601f01602080910402602001604051908101604052809291908181526020018280546001816001161561010002031660029004801561375b5780601f106137305761010080835404028352916020019161375b565b820191906000526020600020905b81548152906001019060200180831161373e57829003601f168201915b505050505090806002015490806003018054600181600116156101000203166002900480601f0160208091040260200160405190810160405280929190818152602001828054600181600116156101000203166002900480156137ff5780601f106137d4576101008083540402835291602001916137ff565b820191906000526020600020905b8154815290600101906020018083116137e257829003601f168201915b505050505090806004018054600181600116156101000203166002900480601f01602080910402602001604051908101604052809291908181526020018280546001816001161561010002031660029004801561389d5780601f106138725761010080835404028352916020019161389d565b820191906000526020600020905b81548152906001019060200180831161388057829003601f168201915b5050505050908060050160009054906101000a900473ffffffffffffffffffffffffffffffffffffffff16905086565b6000821180156138df57506001548211155b15156138ea57600080fd5b6138f2615808565b6003600084815260200190815260200160002060c0604051908101604052908160008201548152602001600182018054600181600116156101000203166002900480601f0160208091040260200160405190810160405280929190818152602001828054600181600116156101000203166002900480156139b45780601f10613989576101008083540402835291602001916139b4565b820191906000526020600020905b81548152906001019060200180831161399757829003601f168201915b5050505050815260200160028201548152602001600382018054600181600116156101000203166002900480601f016020809104026020016040519081016040528092919081815260200182805460018160011615610100020316600290048015613a605780601f10613a3557610100808354040283529160200191613a60565b820191906000526020600020905b815481529060010190602001808311613a4357829003601f168201915b50505050508152602001600482018054600181600116156101000203166002900480601f016020809104026020016040519081016040528092919081815260200182805460018160011615610100020316600290048015613b025780601f10613ad757610100808354040283529160200191613b02565b820191906000526020600020905b815481529060010190602001808311613ae557829003601f168201915b505050505081526020016005820160009054906101000a900473ffffffffffffffffffffffffffffffffffffffff1673ffffffffffffffffffffffffffffffffffffffff1673ffffffffffffffffffffffffffffffffffffffff16815250509050613b6b615855565b600460008360400151815260200190815260200160002060c060405190810160405290816000820154815260200160018201548152602001600282018054600181600116156101000203166002900480601f016020809104026020016040519081016040528092919081815260200182805460018160011615610100020316600290048015613c3b5780601f10613c1057610100808354040283529160200191613c3b565b820191906000526020600020905b815481529060010190602001808311613c1e57829003601f168201915b50505050508152602001600382018054600181600116156101000203166002900480601f016020809104026020016040519081016040528092919081815260200182805460018160011615610100020316600290048015613cdd5780601f10613cb257610100808354040283529160200191613cdd565b820191906000526020600020905b815481529060010190602001808311613cc057829003601f168201915b50505050508152602001600482018054600181600116156101000203166002900480601f016020809104026020016040519081016040528092919081815260200182805460018160011615610100020316600290048015613d7f5780601f10613d5457610100808354040283529160200191613d7f565b820191906000526020600020905b815481529060010190602001808311613d6257829003601f168201915b50505050508152602001600582018054600181600116156101000203166002900480601f016020809104026020016040519081016040528092919081815260200182805460018160011615610100020316600290048015613e215780601f10613df657610100808354040283529160200191613e21565b820191906000526020600020905b815481529060010190602001808311613e0457829003601f168201915b50505050508152505090506040805190810160405280600881526020017f726576696577656400000000000000000000000000000000000000000000000081525082606001819052508160036000868152602001908152602001600020600082015181600001556020820151816001019080519060200190613ea492919061588c565b50604082015181600201556060820151816003019080519060200190613ecb92919061588c565b506080820151816004019080519060200190613ee892919061588c565b5060a08201518160050160006101000a81548173ffffffffffffffffffffffffffffffffffffffff021916908373ffffffffffffffffffffffffffffffffffffffff1602179055509050507fe713984c7d04c2954a025bd88b686426f4bbf7d7647da2fe12e206b1bbbc383e8260000151836020015183600001518633604051808681526020018060200185815260200180602001806020018573ffffffffffffffffffffffffffffffffffffffff1673ffffffffffffffffffffffffffffffffffffffff168152602001848103845288818151815260200191508051906020019080838360005b83811015613feb578082015181840152602081019050613fd0565b50505050905090810190601f1680156140185780820380516001836020036101000a031916815260200191505b50848103835260088152602001807f7265766965776564000000000000000000000000000000000000000000000000815250602001848103825286818151815260200191508051906020019080838360005b8381101561408557808201518184015260208101905061406a565b50505050905090810190601f1680156140b25780820380516001836020036101000a031916815260200191505b509850505050505050505060405180910390a150505050565b6000821180156140dd57506001548211155b15156140e857600080fd5b6140f0615808565b6003600084815260200190815260200160002060c0604051908101604052908160008201548152602001600182018054600181600116156101000203166002900480601f0160208091040260200160405190810160405280929190818152602001828054600181600116156101000203166002900480156141b25780601f10614187576101008083540402835291602001916141b2565b820191906000526020600020905b81548152906001019060200180831161419557829003601f168201915b5050505050815260200160028201548152602001600382018054600181600116156101000203166002900480601f01602080910402602001604051908101604052809291908181526020018280546001816001161561010002031660029004801561425e5780601f106142335761010080835404028352916020019161425e565b820191906000526020600020905b81548152906001019060200180831161424157829003601f168201915b50505050508152602001600482018054600181600116156101000203166002900480601f0160208091040260200160405190810160405280929190818152602001828054600181600116156101000203166002900480156143005780601f106142d557610100808354040283529160200191614300565b820191906000526020600020905b8154815290600101906020018083116142e357829003601f168201915b505050505081526020016005820160009054906101000a900473ffffffffffffffffffffffffffffffffffffffff1673ffffffffffffffffffffffffffffffffffffffff1673ffffffffffffffffffffffffffffffffffffffff16815250509050614369615855565b600460008360400151815260200190815260200160002060c060405190810160405290816000820154815260200160018201548152602001600282018054600181600116156101000203166002900480601f0160208091040260200160405190810160405280929190818152602001828054600181600116156101000203166002900480156144395780601f1061440e57610100808354040283529160200191614439565b820191906000526020600020905b81548152906001019060200180831161441c57829003601f168201915b50505050508152602001600382018054600181600116156101000203166002900480601f0160208091040260200160405190810160405280929190818152602001828054600181600116156101000203166002900480156144db5780601f106144b0576101008083540402835291602001916144db565b820191906000526020600020905b8154815290600101906020018083116144be57829003601f168201915b50505050508152602001600482018054600181600116156101000203166002900480601f01602080910402602001604051908101604052809291908181526020018280546001816001161561010002031660029004801561457d5780601f106145525761010080835404028352916020019161457d565b820191906000526020600020905b81548152906001019060200180831161456057829003601f168201915b50505050508152602001600582018054600181600116156101000203166002900480601f01602080910402602001604051908101604052809291908181526020018280546001816001161561010002031660029004801561461f5780601f106145f45761010080835404028352916020019161461f565b820191906000526020600020905b81548152906001019060200180831161460257829003601f168201915b50505050508152505090506040805190810160405280600781526020017f6772616e74656400000000000000000000000000000000000000000000000000815250826060018190525081600360008681526020019081526020016000206000820151816000015560208201518160010190805190602001906146a292919061588c565b506040820151816002015560608201518160030190805190602001906146c992919061588c565b5060808201518160040190805190602001906146e692919061588c565b5060a08201518160050160006101000a81548173ffffffffffffffffffffffffffffffffffffffff021916908373ffffffffffffffffffffffffffffffffffffffff1602179055509050507f58dbeb9cbc4d40b9f39628c5a3333a2f1a966aae432fa6639c96c197162d3fed8260000151836020015183600001518633604051808681526020018060200185815260200180602001806020018573ffffffffffffffffffffffffffffffffffffffff1673ffffffffffffffffffffffffffffffffffffffff168152602001848103845288818151815260200191508051906020019080838360005b838110156147e95780820151818401526020810190506147ce565b50505050905090810190601f1680156148165780820380516001836020036101000a031916815260200191505b50848103835260078152602001807f6772616e74656400000000000000000000000000000000000000000000000000815250602001848103825286818151815260200191508051906020019080838360005b83811015614883578082015181840152602081019050614868565b50505050905090810190601f1680156148b05780820380516001836020036101000a031916815260200191505b509850505050505050505060405180910390a150505050565b600086511115156148d957600080fd5b600085511115156148e957600080fd5b600084511115156148f957600080fd5b6000835111151561490957600080fd5b6000825111151561491957600080fd5b60016000815480929190600101919050555060026000815480929190600101919050555060c0604051908101604052806002548152602001600154815260200186815260200185815260200184815260200183815250600460006002548152602001908152602001600020600082015181600001556020820151816001015560408201518160020190805190602001906149b492919061588c565b5060608201518160030190805190602001906149d192919061588c565b5060808201518160040190805190602001906149ee92919061588c565b5060a0820151816005019080519060200190614a0b92919061588c565b509050507f1b671bbb64565da7b45ceaf6219bba3fd668049056ae524576932af0d7834f04600254600154878787876040518087815260200186815260200180602001806020018060200180602001858103855289818151815260200191508051906020019080838360005b83811015614a92578082015181840152602081019050614a77565b50505050905090810190601f168015614abf5780820380516001836020036101000a031916815260200191505b50858103845288818151815260200191508051906020019080838360005b83811015614af8578082015181840152602081019050614add565b50505050905090810190601f168015614b255780820380516001836020036101000a031916815260200191505b50858103835287818151815260200191508051906020019080838360005b83811015614b5e578082015181840152602081019050614b43565b50505050905090810190601f168015614b8b5780820380516001836020036101000a031916815260200191505b50858103825286818151815260200191508051906020019080838360005b83811015614bc4578082015181840152602081019050614ba9565b50505050905090810190601f168015614bf15780820380516001836020036101000a031916815260200191505b509a505050505050505050505060405180910390a160c060405190810160405280600154815260200187815260200160025481526020016040805190810160405280600781526020017f637265617465640000000000000000000000000000000000000000000000000081525081526020018281526020013373ffffffffffffffffffffffffffffffffffffffff16815250600360006001548152602001908152602001600020600082015181600001556020820151816001019080519060200190614cbe92919061588c565b50604082015181600201556060820151816003019080519060200190614ce592919061588c565b506080820151816004019080519060200190614d0292919061588c565b5060a08201518160050160006101000a81548173ffffffffffffffffffffffffffffffffffffffff021916908373ffffffffffffffffffffffffffffffffffffffff1602179055509050507f0ef03d65558316611b793a11377006b8fa251da66e5528a724d893e2ed81c066600154876002548433604051808681526020018060200185815260200180602001806020018573ffffffffffffffffffffffffffffffffffffffff1673ffffffffffffffffffffffffffffffffffffffff168152602001848103845288818151815260200191508051906020019080838360005b83811015614dfd578082015181840152602081019050614de2565b50505050905090810190601f168015614e2a5780820380516001836020036101000a031916815260200191505b50848103835260078152602001807f6372656174656400000000000000000000000000000000000000000000000000815250602001848103825286818151815260200191508051906020019080838360005b83811015614e97578082015181840152602081019050614e7c565b50505050905090810190601f168015614ec45780820380516001836020036101000a031916815260200191505b509850505050505050505060405180910390a1505050505050565b60015481565b6000816040516020018082805190602001908083835b602083101515614f205780518252602082019150602081019050602083039250614efb565b6001836020036101000a03801982511681845116808217855250505050505090500191505060405160208183030381529060405280519060200120836040516020018082805190602001908083835b602083101515614f945780518252602082019150602081019050602083039250614f6f565b6001836020036101000a0380198251168184511680821785525050505050509050019150506040516020818303038152906040528051906020012014905092915050565b600087118015614fea57506001548711155b1515614ff557600080fd5b614ffd615808565b6003600089815260200190815260200160002060c0604051908101604052908160008201548152602001600182018054600181600116156101000203166002900480601f0160208091040260200160405190810160405280929190818152602001828054600181600116156101000203166002900480156150bf5780601f10615094576101008083540402835291602001916150bf565b820191906000526020600020905b8154815290600101906020018083116150a257829003601f168201915b5050505050815260200160028201548152602001600382018054600181600116156101000203166002900480601f01602080910402602001604051908101604052809291908181526020018280546001816001161561010002031660029004801561516b5780601f106151405761010080835404028352916020019161516b565b820191906000526020600020905b81548152906001019060200180831161514e57829003601f168201915b50505050508152602001600482018054600181600116156101000203166002900480601f01602080910402602001604051908101604052809291908181526020018280546001816001161561010002031660029004801561520d5780601f106151e25761010080835404028352916020019161520d565b820191906000526020600020905b8154815290600101906020018083116151f057829003601f168201915b505050505081526020016005820160009054906101000a900473ffffffffffffffffffffffffffffffffffffffff1673ffffffffffffffffffffffffffffffffffffffff1673ffffffffffffffffffffffffffffffffffffffff16815250509050615276615855565b600460008360400151815260200190815260200160002060c060405190810160405290816000820154815260200160018201548152602001600282018054600181600116156101000203166002900480601f0160208091040260200160405190810160405280929190818152602001828054600181600116156101000203166002900480156153465780601f1061531b57610100808354040283529160200191615346565b820191906000526020600020905b81548152906001019060200180831161532957829003601f168201915b50505050508152602001600382018054600181600116156101000203166002900480601f0160208091040260200160405190810160405280929190818152602001828054600181600116156101000203166002900480156153e85780601f106153bd576101008083540402835291602001916153e8565b820191906000526020600020905b8154815290600101906020018083116153cb57829003601f168201915b50505050508152602001600482018054600181600116156101000203166002900480601f01602080910402602001604051908101604052809291908181526020018280546001816001161561010002031660029004801561548a5780601f1061545f5761010080835404028352916020019161548a565b820191906000526020600020905b81548152906001019060200180831161546d57829003601f168201915b50505050508152602001600582018054600181600116156101000203166002900480601f01602080910402602001604051908101604052809291908181526020018280546001816001161561010002031660029004801561552c5780601f106155015761010080835404028352916020019161552c565b820191906000526020600020905b81548152906001019060200180831161550f57829003601f168201915b5050505050815250509050878260200181905250868160400181905250858160600181905250848160800181905250838160a001819052506040805190810160405280600981526020017f7265637265617465640000000000000000000000000000000000000000000000815250826060018190525081600360008b81526020019081526020016000206000820151816000015560208201518160010190805190602001906155dc92919061588c565b5060408201518160020155606082015181600301908051906020019061560392919061588c565b50608082015181600401908051906020019061562092919061588c565b5060a08201518160050160006101000a81548173ffffffffffffffffffffffffffffffffffffffff021916908373ffffffffffffffffffffffffffffffffffffffff1602179055509050507fa291e05d8119d509b45c23cecd2dc81ae8fc2558ab4cbb5de21864b2392827b28260000151836020015183600001518633604051808681526020018060200185815260200180602001806020018573ffffffffffffffffffffffffffffffffffffffff1673ffffffffffffffffffffffffffffffffffffffff168152602001848103845288818151815260200191508051906020019080838360005b83811015615723578082015181840152602081019050615708565b50505050905090810190601f1680156157505780820380516001836020036101000a031916815260200191505b50848103835260098152602001807f7265637265617465640000000000000000000000000000000000000000000000815250602001848103825286818151815260200191508051906020019080838360005b838110156157bd5780820151818401526020810190506157a2565b50505050905090810190601f1680156157ea5780820380516001836020036101000a031916815260200191505b509850505050505050505060405180910390a1505050505050505050565b60c0604051908101604052806000815260200160608152602001600081526020016060815260200160608152602001600073ffffffffffffffffffffffffffffffffffffffff1681525090565b60c0604051908101604052806000815260200160008152602001606081526020016060815260200160608152602001606081525090565b828054600181600116156101000203166002900490600052602060002090601f016020900481019282601f106158cd57805160ff19168380011785556158fb565b828001600101855582156158fb579182015b828111156158fa5782518255916020019190600101906158df565b5b509050615908919061590c565b5090565b61592e91905b8082111561592a576000816000905550600101615912565b5090565b9056fea165627a7a72305820f3724ca997b8fd24fd71c5df4c95c2ded236dc0f54263b118aa639910405d2ec0029",
  "source": "pragma solidity >=0.4.16 <0.7.0;\n//pragma experimental ABIEncoderV2;\n\ncontract SocialNetwork {\n    // State variable\n    string public name;\n    uint public appCount = 0;\n    uint public docCount =0;\n\n    mapping(uint => Application) public apps;\n    mapping(uint => Document) public docs;\n    \n    struct Document {\n        uint id;\n        uint appId;\n        string aerodromeManual;\n        string licensingFee;\n        string CARcompliance;\n        string exceptionsDoc;\n    }\n\n    struct Application{\n        uint appId;\n        string airportCode;\n        uint id;\n        string state;\n        string timestamp;\n        address payable author;\n    }\n\n    event AppCreated(\n        uint appId,\n        string airportCode,\n        uint id,\n        string state,\n        string timestamp,\n        address payable author\n    );\n\n    event DocCreated(\n       uint id,\n        uint appId,\n        string aerodromeManual,\n        string licensingFee,\n        string CARcompliance,\n        string exceptionsDoc\n    );\n\n    event DocIdUpdated(\n       uint id,\n        uint appId,\n        string aerodromeManual,\n        string licensingFee,\n        string CARcompliance,\n        string exceptionsDoc\n    );\n\n    event AppIssued(\n        uint appId,\n        string airportCode,\n        uint id,\n        string state,\n        string timestamp,\n        address payable author\n    );\n\nevent AppAssigned(\n        uint appId,\n        string airportCode,\n        uint id,\n        string state,\n        string timestamp,\n        address payable author\n    );\n    \n event AppApproved(\n    uint appId,\n    string airportCode,\n    uint id,\n    string state,\n    string timestamp,\n    address payable author\n);\n\n event AppRejected(\n    uint appId,\n    string airportCode,\n    uint id,\n    string state,\n    string timestamp,\n    address payable author\n);\n\n event AppGranted(\n    uint appId,\n    string airportCode,\n    uint id,\n    string state,\n    string timestamp,\n    address payable author\n);\n\n event AppRecreated(\n    uint appId,\n    string airportCode,\n    uint id,\n    string state,\n    string timestamp,\n    address payable author\n);\n\n event AppReview(\n    uint appId,\n    string airportCode,\n    uint id,\n    string state,\n    string timestamp,\n    address payable author\n);\n\n    // Constructor function\n    constructor () public {\n        name = \"Airport Database\";\n    }\n\n    function compareStrings (string memory a, string memory b) public pure returns (bool) {\n        return (keccak256(abi.encodePacked((a))) == keccak256(abi.encodePacked((b))) );\n\n       }\n\n   function createApp(string memory airportCode, string memory doc1, string memory doc2, string memory doc3,string memory doc4, string memory timestamp) \n   public {\n    // Compulsory requires an airportcode\n    require(bytes(airportCode).length > 0);\n    require(bytes(doc1).length>0);\n    require(bytes(doc2).length>0);\n    require(bytes(doc3).length>0);\n    require(bytes(doc4).length>0);\n    // Increment the application count\n    appCount ++;\n    docCount ++;\n    //Create the document first\n    docs[docCount] = Document(docCount,appCount,doc1,doc2,doc3,doc4);\n    emit DocCreated(docCount,appCount,doc1,doc2,doc3,doc4);\n    // Create the application\n    apps[appCount] = Application(appCount,airportCode,docCount,\"created\",timestamp,msg.sender);\n    // Trigger event\n    emit AppCreated(appCount,airportCode,docCount,\"created\",timestamp,msg.sender);\n}\n\n function issueApp(uint _id, string memory timestamp) public {\n    //Require valid ID\n    require(_id > 0 && _id <= appCount);\n    //fetch the application and document \n    Application memory app = apps[_id];\n    Document memory doc = docs[app.id];\n        // If the state of the application is created only then the further state change will taake place\n        // if(compareStrings(app.state,\"created\")){\n            //Change the state of the application\n             app.state=\"issued\";\n            //Update the application\n             apps[_id] = app;\n            //Trigger event\n             emit AppIssued(app.appId,app.airportCode,doc.id,\"issued\",timestamp,msg.sender);\n        // }\n}\n\n\nfunction assignApp(uint _id, string memory timestamp) public {\n   //Require valid ID\n    require(_id > 0 && _id <= appCount);\n    //fetch the application and document \n    Application memory app = apps[_id];\n    Document memory doc = docs[app.id];\n        // If the state of the application is issued only then the further state change will take place\n       // if(compareStrings(app.state,\"issued\")){\n            //Change the state of the application\n             app.state=\"assigned\";\n            //Update the application\n             apps[_id] = app;\n            //Trigger event\n             emit AppAssigned(app.appId,app.airportCode,doc.id,\"assigned\",timestamp,msg.sender);\n       // }\n}\n\nfunction approveApp(uint _id, string memory timestamp) public {\n   //Require valid ID\n    require(_id > 0 && _id <= appCount);\n    //fetch the application and document \n    Application memory app = apps[_id];\n    Document memory doc = docs[app.id];\n        // If the state of the application is assigned only then the further state change will take place\n        //if(compareStrings(app.state,\"assigned\")){\n            //Change the state of the application\n             app.state=\"approved\";\n            //Update the application\n             apps[_id] = app;\n            //Trigger event\n             emit AppApproved(app.appId,app.airportCode,doc.id,\"approved\",timestamp,msg.sender);\n       // }\n}\n\nfunction rejectApp(uint _id, string memory timestamp) public {\n   //Require valid ID\n    require(_id > 0 && _id <= appCount);\n    //fetch the application and document \n    Application memory app = apps[_id];\n    Document memory doc = docs[app.id];\n        // If the state of the application is assigned only then the further state change will take place\n        //if(compareStrings(app.state,\"assigned\")){\n            //Change the state of the application\n             app.state=\"rejected\";\n            //Update the application\n             apps[_id] = app;\n            //Trigger event\n             emit AppRejected(app.appId,app.airportCode,doc.id,\"rejected\",timestamp,msg.sender);\n       // }\n}\n\nfunction recreateApp(uint _id, string memory airportCode, string memory doc1, string memory doc2, string memory doc3,string memory doc4, string memory timestamp) public {\n   //Require valid ID\n    require(_id > 0 && _id <= appCount);\n    //fetch the application and document \n    Application memory app = apps[_id];\n    Document memory doc = docs[app.id];\n        // validation of state is not used here because this function is used twice. \n            //Change the state of the application\n            app.airportCode = airportCode;\n            doc.aerodromeManual = doc1;\n            doc.licensingFee = doc2;\n            doc.CARcompliance =  doc3;\n            doc.exceptionsDoc = doc4;\n             app.state=\"recreated\";\n            //Update the application\n             apps[_id] = app;\n            //Trigger event\n             emit AppRecreated(app.appId,app.airportCode,doc.id,\"recreated\",timestamp,msg.sender);\n        }\n\nfunction reviewApp(uint _id, string memory timestamp) public {\n   //Require valid ID\n    require(_id > 0 && _id <= appCount);\n    //fetch the application and document \n    Application memory app = apps[_id];\n    Document memory doc = docs[app.id];\n        // validation of state is not used here because this function is used twice. \n            //Change the state of the application\n             app.state=\"reviewed\";\n            //Update the application\n             apps[_id] = app;\n            //Trigger event\n             emit AppReview(app.appId,app.airportCode,doc.id,\"reviewed\",timestamp,msg.sender);\n        }\n\n\nfunction grantApp(uint _id, string memory timestamp) public {\n    //Require valid ID\n    require(_id > 0 && _id <= appCount);\n    //fetch the application and document \n    Application memory app = apps[_id];\n    Document memory doc = docs[app.id];\n        // If the state of the application is assigned only then the further state change will take place\n       // if(compareStrings(app.state,\"approved\")){\n            //Change the state of the application\n             app.state=\"granted\";\n            //Update the application\n             apps[_id] = app;\n            //Trigger event\n             emit AppGranted(app.appId,app.airportCode,doc.id,\"granted\",timestamp,msg.sender);\n        //}\n}\n\n\n\n}\n",
  "sourcePath": "/home/akshada/Knowledge-Management-System/client/src/contracts/SocialNetwork.sol",
  "compiler": {
    "name": "solc",
    "version": "0.5.0+commit.1d4f565a.Emscripten.clang"
  },
  "schemaVersion": "3.0.1",
  "updatedAt": "2020-08-03T00:02:58.766Z",
  "devdoc": {
    "methods": {}
  },
  "userdoc": {
    "methods": {}
  }
}