{
  "contractName": "SocialNetwork",
  "abi": [
    {
      "inputs": [],
      "payable": false,
      "stateMutability": "nonpayable",
      "type": "constructor"
    },
    {
      "anonymous": false,
      "inputs": [
        {
          "indexed": false,
          "internalType": "uint256",
          "name": "appId",
          "type": "uint256"
        },
        {
          "indexed": false,
          "internalType": "string",
          "name": "airportCode",
          "type": "string"
        },
        {
          "indexed": false,
          "internalType": "uint256",
          "name": "id",
          "type": "uint256"
        },
        {
          "indexed": false,
          "internalType": "string",
          "name": "state",
          "type": "string"
        },
        {
          "indexed": false,
          "internalType": "string",
          "name": "timestamp",
          "type": "string"
        },
        {
          "indexed": false,
          "internalType": "address payable",
          "name": "author",
          "type": "address"
        }
      ],
      "name": "AppApproved",
      "type": "event"
    },
    {
      "anonymous": false,
      "inputs": [
        {
          "indexed": false,
          "internalType": "uint256",
          "name": "appId",
          "type": "uint256"
        },
        {
          "indexed": false,
          "internalType": "string",
          "name": "airportCode",
          "type": "string"
        },
        {
          "indexed": false,
          "internalType": "uint256",
          "name": "id",
          "type": "uint256"
        },
        {
          "indexed": false,
          "internalType": "string",
          "name": "state",
          "type": "string"
        },
        {
          "indexed": false,
          "internalType": "string",
          "name": "timestamp",
          "type": "string"
        },
        {
          "indexed": false,
          "internalType": "address payable",
          "name": "author",
          "type": "address"
        }
      ],
      "name": "AppAssigned",
      "type": "event"
    },
    {
      "anonymous": false,
      "inputs": [
        {
          "indexed": false,
          "internalType": "uint256",
          "name": "appId",
          "type": "uint256"
        },
        {
          "indexed": false,
          "internalType": "string",
          "name": "airportCode",
          "type": "string"
        },
        {
          "indexed": false,
          "internalType": "uint256",
          "name": "id",
          "type": "uint256"
        },
        {
          "indexed": false,
          "internalType": "string",
          "name": "state",
          "type": "string"
        },
        {
          "indexed": false,
          "internalType": "string",
          "name": "timestamp",
          "type": "string"
        },
        {
          "indexed": false,
          "internalType": "address payable",
          "name": "author",
          "type": "address"
        }
      ],
      "name": "AppCreated",
      "type": "event"
    },
    {
      "anonymous": false,
      "inputs": [
        {
          "indexed": false,
          "internalType": "uint256",
          "name": "appId",
          "type": "uint256"
        },
        {
          "indexed": false,
          "internalType": "string",
          "name": "airportCode",
          "type": "string"
        },
        {
          "indexed": false,
          "internalType": "uint256",
          "name": "id",
          "type": "uint256"
        },
        {
          "indexed": false,
          "internalType": "string",
          "name": "state",
          "type": "string"
        },
        {
          "indexed": false,
          "internalType": "string",
          "name": "timestamp",
          "type": "string"
        },
        {
          "indexed": false,
          "internalType": "address payable",
          "name": "author",
          "type": "address"
        }
      ],
      "name": "AppGranted",
      "type": "event"
    },
    {
      "anonymous": false,
      "inputs": [
        {
          "indexed": false,
          "internalType": "uint256",
          "name": "appId",
          "type": "uint256"
        },
        {
          "indexed": false,
          "internalType": "string",
          "name": "airportCode",
          "type": "string"
        },
        {
          "indexed": false,
          "internalType": "uint256",
          "name": "id",
          "type": "uint256"
        },
        {
          "indexed": false,
          "internalType": "string",
          "name": "state",
          "type": "string"
        },
        {
          "indexed": false,
          "internalType": "string",
          "name": "timestamp",
          "type": "string"
        },
        {
          "indexed": false,
          "internalType": "address payable",
          "name": "author",
          "type": "address"
        }
      ],
      "name": "AppIssued",
      "type": "event"
    },
    {
      "anonymous": false,
      "inputs": [
        {
          "indexed": false,
          "internalType": "uint256",
          "name": "appId",
          "type": "uint256"
        },
        {
          "indexed": false,
          "internalType": "string",
          "name": "airportCode",
          "type": "string"
        },
        {
          "indexed": false,
          "internalType": "uint256",
          "name": "id",
          "type": "uint256"
        },
        {
          "indexed": false,
          "internalType": "string",
          "name": "state",
          "type": "string"
        },
        {
          "indexed": false,
          "internalType": "string",
          "name": "timestamp",
          "type": "string"
        },
        {
          "indexed": false,
          "internalType": "address payable",
          "name": "author",
          "type": "address"
        }
      ],
      "name": "AppRejected",
      "type": "event"
    },
    {
      "anonymous": false,
      "inputs": [
        {
          "indexed": false,
          "internalType": "uint256",
          "name": "appId",
          "type": "uint256"
        },
        {
          "indexed": false,
          "internalType": "string",
          "name": "airportCode",
          "type": "string"
        },
        {
          "indexed": false,
          "internalType": "uint256",
          "name": "id",
          "type": "uint256"
        },
        {
          "indexed": false,
          "internalType": "string",
          "name": "state",
          "type": "string"
        },
        {
          "indexed": false,
          "internalType": "string",
          "name": "timestamp",
          "type": "string"
        },
        {
          "indexed": false,
          "internalType": "address payable",
          "name": "author",
          "type": "address"
        }
      ],
      "name": "AppRenewed",
      "type": "event"
    },
    {
      "anonymous": false,
      "inputs": [
        {
          "indexed": false,
          "internalType": "uint256",
          "name": "id",
          "type": "uint256"
        },
        {
          "indexed": false,
          "internalType": "uint256",
          "name": "appId",
          "type": "uint256"
        },
        {
          "indexed": false,
          "internalType": "string",
          "name": "aerodromeManual",
          "type": "string"
        },
        {
          "indexed": false,
          "internalType": "string",
          "name": "licensingFee",
          "type": "string"
        },
        {
          "indexed": false,
          "internalType": "string",
          "name": "CARcompliance",
          "type": "string"
        },
        {
          "indexed": false,
          "internalType": "string",
          "name": "exceptionsDoc",
          "type": "string"
        }
      ],
      "name": "DocCreated",
      "type": "event"
    },
    {
      "anonymous": false,
      "inputs": [
        {
          "indexed": false,
          "internalType": "uint256",
          "name": "id",
          "type": "uint256"
        },
        {
          "indexed": false,
          "internalType": "uint256",
          "name": "appId",
          "type": "uint256"
        },
        {
          "indexed": false,
          "internalType": "string",
          "name": "aerodromeManual",
          "type": "string"
        },
        {
          "indexed": false,
          "internalType": "string",
          "name": "licensingFee",
          "type": "string"
        },
        {
          "indexed": false,
          "internalType": "string",
          "name": "CARcompliance",
          "type": "string"
        },
        {
          "indexed": false,
          "internalType": "string",
          "name": "exceptionsDoc",
          "type": "string"
        }
      ],
      "name": "DocIdUpdated",
      "type": "event"
    },
    {
      "constant": true,
      "inputs": [],
      "name": "appCount",
      "outputs": [
        {
          "internalType": "uint256",
          "name": "",
          "type": "uint256"
        }
      ],
      "payable": false,
      "stateMutability": "view",
      "type": "function"
    },
    {
      "constant": true,
      "inputs": [
        {
          "internalType": "uint256",
          "name": "",
          "type": "uint256"
        }
      ],
      "name": "apps",
      "outputs": [
        {
          "internalType": "uint256",
          "name": "appId",
          "type": "uint256"
        },
        {
          "internalType": "string",
          "name": "airportCode",
          "type": "string"
        },
        {
          "internalType": "uint256",
          "name": "id",
          "type": "uint256"
        },
        {
          "internalType": "string",
          "name": "state",
          "type": "string"
        },
        {
          "internalType": "string",
          "name": "timestamp",
          "type": "string"
        },
        {
          "internalType": "address payable",
          "name": "author",
          "type": "address"
        }
      ],
      "payable": false,
      "stateMutability": "view",
      "type": "function"
    },
    {
      "constant": true,
      "inputs": [],
      "name": "docCount",
      "outputs": [
        {
          "internalType": "uint256",
          "name": "",
          "type": "uint256"
        }
      ],
      "payable": false,
      "stateMutability": "view",
      "type": "function"
    },
    {
      "constant": true,
      "inputs": [
        {
          "internalType": "uint256",
          "name": "",
          "type": "uint256"
        }
      ],
      "name": "docs",
      "outputs": [
        {
          "internalType": "uint256",
          "name": "id",
          "type": "uint256"
        },
        {
          "internalType": "uint256",
          "name": "appId",
          "type": "uint256"
        },
        {
          "internalType": "string",
          "name": "aerodromeManual",
          "type": "string"
        },
        {
          "internalType": "string",
          "name": "licensingFee",
          "type": "string"
        },
        {
          "internalType": "string",
          "name": "CARcompliance",
          "type": "string"
        },
        {
          "internalType": "string",
          "name": "exceptionsDoc",
          "type": "string"
        }
      ],
      "payable": false,
      "stateMutability": "view",
      "type": "function"
    },
    {
      "constant": true,
      "inputs": [],
      "name": "name",
      "outputs": [
        {
          "internalType": "string",
          "name": "",
          "type": "string"
        }
      ],
      "payable": false,
      "stateMutability": "view",
      "type": "function"
    },
    {
      "constant": true,
      "inputs": [
        {
          "internalType": "string",
          "name": "a",
          "type": "string"
        },
        {
          "internalType": "string",
          "name": "b",
          "type": "string"
        }
      ],
      "name": "compareStrings",
      "outputs": [
        {
          "internalType": "bool",
          "name": "",
          "type": "bool"
        }
      ],
      "payable": false,
      "stateMutability": "pure",
      "type": "function"
    },
    {
      "constant": false,
      "inputs": [
        {
          "internalType": "string",
          "name": "airportCode",
          "type": "string"
        },
        {
          "internalType": "string",
          "name": "doc1",
          "type": "string"
        },
        {
          "internalType": "string",
          "name": "doc2",
          "type": "string"
        },
        {
          "internalType": "string",
          "name": "doc3",
          "type": "string"
        },
        {
          "internalType": "string",
          "name": "doc4",
          "type": "string"
        },
        {
          "internalType": "string",
          "name": "timestamp",
          "type": "string"
        }
      ],
      "name": "createApp",
      "outputs": [],
      "payable": false,
      "stateMutability": "nonpayable",
      "type": "function"
    },
    {
      "constant": false,
      "inputs": [
        {
          "internalType": "uint256",
          "name": "_id",
          "type": "uint256"
        },
        {
          "internalType": "string",
          "name": "timestamp",
          "type": "string"
        }
      ],
      "name": "issueApp",
      "outputs": [],
      "payable": false,
      "stateMutability": "nonpayable",
      "type": "function"
    },
    {
      "constant": false,
      "inputs": [
        {
          "internalType": "uint256",
          "name": "_id",
          "type": "uint256"
        },
        {
          "internalType": "string",
          "name": "timestamp",
          "type": "string"
        }
      ],
      "name": "assignApp",
      "outputs": [],
      "payable": false,
      "stateMutability": "nonpayable",
      "type": "function"
    },
    {
      "constant": false,
      "inputs": [
        {
          "internalType": "uint256",
          "name": "_id",
          "type": "uint256"
        },
        {
          "internalType": "string",
          "name": "timestamp",
          "type": "string"
        }
      ],
      "name": "approveApp",
      "outputs": [],
      "payable": false,
      "stateMutability": "nonpayable",
      "type": "function"
    },
    {
      "constant": false,
      "inputs": [
        {
          "internalType": "uint256",
          "name": "_id",
          "type": "uint256"
        },
        {
          "internalType": "string",
          "name": "timestamp",
          "type": "string"
        }
      ],
      "name": "rejectApp",
      "outputs": [],
      "payable": false,
      "stateMutability": "nonpayable",
      "type": "function"
    },
    {
      "constant": false,
      "inputs": [
        {
          "internalType": "uint256",
          "name": "_id",
          "type": "uint256"
        },
        {
          "internalType": "string",
          "name": "timestamp",
          "type": "string"
        }
      ],
      "name": "renewApp",
      "outputs": [],
      "payable": false,
      "stateMutability": "nonpayable",
      "type": "function"
    },
    {
      "constant": false,
      "inputs": [
        {
          "internalType": "uint256",
          "name": "_id",
          "type": "uint256"
        },
        {
          "internalType": "string",
          "name": "timestamp",
          "type": "string"
        }
      ],
      "name": "grantApp",
      "outputs": [],
      "payable": false,
      "stateMutability": "nonpayable",
      "type": "function"
    }
  ],
  "bytecode": "0x6080604052600060015560006002553480156200001b57600080fd5b506040518060400160405280601081526020017f416972706f727420446174616261736500000000000000000000000000000000815250600090805190602001906200006992919062000070565b506200011f565b828054600181600116156101000203166002900490600052602060002090601f016020900481019282601f10620000b357805160ff1916838001178555620000e4565b82800160010185558215620000e4579182015b82811115620000e3578251825591602001919060010190620000c6565b5b509050620000f39190620000f7565b5090565b6200011c91905b8082111562000118576000816000905550600101620000fe565b5090565b90565b614c9d806200012f6000396000f3fe608060405234801561001057600080fd5b50600436106100cf5760003560e01c80635d4c6d221161008c578063aef5108f11610066578063aef5108f14610907578063b55ca2c314610cb5578063bed34bba14610cd3578063ee55ba3a14610e3d576100cf565b80635d4c6d22146105bd57806361acc37e14610682578063989b159414610842576100cf565b806306fdde03146100d4578063138cfd471461015757806323389c5a1461021c578063365f8b36146104155780633ffddc9a146104da5780634c4dc6e01461059f575b600080fd5b6100dc610f02565b6040518080602001828103825283818151815260200191508051906020019080838360005b8381101561011c578082015181840152602081019050610101565b50505050905090810190601f1680156101495780820380516001836020036101000a031916815260200191505b509250505060405180910390f35b61021a6004803603604081101561016d57600080fd5b81019080803590602001909291908035906020019064010000000081111561019457600080fd5b8201836020820111156101a657600080fd5b803590602001918460018302840111640100000000831117156101c857600080fd5b91908080601f016020809104026020016040519081016040528093929190818152602001838380828437600081840152601f19601f820116905080830192505050505050509192919290505050610fa0565b005b6102486004803603602081101561023257600080fd5b810190808035906020019092919050505061179a565b6040518087815260200186815260200180602001806020018060200180602001858103855289818151815260200191508051906020019080838360005b838110156102a0578082015181840152602081019050610285565b50505050905090810190601f1680156102cd5780820380516001836020036101000a031916815260200191505b50858103845288818151815260200191508051906020019080838360005b838110156103065780820151818401526020810190506102eb565b50505050905090810190601f1680156103335780820380516001836020036101000a031916815260200191505b50858103835287818151815260200191508051906020019080838360005b8381101561036c578082015181840152602081019050610351565b50505050905090810190601f1680156103995780820380516001836020036101000a031916815260200191505b50858103825286818151815260200191508051906020019080838360005b838110156103d25780820151818401526020810190506103b7565b50505050905090810190601f1680156103ff5780820380516001836020036101000a031916815260200191505b509a505050505050505050505060405180910390f35b6104d86004803603604081101561042b57600080fd5b81019080803590602001909291908035906020019064010000000081111561045257600080fd5b82018360208201111561046457600080fd5b8035906020019184600183028401116401000000008311171561048657600080fd5b91908080601f016020809104026020016040519081016040528093929190818152602001838380828437600081840152601f19601f820116905080830192505050505050509192919290505050611a36565b005b61059d600480360360408110156104f057600080fd5b81019080803590602001909291908035906020019064010000000081111561051757600080fd5b82018360208201111561052957600080fd5b8035906020019184600183028401116401000000008311171561054b57600080fd5b91908080601f016020809104026020016040519081016040528093929190818152602001838380828437600081840152601f19601f820116905080830192505050505050509192919290505050612230565b005b6105a7612a2a565b6040518082815260200191505060405180910390f35b610680600480360360408110156105d357600080fd5b8101908080359060200190929190803590602001906401000000008111156105fa57600080fd5b82018360208201111561060c57600080fd5b8035906020019184600183028401116401000000008311171561062e57600080fd5b91908080601f016020809104026020016040519081016040528093929190818152602001838380828437600081840152601f19601f820116905080830192505050505050509192919290505050612a30565b005b6106ae6004803603602081101561069857600080fd5b810190808035906020019092919050505061322a565b604051808781526020018060200186815260200180602001806020018573ffffffffffffffffffffffffffffffffffffffff1673ffffffffffffffffffffffffffffffffffffffff168152602001848103845289818151815260200191508051906020019080838360005b83811015610734578082015181840152602081019050610719565b50505050905090810190601f1680156107615780820380516001836020036101000a031916815260200191505b50848103835287818151815260200191508051906020019080838360005b8381101561079a57808201518184015260208101905061077f565b50505050905090810190601f1680156107c75780820380516001836020036101000a031916815260200191505b50848103825286818151815260200191508051906020019080838360005b838110156108005780820151818401526020810190506107e5565b50505050905090810190601f16801561082d5780820380516001836020036101000a031916815260200191505b50995050505050505050505060405180910390f35b6109056004803603604081101561085857600080fd5b81019080803590602001909291908035906020019064010000000081111561087f57600080fd5b82018360208201111561089157600080fd5b803590602001918460018302840111640100000000831117156108b357600080fd5b91908080601f016020809104026020016040519081016040528093929190818152602001838380828437600081840152601f19601f82011690508083019250505050505050919291929050505061344e565b005b610cb3600480360360c081101561091d57600080fd5b810190808035906020019064010000000081111561093a57600080fd5b82018360208201111561094c57600080fd5b8035906020019184600183028401116401000000008311171561096e57600080fd5b91908080601f016020809104026020016040519081016040528093929190818152602001838380828437600081840152601f19601f820116905080830192505050505050509192919290803590602001906401000000008111156109d157600080fd5b8201836020820111156109e357600080fd5b80359060200191846001830284011164010000000083111715610a0557600080fd5b91908080601f016020809104026020016040519081016040528093929190818152602001838380828437600081840152601f19601f82011690508083019250505050505050919291929080359060200190640100000000811115610a6857600080fd5b820183602082011115610a7a57600080fd5b80359060200191846001830284011164010000000083111715610a9c57600080fd5b91908080601f016020809104026020016040519081016040528093929190818152602001838380828437600081840152601f19601f82011690508083019250505050505050919291929080359060200190640100000000811115610aff57600080fd5b820183602082011115610b1157600080fd5b80359060200191846001830284011164010000000083111715610b3357600080fd5b91908080601f016020809104026020016040519081016040528093929190818152602001838380828437600081840152601f19601f82011690508083019250505050505050919291929080359060200190640100000000811115610b9657600080fd5b820183602082011115610ba857600080fd5b80359060200191846001830284011164010000000083111715610bca57600080fd5b91908080601f016020809104026020016040519081016040528093929190818152602001838380828437600081840152601f19601f82011690508083019250505050505050919291929080359060200190640100000000811115610c2d57600080fd5b820183602082011115610c3f57600080fd5b80359060200191846001830284011164010000000083111715610c6157600080fd5b91908080601f016020809104026020016040519081016040528093929190818152602001838380828437600081840152601f19601f820116905080830192505050505050509192919290505050613c48565b005b610cbd614252565b6040518082815260200191505060405180910390f35b610e2360048036036040811015610ce957600080fd5b8101908080359060200190640100000000811115610d0657600080fd5b820183602082011115610d1857600080fd5b80359060200191846001830284011164010000000083111715610d3a57600080fd5b91908080601f016020809104026020016040519081016040528093929190818152602001838380828437600081840152601f19601f82011690508083019250505050505050919291929080359060200190640100000000811115610d9d57600080fd5b820183602082011115610daf57600080fd5b80359060200191846001830284011164010000000083111715610dd157600080fd5b91908080601f016020809104026020016040519081016040528093929190818152602001838380828437600081840152601f19601f820116905080830192505050505050509192919290505050614258565b604051808215151515815260200191505060405180910390f35b610f0060048036036040811015610e5357600080fd5b810190808035906020019092919080359060200190640100000000811115610e7a57600080fd5b820183602082011115610e8c57600080fd5b80359060200191846001830284011164010000000083111715610eae57600080fd5b91908080601f016020809104026020016040519081016040528093929190818152602001838380828437600081840152601f19601f820116905080830192505050505050509192919290505050614347565b005b60008054600181600116156101000203166002900480601f016020809104026020016040519081016040528092919081815260200182805460018160011615610100020316600290048015610f985780601f10610f6d57610100808354040283529160200191610f98565b820191906000526020600020905b815481529060010190602001808311610f7b57829003601f168201915b505050505081565b600082118015610fb257506001548211155b610fbb57600080fd5b610fc3614b41565b600360008481526020019081526020016000206040518060c001604052908160008201548152602001600182018054600181600116156101000203166002900480601f0160208091040260200160405190810160405280929190818152602001828054600181600116156101000203166002900480156110845780601f1061105957610100808354040283529160200191611084565b820191906000526020600020905b81548152906001019060200180831161106757829003601f168201915b5050505050815260200160028201548152602001600382018054600181600116156101000203166002900480601f0160208091040260200160405190810160405280929190818152602001828054600181600116156101000203166002900480156111305780601f1061110557610100808354040283529160200191611130565b820191906000526020600020905b81548152906001019060200180831161111357829003601f168201915b50505050508152602001600482018054600181600116156101000203166002900480601f0160208091040260200160405190810160405280929190818152602001828054600181600116156101000203166002900480156111d25780601f106111a7576101008083540402835291602001916111d2565b820191906000526020600020905b8154815290600101906020018083116111b557829003601f168201915b505050505081526020016005820160009054906101000a900473ffffffffffffffffffffffffffffffffffffffff1673ffffffffffffffffffffffffffffffffffffffff1673ffffffffffffffffffffffffffffffffffffffff1681525050905061123b614b8d565b60046000836040015181526020019081526020016000206040518060c00160405290816000820154815260200160018201548152602001600282018054600181600116156101000203166002900480601f01602080910402602001604051908101604052809291908181526020018280546001816001161561010002031660029004801561130a5780601f106112df5761010080835404028352916020019161130a565b820191906000526020600020905b8154815290600101906020018083116112ed57829003601f168201915b50505050508152602001600382018054600181600116156101000203166002900480601f0160208091040260200160405190810160405280929190818152602001828054600181600116156101000203166002900480156113ac5780601f10611381576101008083540402835291602001916113ac565b820191906000526020600020905b81548152906001019060200180831161138f57829003601f168201915b50505050508152602001600482018054600181600116156101000203166002900480601f01602080910402602001604051908101604052809291908181526020018280546001816001161561010002031660029004801561144e5780601f106114235761010080835404028352916020019161144e565b820191906000526020600020905b81548152906001019060200180831161143157829003601f168201915b50505050508152602001600582018054600181600116156101000203166002900480601f0160208091040260200160405190810160405280929190818152602001828054600181600116156101000203166002900480156114f05780601f106114c5576101008083540402835291602001916114f0565b820191906000526020600020905b8154815290600101906020018083116114d357829003601f168201915b50505050508152505090506040518060400160405280600881526020017f61737369676e656400000000000000000000000000000000000000000000000081525082606001819052508160036000868152602001908152602001600020600082015181600001556020820151816001019080519060200190611573929190614bc3565b5060408201518160020155606082015181600301908051906020019061159a929190614bc3565b5060808201518160040190805190602001906115b7929190614bc3565b5060a08201518160050160006101000a81548173ffffffffffffffffffffffffffffffffffffffff021916908373ffffffffffffffffffffffffffffffffffffffff1602179055509050507fbd80e31258ae44f7055fcf6e9b625493f6aec6ce712291a1f83054c33251f05b8260000151836020015183600001518633604051808681526020018060200185815260200180602001806020018573ffffffffffffffffffffffffffffffffffffffff1673ffffffffffffffffffffffffffffffffffffffff168152602001848103845288818151815260200191508051906020019080838360005b838110156116ba57808201518184015260208101905061169f565b50505050905090810190601f1680156116e75780820380516001836020036101000a031916815260200191505b50848103835260088152602001807f61737369676e6564000000000000000000000000000000000000000000000000815250602001848103825286818151815260200191508051906020019080838360005b83811015611754578082015181840152602081019050611739565b50505050905090810190601f1680156117815780820380516001836020036101000a031916815260200191505b509850505050505050505060405180910390a150505050565b6004602052806000526040600020600091509050806000015490806001015490806002018054600181600116156101000203166002900480601f0160208091040260200160405190810160405280929190818152602001828054600181600116156101000203166002900480156118525780601f1061182757610100808354040283529160200191611852565b820191906000526020600020905b81548152906001019060200180831161183557829003601f168201915b505050505090806003018054600181600116156101000203166002900480601f0160208091040260200160405190810160405280929190818152602001828054600181600116156101000203166002900480156118f05780601f106118c5576101008083540402835291602001916118f0565b820191906000526020600020905b8154815290600101906020018083116118d357829003601f168201915b505050505090806004018054600181600116156101000203166002900480601f01602080910402602001604051908101604052809291908181526020018280546001816001161561010002031660029004801561198e5780601f106119635761010080835404028352916020019161198e565b820191906000526020600020905b81548152906001019060200180831161197157829003601f168201915b505050505090806005018054600181600116156101000203166002900480601f016020809104026020016040519081016040528092919081815260200182805460018160011615610100020316600290048015611a2c5780601f10611a0157610100808354040283529160200191611a2c565b820191906000526020600020905b815481529060010190602001808311611a0f57829003601f168201915b5050505050905086565b600082118015611a4857506001548211155b611a5157600080fd5b611a59614b41565b600360008481526020019081526020016000206040518060c001604052908160008201548152602001600182018054600181600116156101000203166002900480601f016020809104026020016040519081016040528092919081815260200182805460018160011615610100020316600290048015611b1a5780601f10611aef57610100808354040283529160200191611b1a565b820191906000526020600020905b815481529060010190602001808311611afd57829003601f168201915b5050505050815260200160028201548152602001600382018054600181600116156101000203166002900480601f016020809104026020016040519081016040528092919081815260200182805460018160011615610100020316600290048015611bc65780601f10611b9b57610100808354040283529160200191611bc6565b820191906000526020600020905b815481529060010190602001808311611ba957829003601f168201915b50505050508152602001600482018054600181600116156101000203166002900480601f016020809104026020016040519081016040528092919081815260200182805460018160011615610100020316600290048015611c685780601f10611c3d57610100808354040283529160200191611c68565b820191906000526020600020905b815481529060010190602001808311611c4b57829003601f168201915b505050505081526020016005820160009054906101000a900473ffffffffffffffffffffffffffffffffffffffff1673ffffffffffffffffffffffffffffffffffffffff1673ffffffffffffffffffffffffffffffffffffffff16815250509050611cd1614b8d565b60046000836040015181526020019081526020016000206040518060c00160405290816000820154815260200160018201548152602001600282018054600181600116156101000203166002900480601f016020809104026020016040519081016040528092919081815260200182805460018160011615610100020316600290048015611da05780601f10611d7557610100808354040283529160200191611da0565b820191906000526020600020905b815481529060010190602001808311611d8357829003601f168201915b50505050508152602001600382018054600181600116156101000203166002900480601f016020809104026020016040519081016040528092919081815260200182805460018160011615610100020316600290048015611e425780601f10611e1757610100808354040283529160200191611e42565b820191906000526020600020905b815481529060010190602001808311611e2557829003601f168201915b50505050508152602001600482018054600181600116156101000203166002900480601f016020809104026020016040519081016040528092919081815260200182805460018160011615610100020316600290048015611ee45780601f10611eb957610100808354040283529160200191611ee4565b820191906000526020600020905b815481529060010190602001808311611ec757829003601f168201915b50505050508152602001600582018054600181600116156101000203166002900480601f016020809104026020016040519081016040528092919081815260200182805460018160011615610100020316600290048015611f865780601f10611f5b57610100808354040283529160200191611f86565b820191906000526020600020905b815481529060010190602001808311611f6957829003601f168201915b50505050508152505090506040518060400160405280600681526020017f697373756564000000000000000000000000000000000000000000000000000081525082606001819052508160036000868152602001908152602001600020600082015181600001556020820151816001019080519060200190612009929190614bc3565b50604082015181600201556060820151816003019080519060200190612030929190614bc3565b50608082015181600401908051906020019061204d929190614bc3565b5060a08201518160050160006101000a81548173ffffffffffffffffffffffffffffffffffffffff021916908373ffffffffffffffffffffffffffffffffffffffff1602179055509050507f45baadd18d4e1f978b94605de81343ac320dc23543ccb3ef3add079d355b9f798260000151836020015183600001518633604051808681526020018060200185815260200180602001806020018573ffffffffffffffffffffffffffffffffffffffff1673ffffffffffffffffffffffffffffffffffffffff168152602001848103845288818151815260200191508051906020019080838360005b83811015612150578082015181840152602081019050612135565b50505050905090810190601f16801561217d5780820380516001836020036101000a031916815260200191505b50848103835260068152602001807f6973737565640000000000000000000000000000000000000000000000000000815250602001848103825286818151815260200191508051906020019080838360005b838110156121ea5780820151818401526020810190506121cf565b50505050905090810190601f1680156122175780820380516001836020036101000a031916815260200191505b509850505050505050505060405180910390a150505050565b60008211801561224257506001548211155b61224b57600080fd5b612253614b41565b600360008481526020019081526020016000206040518060c001604052908160008201548152602001600182018054600181600116156101000203166002900480601f0160208091040260200160405190810160405280929190818152602001828054600181600116156101000203166002900480156123145780601f106122e957610100808354040283529160200191612314565b820191906000526020600020905b8154815290600101906020018083116122f757829003601f168201915b5050505050815260200160028201548152602001600382018054600181600116156101000203166002900480601f0160208091040260200160405190810160405280929190818152602001828054600181600116156101000203166002900480156123c05780601f10612395576101008083540402835291602001916123c0565b820191906000526020600020905b8154815290600101906020018083116123a357829003601f168201915b50505050508152602001600482018054600181600116156101000203166002900480601f0160208091040260200160405190810160405280929190818152602001828054600181600116156101000203166002900480156124625780601f1061243757610100808354040283529160200191612462565b820191906000526020600020905b81548152906001019060200180831161244557829003601f168201915b505050505081526020016005820160009054906101000a900473ffffffffffffffffffffffffffffffffffffffff1673ffffffffffffffffffffffffffffffffffffffff1673ffffffffffffffffffffffffffffffffffffffff168152505090506124cb614b8d565b60046000836040015181526020019081526020016000206040518060c00160405290816000820154815260200160018201548152602001600282018054600181600116156101000203166002900480601f01602080910402602001604051908101604052809291908181526020018280546001816001161561010002031660029004801561259a5780601f1061256f5761010080835404028352916020019161259a565b820191906000526020600020905b81548152906001019060200180831161257d57829003601f168201915b50505050508152602001600382018054600181600116156101000203166002900480601f01602080910402602001604051908101604052809291908181526020018280546001816001161561010002031660029004801561263c5780601f106126115761010080835404028352916020019161263c565b820191906000526020600020905b81548152906001019060200180831161261f57829003601f168201915b50505050508152602001600482018054600181600116156101000203166002900480601f0160208091040260200160405190810160405280929190818152602001828054600181600116156101000203166002900480156126de5780601f106126b3576101008083540402835291602001916126de565b820191906000526020600020905b8154815290600101906020018083116126c157829003601f168201915b50505050508152602001600582018054600181600116156101000203166002900480601f0160208091040260200160405190810160405280929190818152602001828054600181600116156101000203166002900480156127805780601f1061275557610100808354040283529160200191612780565b820191906000526020600020905b81548152906001019060200180831161276357829003601f168201915b50505050508152505090506040518060400160405280600881526020017f617070726f76656400000000000000000000000000000000000000000000000081525082606001819052508160036000868152602001908152602001600020600082015181600001556020820151816001019080519060200190612803929190614bc3565b5060408201518160020155606082015181600301908051906020019061282a929190614bc3565b506080820151816004019080519060200190612847929190614bc3565b5060a08201518160050160006101000a81548173ffffffffffffffffffffffffffffffffffffffff021916908373ffffffffffffffffffffffffffffffffffffffff1602179055509050507f277977b4f187cd818f93685ee6be069743e776844ff677bc918a96851c75048f8260000151836020015183600001518633604051808681526020018060200185815260200180602001806020018573ffffffffffffffffffffffffffffffffffffffff1673ffffffffffffffffffffffffffffffffffffffff168152602001848103845288818151815260200191508051906020019080838360005b8381101561294a57808201518184015260208101905061292f565b50505050905090810190601f1680156129775780820380516001836020036101000a031916815260200191505b50848103835260088152602001807f617070726f766564000000000000000000000000000000000000000000000000815250602001848103825286818151815260200191508051906020019080838360005b838110156129e45780820151818401526020810190506129c9565b50505050905090810190601f168015612a115780820380516001836020036101000a031916815260200191505b509850505050505050505060405180910390a150505050565b60025481565b600082118015612a4257506001548211155b612a4b57600080fd5b612a53614b41565b600360008481526020019081526020016000206040518060c001604052908160008201548152602001600182018054600181600116156101000203166002900480601f016020809104026020016040519081016040528092919081815260200182805460018160011615610100020316600290048015612b145780601f10612ae957610100808354040283529160200191612b14565b820191906000526020600020905b815481529060010190602001808311612af757829003601f168201915b5050505050815260200160028201548152602001600382018054600181600116156101000203166002900480601f016020809104026020016040519081016040528092919081815260200182805460018160011615610100020316600290048015612bc05780601f10612b9557610100808354040283529160200191612bc0565b820191906000526020600020905b815481529060010190602001808311612ba357829003601f168201915b50505050508152602001600482018054600181600116156101000203166002900480601f016020809104026020016040519081016040528092919081815260200182805460018160011615610100020316600290048015612c625780601f10612c3757610100808354040283529160200191612c62565b820191906000526020600020905b815481529060010190602001808311612c4557829003601f168201915b505050505081526020016005820160009054906101000a900473ffffffffffffffffffffffffffffffffffffffff1673ffffffffffffffffffffffffffffffffffffffff1673ffffffffffffffffffffffffffffffffffffffff16815250509050612ccb614b8d565b60046000836040015181526020019081526020016000206040518060c00160405290816000820154815260200160018201548152602001600282018054600181600116156101000203166002900480601f016020809104026020016040519081016040528092919081815260200182805460018160011615610100020316600290048015612d9a5780601f10612d6f57610100808354040283529160200191612d9a565b820191906000526020600020905b815481529060010190602001808311612d7d57829003601f168201915b50505050508152602001600382018054600181600116156101000203166002900480601f016020809104026020016040519081016040528092919081815260200182805460018160011615610100020316600290048015612e3c5780601f10612e1157610100808354040283529160200191612e3c565b820191906000526020600020905b815481529060010190602001808311612e1f57829003601f168201915b50505050508152602001600482018054600181600116156101000203166002900480601f016020809104026020016040519081016040528092919081815260200182805460018160011615610100020316600290048015612ede5780601f10612eb357610100808354040283529160200191612ede565b820191906000526020600020905b815481529060010190602001808311612ec157829003601f168201915b50505050508152602001600582018054600181600116156101000203166002900480601f016020809104026020016040519081016040528092919081815260200182805460018160011615610100020316600290048015612f805780601f10612f5557610100808354040283529160200191612f80565b820191906000526020600020905b815481529060010190602001808311612f6357829003601f168201915b50505050508152505090506040518060400160405280600881526020017f72656a656374656400000000000000000000000000000000000000000000000081525082606001819052508160036000868152602001908152602001600020600082015181600001556020820151816001019080519060200190613003929190614bc3565b5060408201518160020155606082015181600301908051906020019061302a929190614bc3565b506080820151816004019080519060200190613047929190614bc3565b5060a08201518160050160006101000a81548173ffffffffffffffffffffffffffffffffffffffff021916908373ffffffffffffffffffffffffffffffffffffffff1602179055509050507ff83d4a75ac129aca072a95ad913a5800f6410f3dcc9adda5975c9d883ea72cc28260000151836020015183600001518633604051808681526020018060200185815260200180602001806020018573ffffffffffffffffffffffffffffffffffffffff1673ffffffffffffffffffffffffffffffffffffffff168152602001848103845288818151815260200191508051906020019080838360005b8381101561314a57808201518184015260208101905061312f565b50505050905090810190601f1680156131775780820380516001836020036101000a031916815260200191505b50848103835260088152602001807f72656a6563746564000000000000000000000000000000000000000000000000815250602001848103825286818151815260200191508051906020019080838360005b838110156131e45780820151818401526020810190506131c9565b50505050905090810190601f1680156132115780820380516001836020036101000a031916815260200191505b509850505050505050505060405180910390a150505050565b6003602052806000526040600020600091509050806000015490806001018054600181600116156101000203166002900480601f0160208091040260200160405190810160405280929190818152602001828054600181600116156101000203166002900480156132dc5780601f106132b1576101008083540402835291602001916132dc565b820191906000526020600020905b8154815290600101906020018083116132bf57829003601f168201915b505050505090806002015490806003018054600181600116156101000203166002900480601f0160208091040260200160405190810160405280929190818152602001828054600181600116156101000203166002900480156133805780601f1061335557610100808354040283529160200191613380565b820191906000526020600020905b81548152906001019060200180831161336357829003601f168201915b505050505090806004018054600181600116156101000203166002900480601f01602080910402602001604051908101604052809291908181526020018280546001816001161561010002031660029004801561341e5780601f106133f35761010080835404028352916020019161341e565b820191906000526020600020905b81548152906001019060200180831161340157829003601f168201915b5050505050908060050160009054906101000a900473ffffffffffffffffffffffffffffffffffffffff16905086565b60008211801561346057506001548211155b61346957600080fd5b613471614b41565b600360008481526020019081526020016000206040518060c001604052908160008201548152602001600182018054600181600116156101000203166002900480601f0160208091040260200160405190810160405280929190818152602001828054600181600116156101000203166002900480156135325780601f1061350757610100808354040283529160200191613532565b820191906000526020600020905b81548152906001019060200180831161351557829003601f168201915b5050505050815260200160028201548152602001600382018054600181600116156101000203166002900480601f0160208091040260200160405190810160405280929190818152602001828054600181600116156101000203166002900480156135de5780601f106135b3576101008083540402835291602001916135de565b820191906000526020600020905b8154815290600101906020018083116135c157829003601f168201915b50505050508152602001600482018054600181600116156101000203166002900480601f0160208091040260200160405190810160405280929190818152602001828054600181600116156101000203166002900480156136805780601f1061365557610100808354040283529160200191613680565b820191906000526020600020905b81548152906001019060200180831161366357829003601f168201915b505050505081526020016005820160009054906101000a900473ffffffffffffffffffffffffffffffffffffffff1673ffffffffffffffffffffffffffffffffffffffff1673ffffffffffffffffffffffffffffffffffffffff168152505090506136e9614b8d565b60046000836040015181526020019081526020016000206040518060c00160405290816000820154815260200160018201548152602001600282018054600181600116156101000203166002900480601f0160208091040260200160405190810160405280929190818152602001828054600181600116156101000203166002900480156137b85780601f1061378d576101008083540402835291602001916137b8565b820191906000526020600020905b81548152906001019060200180831161379b57829003601f168201915b50505050508152602001600382018054600181600116156101000203166002900480601f01602080910402602001604051908101604052809291908181526020018280546001816001161561010002031660029004801561385a5780601f1061382f5761010080835404028352916020019161385a565b820191906000526020600020905b81548152906001019060200180831161383d57829003601f168201915b50505050508152602001600482018054600181600116156101000203166002900480601f0160208091040260200160405190810160405280929190818152602001828054600181600116156101000203166002900480156138fc5780601f106138d1576101008083540402835291602001916138fc565b820191906000526020600020905b8154815290600101906020018083116138df57829003601f168201915b50505050508152602001600582018054600181600116156101000203166002900480601f01602080910402602001604051908101604052809291908181526020018280546001816001161561010002031660029004801561399e5780601f106139735761010080835404028352916020019161399e565b820191906000526020600020905b81548152906001019060200180831161398157829003601f168201915b50505050508152505090506040518060400160405280600781526020017f6772616e7465640000000000000000000000000000000000000000000000000081525082606001819052508160036000868152602001908152602001600020600082015181600001556020820151816001019080519060200190613a21929190614bc3565b50604082015181600201556060820151816003019080519060200190613a48929190614bc3565b506080820151816004019080519060200190613a65929190614bc3565b5060a08201518160050160006101000a81548173ffffffffffffffffffffffffffffffffffffffff021916908373ffffffffffffffffffffffffffffffffffffffff1602179055509050507f58dbeb9cbc4d40b9f39628c5a3333a2f1a966aae432fa6639c96c197162d3fed8260000151836020015183600001518633604051808681526020018060200185815260200180602001806020018573ffffffffffffffffffffffffffffffffffffffff1673ffffffffffffffffffffffffffffffffffffffff168152602001848103845288818151815260200191508051906020019080838360005b83811015613b68578082015181840152602081019050613b4d565b50505050905090810190601f168015613b955780820380516001836020036101000a031916815260200191505b50848103835260078152602001807f6772616e74656400000000000000000000000000000000000000000000000000815250602001848103825286818151815260200191508051906020019080838360005b83811015613c02578082015181840152602081019050613be7565b50505050905090810190601f168015613c2f5780820380516001836020036101000a031916815260200191505b509850505050505050505060405180910390a150505050565b6000865111613c5657600080fd5b6000855111613c6457600080fd5b6000845111613c7257600080fd5b6000835111613c8057600080fd5b6000825111613c8e57600080fd5b6001600081548092919060010191905055506002600081548092919060010191905055506040518060c00160405280600254815260200160015481526020018681526020018581526020018481526020018381525060046000600254815260200190815260200160002060008201518160000155602082015181600101556040820151816002019080519060200190613d28929190614bc3565b506060820151816003019080519060200190613d45929190614bc3565b506080820151816004019080519060200190613d62929190614bc3565b5060a0820151816005019080519060200190613d7f929190614bc3565b509050507f1b671bbb64565da7b45ceaf6219bba3fd668049056ae524576932af0d7834f04600254600154878787876040518087815260200186815260200180602001806020018060200180602001858103855289818151815260200191508051906020019080838360005b83811015613e06578082015181840152602081019050613deb565b50505050905090810190601f168015613e335780820380516001836020036101000a031916815260200191505b50858103845288818151815260200191508051906020019080838360005b83811015613e6c578082015181840152602081019050613e51565b50505050905090810190601f168015613e995780820380516001836020036101000a031916815260200191505b50858103835287818151815260200191508051906020019080838360005b83811015613ed2578082015181840152602081019050613eb7565b50505050905090810190601f168015613eff5780820380516001836020036101000a031916815260200191505b50858103825286818151815260200191508051906020019080838360005b83811015613f38578082015181840152602081019050613f1d565b50505050905090810190601f168015613f655780820380516001836020036101000a031916815260200191505b509a505050505050505050505060405180910390a16040518060c00160405280600154815260200187815260200160025481526020016040518060400160405280600781526020017f637265617465640000000000000000000000000000000000000000000000000081525081526020018281526020013373ffffffffffffffffffffffffffffffffffffffff16815250600360006001548152602001908152602001600020600082015181600001556020820151816001019080519060200190614031929190614bc3565b50604082015181600201556060820151816003019080519060200190614058929190614bc3565b506080820151816004019080519060200190614075929190614bc3565b5060a08201518160050160006101000a81548173ffffffffffffffffffffffffffffffffffffffff021916908373ffffffffffffffffffffffffffffffffffffffff1602179055509050507f0ef03d65558316611b793a11377006b8fa251da66e5528a724d893e2ed81c066600154876002548433604051808681526020018060200185815260200180602001806020018573ffffffffffffffffffffffffffffffffffffffff1673ffffffffffffffffffffffffffffffffffffffff168152602001848103845288818151815260200191508051906020019080838360005b83811015614170578082015181840152602081019050614155565b50505050905090810190601f16801561419d5780820380516001836020036101000a031916815260200191505b50848103835260078152602001807f6372656174656400000000000000000000000000000000000000000000000000815250602001848103825286818151815260200191508051906020019080838360005b8381101561420a5780820151818401526020810190506141ef565b50505050905090810190601f1680156142375780820380516001836020036101000a031916815260200191505b509850505050505050505060405180910390a1505050505050565b60015481565b6000816040516020018082805190602001908083835b60208310614291578051825260208201915060208101905060208303925061426e565b6001836020036101000a03801982511681845116808217855250505050505090500191505060405160208183030381529060405280519060200120836040516020018082805190602001908083835b6020831061430357805182526020820191506020810190506020830392506142e0565b6001836020036101000a0380198251168184511680821785525050505050509050019150506040516020818303038152906040528051906020012014905092915050565b60008211801561435957506001548211155b61436257600080fd5b61436a614b41565b600360008481526020019081526020016000206040518060c001604052908160008201548152602001600182018054600181600116156101000203166002900480601f01602080910402602001604051908101604052809291908181526020018280546001816001161561010002031660029004801561442b5780601f106144005761010080835404028352916020019161442b565b820191906000526020600020905b81548152906001019060200180831161440e57829003601f168201915b5050505050815260200160028201548152602001600382018054600181600116156101000203166002900480601f0160208091040260200160405190810160405280929190818152602001828054600181600116156101000203166002900480156144d75780601f106144ac576101008083540402835291602001916144d7565b820191906000526020600020905b8154815290600101906020018083116144ba57829003601f168201915b50505050508152602001600482018054600181600116156101000203166002900480601f0160208091040260200160405190810160405280929190818152602001828054600181600116156101000203166002900480156145795780601f1061454e57610100808354040283529160200191614579565b820191906000526020600020905b81548152906001019060200180831161455c57829003601f168201915b505050505081526020016005820160009054906101000a900473ffffffffffffffffffffffffffffffffffffffff1673ffffffffffffffffffffffffffffffffffffffff1673ffffffffffffffffffffffffffffffffffffffff168152505090506145e2614b8d565b60046000836040015181526020019081526020016000206040518060c00160405290816000820154815260200160018201548152602001600282018054600181600116156101000203166002900480601f0160208091040260200160405190810160405280929190818152602001828054600181600116156101000203166002900480156146b15780601f10614686576101008083540402835291602001916146b1565b820191906000526020600020905b81548152906001019060200180831161469457829003601f168201915b50505050508152602001600382018054600181600116156101000203166002900480601f0160208091040260200160405190810160405280929190818152602001828054600181600116156101000203166002900480156147535780601f1061472857610100808354040283529160200191614753565b820191906000526020600020905b81548152906001019060200180831161473657829003601f168201915b50505050508152602001600482018054600181600116156101000203166002900480601f0160208091040260200160405190810160405280929190818152602001828054600181600116156101000203166002900480156147f55780601f106147ca576101008083540402835291602001916147f5565b820191906000526020600020905b8154815290600101906020018083116147d857829003601f168201915b50505050508152602001600582018054600181600116156101000203166002900480601f0160208091040260200160405190810160405280929190818152602001828054600181600116156101000203166002900480156148975780601f1061486c57610100808354040283529160200191614897565b820191906000526020600020905b81548152906001019060200180831161487a57829003601f168201915b50505050508152505090506040518060400160405280600781526020017f72656e65776564000000000000000000000000000000000000000000000000008152508260600181905250816003600086815260200190815260200160002060008201518160000155602082015181600101908051906020019061491a929190614bc3565b50604082015181600201556060820151816003019080519060200190614941929190614bc3565b50608082015181600401908051906020019061495e929190614bc3565b5060a08201518160050160006101000a81548173ffffffffffffffffffffffffffffffffffffffff021916908373ffffffffffffffffffffffffffffffffffffffff1602179055509050507f0f60b91a7c30ace227bdd6aa6bacc80e3b14989c5bb5a689a3a84c309f238af18260000151836020015183600001518633604051808681526020018060200185815260200180602001806020018573ffffffffffffffffffffffffffffffffffffffff1673ffffffffffffffffffffffffffffffffffffffff168152602001848103845288818151815260200191508051906020019080838360005b83811015614a61578082015181840152602081019050614a46565b50505050905090810190601f168015614a8e5780820380516001836020036101000a031916815260200191505b50848103835260078152602001807f72656e6577656400000000000000000000000000000000000000000000000000815250602001848103825286818151815260200191508051906020019080838360005b83811015614afb578082015181840152602081019050614ae0565b50505050905090810190601f168015614b285780820380516001836020036101000a031916815260200191505b509850505050505050505060405180910390a150505050565b6040518060c001604052806000815260200160608152602001600081526020016060815260200160608152602001600073ffffffffffffffffffffffffffffffffffffffff1681525090565b6040518060c001604052806000815260200160008152602001606081526020016060815260200160608152602001606081525090565b828054600181600116156101000203166002900490600052602060002090601f016020900481019282601f10614c0457805160ff1916838001178555614c32565b82800160010185558215614c32579182015b82811115614c31578251825591602001919060010190614c16565b5b509050614c3f9190614c43565b5090565b614c6591905b80821115614c61576000816000905550600101614c49565b5090565b9056fea265627a7a72315820d4d5922d3451c7fbff2069e558fb4fb471c3edacd5ba5f20f218c15065089d3264736f6c63430005100032",
  "source": "pragma solidity >=0.4.16 <0.7.0;\r\n//pragma experimental ABIEncoderV2;\r\n\r\ncontract SocialNetwork {\r\n    // State variable\r\n    string public name;\r\n    uint public appCount = 0;\r\n    uint public docCount =0;\r\n\r\n    mapping(uint => Application) public apps;\r\n    mapping(uint => Document) public docs;\r\n    \r\n    struct Document {\r\n        uint id;\r\n        uint appId;\r\n        string aerodromeManual;\r\n        string licensingFee;\r\n        string CARcompliance;\r\n        string exceptionsDoc;\r\n    }\r\n\r\n    struct Application{\r\n        uint appId;\r\n        string airportCode;\r\n        uint id;\r\n        string state;\r\n        string timestamp;\r\n        address payable author;\r\n    }\r\n\r\n    event AppCreated(\r\n        uint appId,\r\n        string airportCode,\r\n        uint id,\r\n        string state,\r\n        string timestamp,\r\n        address payable author\r\n    );\r\n\r\n    event DocCreated(\r\n       uint id,\r\n        uint appId,\r\n        string aerodromeManual,\r\n        string licensingFee,\r\n        string CARcompliance,\r\n        string exceptionsDoc\r\n    );\r\n\r\n    event DocIdUpdated(\r\n       uint id,\r\n        uint appId,\r\n        string aerodromeManual,\r\n        string licensingFee,\r\n        string CARcompliance,\r\n        string exceptionsDoc\r\n    );\r\n\r\n    event AppIssued(\r\n        uint appId,\r\n        string airportCode,\r\n        uint id,\r\n        string state,\r\n        string timestamp,\r\n        address payable author\r\n    );\r\n\r\nevent AppAssigned(\r\n        uint appId,\r\n        string airportCode,\r\n        uint id,\r\n        string state,\r\n        string timestamp,\r\n        address payable author\r\n    );\r\n    \r\n event AppApproved(\r\n    uint appId,\r\n    string airportCode,\r\n    uint id,\r\n    string state,\r\n    string timestamp,\r\n    address payable author\r\n);\r\n\r\n event AppRejected(\r\n    uint appId,\r\n    string airportCode,\r\n    uint id,\r\n    string state,\r\n    string timestamp,\r\n    address payable author\r\n);\r\n\r\n event AppGranted(\r\n    uint appId,\r\n    string airportCode,\r\n    uint id,\r\n    string state,\r\n    string timestamp,\r\n    address payable author\r\n);\r\n\r\n event AppRenewed(\r\n    uint appId,\r\n    string airportCode,\r\n    uint id,\r\n    string state,\r\n    string timestamp,\r\n    address payable author\r\n);\r\n    // Constructor function\r\n    constructor () public {\r\n        name = \"Airport Database\";\r\n    }\r\n\r\n    function compareStrings (string memory a, string memory b) public pure returns (bool) {\r\n        return (keccak256(abi.encodePacked((a))) == keccak256(abi.encodePacked((b))) );\r\n\r\n       }\r\n\r\n   function createApp(string memory airportCode, string memory doc1, string memory doc2, string memory doc3,string memory doc4, string memory timestamp) \r\n   public {\r\n    // Compulsory requires an airportcode\r\n    require(bytes(airportCode).length > 0);\r\n    require(bytes(doc1).length>0);\r\n    require(bytes(doc2).length>0);\r\n    require(bytes(doc3).length>0);\r\n    require(bytes(doc4).length>0);\r\n    // Increment the application count\r\n    appCount ++;\r\n    docCount ++;\r\n    //Create the document first\r\n    docs[docCount] = Document(docCount,appCount,doc1,doc2,doc3,doc4);\r\n    emit DocCreated(docCount,appCount,doc1,doc2,doc3,doc4);\r\n    // Create the application\r\n    apps[appCount] = Application(appCount,airportCode,docCount,\"created\",timestamp,msg.sender);\r\n    // Trigger event\r\n    emit AppCreated(appCount,airportCode,docCount,\"created\",timestamp,msg.sender);\r\n}\r\n\r\n function issueApp(uint _id, string memory timestamp) public {\r\n    //Require valid ID\r\n    require(_id > 0 && _id <= appCount);\r\n    //fetch the application and document \r\n    Application memory app = apps[_id];\r\n    Document memory doc = docs[app.id];\r\n        // If the state of the application is created only then the further state change will taake place\r\n        // if(compareStrings(app.state,\"created\")){\r\n            //Change the state of the application\r\n             app.state=\"issued\";\r\n            //Update the application\r\n             apps[_id] = app;\r\n            //Trigger event\r\n             emit AppIssued(app.appId,app.airportCode,doc.id,\"issued\",timestamp,msg.sender);\r\n        // }\r\n}\r\n\r\n\r\nfunction assignApp(uint _id, string memory timestamp) public {\r\n   //Require valid ID\r\n    require(_id > 0 && _id <= appCount);\r\n    //fetch the application and document \r\n    Application memory app = apps[_id];\r\n    Document memory doc = docs[app.id];\r\n        // If the state of the application is issued only then the further state change will take place\r\n       // if(compareStrings(app.state,\"issued\")){\r\n            //Change the state of the application\r\n             app.state=\"assigned\";\r\n            //Update the application\r\n             apps[_id] = app;\r\n            //Trigger event\r\n             emit AppAssigned(app.appId,app.airportCode,doc.id,\"assigned\",timestamp,msg.sender);\r\n       // }\r\n}\r\n\r\nfunction approveApp(uint _id, string memory timestamp) public {\r\n   //Require valid ID\r\n    require(_id > 0 && _id <= appCount);\r\n    //fetch the application and document \r\n    Application memory app = apps[_id];\r\n    Document memory doc = docs[app.id];\r\n        // If the state of the application is assigned only then the further state change will take place\r\n        //if(compareStrings(app.state,\"assigned\")){\r\n            //Change the state of the application\r\n             app.state=\"approved\";\r\n            //Update the application\r\n             apps[_id] = app;\r\n            //Trigger event\r\n             emit AppApproved(app.appId,app.airportCode,doc.id,\"approved\",timestamp,msg.sender);\r\n       // }\r\n}\r\n\r\nfunction rejectApp(uint _id, string memory timestamp) public {\r\n   //Require valid ID\r\n    require(_id > 0 && _id <= appCount);\r\n    //fetch the application and document \r\n    Application memory app = apps[_id];\r\n    Document memory doc = docs[app.id];\r\n        // If the state of the application is assigned only then the further state change will take place\r\n        //if(compareStrings(app.state,\"assigned\")){\r\n            //Change the state of the application\r\n             app.state=\"rejected\";\r\n            //Update the application\r\n             apps[_id] = app;\r\n            //Trigger event\r\n             emit AppRejected(app.appId,app.airportCode,doc.id,\"rejected\",timestamp,msg.sender);\r\n       // }\r\n}\r\n\r\nfunction renewApp(uint _id, string memory timestamp) public {\r\n   //Require valid ID\r\n    require(_id > 0 && _id <= appCount);\r\n    //fetch the application and document \r\n    Application memory app = apps[_id];\r\n    Document memory doc = docs[app.id];\r\n        // validation of state is not used here because this function is used twice. \r\n            //Change the state of the application\r\n             app.state=\"renewed\";\r\n            //Update the application\r\n             apps[_id] = app;\r\n            //Trigger event\r\n             emit AppRenewed(app.appId,app.airportCode,doc.id,\"renewed\",timestamp,msg.sender);\r\n        }\r\n\r\nfunction grantApp(uint _id, string memory timestamp) public {\r\n    //Require valid ID\r\n    require(_id > 0 && _id <= appCount);\r\n    //fetch the application and document \r\n    Application memory app = apps[_id];\r\n    Document memory doc = docs[app.id];\r\n        // If the state of the application is assigned only then the further state change will take place\r\n       // if(compareStrings(app.state,\"approved\")){\r\n            //Change the state of the application\r\n             app.state=\"granted\";\r\n            //Update the application\r\n             apps[_id] = app;\r\n            //Trigger event\r\n             emit AppGranted(app.appId,app.airportCode,doc.id,\"granted\",timestamp,msg.sender);\r\n        //}\r\n}\r\n\r\n\r\n\r\n}\r\n",
  "sourcePath": "D:/Suhaib/Programs/DAPPS/SIH - 2020 Knowledge Management System/client/src/contracts/SocialNetwork.sol",
  "compiler": {
    "name": "solc",
    "version": "0.5.16+commit.9c3226ce.Emscripten.clang"
  },
  "schemaVersion": "3.2.2",
  "updatedAt": "2020-08-02T01:04:00.830Z",
  "devdoc": {
    "methods": {}
  },
  "userdoc": {
    "methods": {}
  }
}