{
  "contractName": "SocialNetwork",
  "abi": [
    {
      "constant": true,
      "inputs": [],
      "name": "name",
      "outputs": [
        {
          "name": "",
          "type": "string"
        }
      ],
      "payable": false,
      "stateMutability": "view",
      "type": "function",
      "signature": "0x06fdde03"
    },
    {
      "constant": true,
      "inputs": [
        {
          "name": "",
          "type": "uint256"
        }
      ],
      "name": "docs",
      "outputs": [
        {
          "name": "id",
          "type": "uint256"
        },
        {
          "name": "appId",
          "type": "uint256"
        },
        {
          "name": "aerodromeManual",
          "type": "string"
        },
        {
          "name": "licensingFee",
          "type": "string"
        },
        {
          "name": "CARcompliance",
          "type": "string"
        },
        {
          "name": "exceptionsDoc",
          "type": "string"
        }
      ],
      "payable": false,
      "stateMutability": "view",
      "type": "function",
      "signature": "0x23389c5a"
    },
    {
      "constant": true,
      "inputs": [],
      "name": "docCount",
      "outputs": [
        {
          "name": "",
          "type": "uint256"
        }
      ],
      "payable": false,
      "stateMutability": "view",
      "type": "function",
      "signature": "0x4c4dc6e0"
    },
    {
      "constant": true,
      "inputs": [
        {
          "name": "",
          "type": "uint256"
        }
      ],
      "name": "apps",
      "outputs": [
        {
          "name": "appId",
          "type": "uint256"
        },
        {
          "name": "airportCode",
          "type": "string"
        },
        {
          "name": "id",
          "type": "uint256"
        },
        {
          "name": "state",
          "type": "string"
        },
        {
          "name": "timestamp",
          "type": "string"
        },
        {
          "name": "previousStateId",
          "type": "uint256"
        },
        {
          "name": "author",
          "type": "address"
        }
      ],
      "payable": false,
      "stateMutability": "view",
      "type": "function",
      "signature": "0x61acc37e"
    },
    {
      "constant": true,
      "inputs": [],
      "name": "appCount",
      "outputs": [
        {
          "name": "",
          "type": "uint256"
        }
      ],
      "payable": false,
      "stateMutability": "view",
      "type": "function",
      "signature": "0xb55ca2c3"
    },
    {
      "inputs": [],
      "payable": false,
      "stateMutability": "nonpayable",
      "type": "constructor",
      "signature": "constructor"
    },
    {
      "anonymous": false,
      "inputs": [
        {
          "indexed": false,
          "name": "appId",
          "type": "uint256"
        },
        {
          "indexed": false,
          "name": "airportCode",
          "type": "string"
        },
        {
          "indexed": false,
          "name": "id",
          "type": "uint256"
        },
        {
          "indexed": false,
          "name": "state",
          "type": "string"
        },
        {
          "indexed": false,
          "name": "timestamp",
          "type": "string"
        },
        {
          "indexed": false,
          "name": "previousStateId",
          "type": "uint256"
        },
        {
          "indexed": false,
          "name": "author",
          "type": "address"
        }
      ],
      "name": "AppCreated",
      "type": "event",
      "signature": "0x8309da5550621eb55fe471efad46bfff9362ddefe248ffb8634d1db2a251ec45"
    },
    {
      "anonymous": false,
      "inputs": [
        {
          "indexed": false,
          "name": "id",
          "type": "uint256"
        },
        {
          "indexed": false,
          "name": "appId",
          "type": "uint256"
        },
        {
          "indexed": false,
          "name": "aerodromeManual",
          "type": "string"
        },
        {
          "indexed": false,
          "name": "licensingFee",
          "type": "string"
        },
        {
          "indexed": false,
          "name": "CARcompliance",
          "type": "string"
        },
        {
          "indexed": false,
          "name": "exceptionsDoc",
          "type": "string"
        }
      ],
      "name": "DocCreated",
      "type": "event",
      "signature": "0x1b671bbb64565da7b45ceaf6219bba3fd668049056ae524576932af0d7834f04"
    },
    {
      "anonymous": false,
      "inputs": [
        {
          "indexed": false,
          "name": "id",
          "type": "uint256"
        },
        {
          "indexed": false,
          "name": "appId",
          "type": "uint256"
        },
        {
          "indexed": false,
          "name": "aerodromeManual",
          "type": "string"
        },
        {
          "indexed": false,
          "name": "licensingFee",
          "type": "string"
        },
        {
          "indexed": false,
          "name": "CARcompliance",
          "type": "string"
        },
        {
          "indexed": false,
          "name": "exceptionsDoc",
          "type": "string"
        }
      ],
      "name": "DocIdUpdated",
      "type": "event",
      "signature": "0x9d50b47023a2f7f31702ba419b0bd9b107b9a68a714037da3b56e168e84a5134"
    },
    {
      "anonymous": false,
      "inputs": [
        {
          "indexed": false,
          "name": "appId",
          "type": "uint256"
        },
        {
          "indexed": false,
          "name": "airportCode",
          "type": "string"
        },
        {
          "indexed": false,
          "name": "id",
          "type": "uint256"
        },
        {
          "indexed": false,
          "name": "state",
          "type": "string"
        },
        {
          "indexed": false,
          "name": "timestamp",
          "type": "string"
        },
        {
          "indexed": false,
          "name": "previousStateId",
          "type": "uint256"
        },
        {
          "indexed": false,
          "name": "author",
          "type": "address"
        }
      ],
      "name": "AppIssued",
      "type": "event",
      "signature": "0x27e79f34546ecbf364d52462c47a86462d561a87c25b51b0b9ce9c8197b5da2e"
    },
    {
      "anonymous": false,
      "inputs": [
        {
          "indexed": false,
          "name": "appId",
          "type": "uint256"
        },
        {
          "indexed": false,
          "name": "airportCode",
          "type": "string"
        },
        {
          "indexed": false,
          "name": "id",
          "type": "uint256"
        },
        {
          "indexed": false,
          "name": "state",
          "type": "string"
        },
        {
          "indexed": false,
          "name": "timestamp",
          "type": "string"
        },
        {
          "indexed": false,
          "name": "previousStateId",
          "type": "uint256"
        },
        {
          "indexed": false,
          "name": "author",
          "type": "address"
        }
      ],
      "name": "AppAssigned",
      "type": "event",
      "signature": "0xb7f2490a8c3de37771dbfa1b0506d61e414d96337e9ec861de96fe6ab7db410f"
    },
    {
      "anonymous": false,
      "inputs": [
        {
          "indexed": false,
          "name": "appId",
          "type": "uint256"
        },
        {
          "indexed": false,
          "name": "airportCode",
          "type": "string"
        },
        {
          "indexed": false,
          "name": "id",
          "type": "uint256"
        },
        {
          "indexed": false,
          "name": "state",
          "type": "string"
        },
        {
          "indexed": false,
          "name": "timestamp",
          "type": "string"
        },
        {
          "indexed": false,
          "name": "previousStateId",
          "type": "uint256"
        },
        {
          "indexed": false,
          "name": "author",
          "type": "address"
        }
      ],
      "name": "AppApproved",
      "type": "event",
      "signature": "0x56e438642b0922b0911726a419170e5828ce3b7e70ad30a1db20adba144b717a"
    },
    {
      "anonymous": false,
      "inputs": [
        {
          "indexed": false,
          "name": "appId",
          "type": "uint256"
        },
        {
          "indexed": false,
          "name": "airportCode",
          "type": "string"
        },
        {
          "indexed": false,
          "name": "id",
          "type": "uint256"
        },
        {
          "indexed": false,
          "name": "state",
          "type": "string"
        },
        {
          "indexed": false,
          "name": "timestamp",
          "type": "string"
        },
        {
          "indexed": false,
          "name": "previousStateId",
          "type": "uint256"
        },
        {
          "indexed": false,
          "name": "author",
          "type": "address"
        }
      ],
      "name": "AppRejected",
      "type": "event",
      "signature": "0x0fad56701be0731b1d95dd39f115990e3de461301bdeef60ace2593e9a798ebe"
    },
    {
      "anonymous": false,
      "inputs": [
        {
          "indexed": false,
          "name": "appId",
          "type": "uint256"
        },
        {
          "indexed": false,
          "name": "airportCode",
          "type": "string"
        },
        {
          "indexed": false,
          "name": "id",
          "type": "uint256"
        },
        {
          "indexed": false,
          "name": "state",
          "type": "string"
        },
        {
          "indexed": false,
          "name": "timestamp",
          "type": "string"
        },
        {
          "indexed": false,
          "name": "previousStateId",
          "type": "uint256"
        },
        {
          "indexed": false,
          "name": "author",
          "type": "address"
        }
      ],
      "name": "AppGranted",
      "type": "event",
      "signature": "0x850fdb7ae8b175a3d0f5b6ed616af95c7d5cfd79e9c0278dfa06b1618f4498a6"
    },
    {
      "anonymous": false,
      "inputs": [
        {
          "indexed": false,
          "name": "appId",
          "type": "uint256"
        },
        {
          "indexed": false,
          "name": "airportCode",
          "type": "string"
        },
        {
          "indexed": false,
          "name": "id",
          "type": "uint256"
        },
        {
          "indexed": false,
          "name": "state",
          "type": "string"
        },
        {
          "indexed": false,
          "name": "timestamp",
          "type": "string"
        },
        {
          "indexed": false,
          "name": "previousStateId",
          "type": "uint256"
        },
        {
          "indexed": false,
          "name": "author",
          "type": "address"
        }
      ],
      "name": "AppRenewed",
      "type": "event",
      "signature": "0x9cfe9df8d3f4a338c6723b2b4cb50afb85f0eddb7bdd320162e69a2c51cb0548"
    },
    {
      "constant": false,
      "inputs": [
        {
          "name": "airportCode",
          "type": "string"
        },
        {
          "name": "doc1",
          "type": "string"
        },
        {
          "name": "doc2",
          "type": "string"
        },
        {
          "name": "doc3",
          "type": "string"
        },
        {
          "name": "doc4",
          "type": "string"
        },
        {
          "name": "timestamp",
          "type": "string"
        }
      ],
      "name": "createApp",
      "outputs": [],
      "payable": false,
      "stateMutability": "nonpayable",
      "type": "function",
      "signature": "0xaef5108f"
    },
    {
      "constant": false,
      "inputs": [
        {
          "name": "_id",
          "type": "uint256"
        },
        {
          "name": "timestamp",
          "type": "string"
        }
      ],
      "name": "issueApp",
      "outputs": [],
      "payable": false,
      "stateMutability": "nonpayable",
      "type": "function",
      "signature": "0x365f8b36"
    },
    {
      "constant": false,
      "inputs": [
        {
          "name": "_id",
          "type": "uint256"
        },
        {
          "name": "timestamp",
          "type": "string"
        }
      ],
      "name": "assignApp",
      "outputs": [],
      "payable": false,
      "stateMutability": "nonpayable",
      "type": "function",
      "signature": "0x138cfd47"
    },
    {
      "constant": false,
      "inputs": [
        {
          "name": "_id",
          "type": "uint256"
        },
        {
          "name": "timestamp",
          "type": "string"
        }
      ],
      "name": "approveApp",
      "outputs": [],
      "payable": false,
      "stateMutability": "nonpayable",
      "type": "function",
      "signature": "0x3ffddc9a"
    },
    {
      "constant": false,
      "inputs": [
        {
          "name": "_id",
          "type": "uint256"
        },
        {
          "name": "timestamp",
          "type": "string"
        }
      ],
      "name": "rejectApp",
      "outputs": [],
      "payable": false,
      "stateMutability": "nonpayable",
      "type": "function",
      "signature": "0x5d4c6d22"
    },
    {
      "constant": false,
      "inputs": [
        {
          "name": "_id",
          "type": "uint256"
        },
        {
          "name": "timestamp",
          "type": "string"
        }
      ],
      "name": "renewApp",
      "outputs": [],
      "payable": false,
      "stateMutability": "nonpayable",
      "type": "function",
      "signature": "0xee55ba3a"
    },
    {
      "constant": false,
      "inputs": [
        {
          "name": "_id",
          "type": "uint256"
        },
        {
          "name": "timestamp",
          "type": "string"
        }
      ],
      "name": "grantApp",
      "outputs": [],
      "payable": false,
      "stateMutability": "nonpayable",
      "type": "function",
      "signature": "0x989b1594"
    }
  ],
  "bytecode": "0x6080604052600060015560006002553480156200001b57600080fd5b506040805190810160405280601081526020017f416972706f727420446174616261736500000000000000000000000000000000815250600090805190602001906200006992919062000070565b506200011f565b828054600181600116156101000203166002900490600052602060002090601f016020900481019282601f10620000b357805160ff1916838001178555620000e4565b82800160010185558215620000e4579182015b82811115620000e3578251825591602001919060010190620000c6565b5b509050620000f39190620000f7565b5090565b6200011c91905b8082111562000118576000816000905550600101620000fe565b5090565b90565b615fba806200012f6000396000f3fe6080604052600436106100ba576000357c0100000000000000000000000000000000000000000000000000000000900463ffffffff16806306fdde03146100bf578063138cfd471461014f57806323389c5a14610221578063365f8b36146104275780633ffddc9a146104f95780634c4dc6e0146105cb5780635d4c6d22146105f657806361acc37e146106c8578063989b15941461089c578063aef5108f1461096e578063b55ca2c314610d29578063ee55ba3a14610d54575b600080fd5b3480156100cb57600080fd5b506100d4610e26565b6040518080602001828103825283818151815260200191508051906020019080838360005b838110156101145780820151818401526020810190506100f9565b50505050905090810190601f1680156101415780820380516001836020036101000a031916815260200191505b509250505060405180910390f35b34801561015b57600080fd5b5061021f6004803603604081101561017257600080fd5b81019080803590602001909291908035906020019064010000000081111561019957600080fd5b8201836020820111156101ab57600080fd5b803590602001918460018302840111640100000000831117156101cd57600080fd5b91908080601f016020809104026020016040519081016040528093929190818152602001838380828437600081840152601f19601f820116905080830192505050505050509192919290505050610ec4565b005b34801561022d57600080fd5b5061025a6004803603602081101561024457600080fd5b8101908080359060200190929190505050611a31565b6040518087815260200186815260200180602001806020018060200180602001858103855289818151815260200191508051906020019080838360005b838110156102b2578082015181840152602081019050610297565b50505050905090810190601f1680156102df5780820380516001836020036101000a031916815260200191505b50858103845288818151815260200191508051906020019080838360005b838110156103185780820151818401526020810190506102fd565b50505050905090810190601f1680156103455780820380516001836020036101000a031916815260200191505b50858103835287818151815260200191508051906020019080838360005b8381101561037e578082015181840152602081019050610363565b50505050905090810190601f1680156103ab5780820380516001836020036101000a031916815260200191505b50858103825286818151815260200191508051906020019080838360005b838110156103e45780820151818401526020810190506103c9565b50505050905090810190601f1680156104115780820380516001836020036101000a031916815260200191505b509a505050505050505050505060405180910390f35b34801561043357600080fd5b506104f76004803603604081101561044a57600080fd5b81019080803590602001909291908035906020019064010000000081111561047157600080fd5b82018360208201111561048357600080fd5b803590602001918460018302840111640100000000831117156104a557600080fd5b91908080601f016020809104026020016040519081016040528093929190818152602001838380828437600081840152601f19601f820116905080830192505050505050509192919290505050611ccd565b005b34801561050557600080fd5b506105c96004803603604081101561051c57600080fd5b81019080803590602001909291908035906020019064010000000081111561054357600080fd5b82018360208201111561055557600080fd5b8035906020019184600183028401116401000000008311171561057757600080fd5b91908080601f016020809104026020016040519081016040528093929190818152602001838380828437600081840152601f19601f820116905080830192505050505050509192919290505050612842565b005b3480156105d757600080fd5b506105e06133af565b6040518082815260200191505060405180910390f35b34801561060257600080fd5b506106c66004803603604081101561061957600080fd5b81019080803590602001909291908035906020019064010000000081111561064057600080fd5b82018360208201111561065257600080fd5b8035906020019184600183028401116401000000008311171561067457600080fd5b91908080601f016020809104026020016040519081016040528093929190818152602001838380828437600081840152601f19601f8201169050808301925050505050505091929192905050506133b5565b005b3480156106d457600080fd5b50610701600480360360208110156106eb57600080fd5b8101908080359060200190929190505050613f22565b604051808881526020018060200187815260200180602001806020018681526020018573ffffffffffffffffffffffffffffffffffffffff1673ffffffffffffffffffffffffffffffffffffffff16815260200184810384528a818151815260200191508051906020019080838360005b8381101561078d578082015181840152602081019050610772565b50505050905090810190601f1680156107ba5780820380516001836020036101000a031916815260200191505b50848103835288818151815260200191508051906020019080838360005b838110156107f35780820151818401526020810190506107d8565b50505050905090810190601f1680156108205780820380516001836020036101000a031916815260200191505b50848103825287818151815260200191508051906020019080838360005b8381101561085957808201518184015260208101905061083e565b50505050905090810190601f1680156108865780820380516001836020036101000a031916815260200191505b509a505050505050505050505060405180910390f35b3480156108a857600080fd5b5061096c600480360360408110156108bf57600080fd5b8101908080359060200190929190803590602001906401000000008111156108e657600080fd5b8201836020820111156108f857600080fd5b8035906020019184600183028401116401000000008311171561091a57600080fd5b91908080601f016020809104026020016040519081016040528093929190818152602001838380828437600081840152601f19601f82011690508083019250505050505050919291929050505061414c565b005b34801561097a57600080fd5b50610d27600480360360c081101561099157600080fd5b81019080803590602001906401000000008111156109ae57600080fd5b8201836020820111156109c057600080fd5b803590602001918460018302840111640100000000831117156109e257600080fd5b91908080601f016020809104026020016040519081016040528093929190818152602001838380828437600081840152601f19601f82011690508083019250505050505050919291929080359060200190640100000000811115610a4557600080fd5b820183602082011115610a5757600080fd5b80359060200191846001830284011164010000000083111715610a7957600080fd5b91908080601f016020809104026020016040519081016040528093929190818152602001838380828437600081840152601f19601f82011690508083019250505050505050919291929080359060200190640100000000811115610adc57600080fd5b820183602082011115610aee57600080fd5b80359060200191846001830284011164010000000083111715610b1057600080fd5b91908080601f016020809104026020016040519081016040528093929190818152602001838380828437600081840152601f19601f82011690508083019250505050505050919291929080359060200190640100000000811115610b7357600080fd5b820183602082011115610b8557600080fd5b80359060200191846001830284011164010000000083111715610ba757600080fd5b91908080601f016020809104026020016040519081016040528093929190818152602001838380828437600081840152601f19601f82011690508083019250505050505050919291929080359060200190640100000000811115610c0a57600080fd5b820183602082011115610c1c57600080fd5b80359060200191846001830284011164010000000083111715610c3e57600080fd5b91908080601f016020809104026020016040519081016040528093929190818152602001838380828437600081840152601f19601f82011690508083019250505050505050919291929080359060200190640100000000811115610ca157600080fd5b820183602082011115610cb357600080fd5b80359060200191846001830284011164010000000083111715610cd557600080fd5b91908080601f016020809104026020016040519081016040528093929190818152602001838380828437600081840152601f19601f820116905080830192505050505050509192919290505050614cb9565b005b348015610d3557600080fd5b50610d3e6152eb565b6040518082815260200191505060405180910390f35b348015610d6057600080fd5b50610e2460048036036040811015610d7757600080fd5b810190808035906020019092919080359060200190640100000000811115610d9e57600080fd5b820183602082011115610db057600080fd5b80359060200191846001830284011164010000000083111715610dd257600080fd5b91908080601f016020809104026020016040519081016040528093929190818152602001838380828437600081840152601f19601f8201169050808301925050505050505091929192905050506152f1565b005b60008054600181600116156101000203166002900480601f016020809104026020016040519081016040528092919081815260200182805460018160011615610100020316600290048015610ebc5780601f10610e9157610100808354040283529160200191610ebc565b820191906000526020600020905b815481529060010190602001808311610e9f57829003601f168201915b505050505081565b600082118015610ed657506001548211155b1515610ee157600080fd5b610ee9615e5e565b6003600084815260200190815260200160002060e0604051908101604052908160008201548152602001600182018054600181600116156101000203166002900480601f016020809104026020016040519081016040528092919081815260200182805460018160011615610100020316600290048015610fab5780601f10610f8057610100808354040283529160200191610fab565b820191906000526020600020905b815481529060010190602001808311610f8e57829003601f168201915b5050505050815260200160028201548152602001600382018054600181600116156101000203166002900480601f0160208091040260200160405190810160405280929190818152602001828054600181600116156101000203166002900480156110575780601f1061102c57610100808354040283529160200191611057565b820191906000526020600020905b81548152906001019060200180831161103a57829003601f168201915b50505050508152602001600482018054600181600116156101000203166002900480601f0160208091040260200160405190810160405280929190818152602001828054600181600116156101000203166002900480156110f95780601f106110ce576101008083540402835291602001916110f9565b820191906000526020600020905b8154815290600101906020018083116110dc57829003601f168201915b50505050508152602001600582015481526020016006820160009054906101000a900473ffffffffffffffffffffffffffffffffffffffff1673ffffffffffffffffffffffffffffffffffffffff1673ffffffffffffffffffffffffffffffffffffffff1681525050905061116c615eb2565b600460008360400151815260200190815260200160002060c060405190810160405290816000820154815260200160018201548152602001600282018054600181600116156101000203166002900480601f01602080910402602001604051908101604052809291908181526020018280546001816001161561010002031660029004801561123c5780601f106112115761010080835404028352916020019161123c565b820191906000526020600020905b81548152906001019060200180831161121f57829003601f168201915b50505050508152602001600382018054600181600116156101000203166002900480601f0160208091040260200160405190810160405280929190818152602001828054600181600116156101000203166002900480156112de5780601f106112b3576101008083540402835291602001916112de565b820191906000526020600020905b8154815290600101906020018083116112c157829003601f168201915b50505050508152602001600482018054600181600116156101000203166002900480601f0160208091040260200160405190810160405280929190818152602001828054600181600116156101000203166002900480156113805780601f1061135557610100808354040283529160200191611380565b820191906000526020600020905b81548152906001019060200180831161136357829003601f168201915b50505050508152602001600582018054600181600116156101000203166002900480601f0160208091040260200160405190810160405280929190818152602001828054600181600116156101000203166002900480156114225780601f106113f757610100808354040283529160200191611422565b820191906000526020600020905b81548152906001019060200180831161140557829003601f168201915b505050505081525050905060016000815480929190600101919050555060026000815480929190600101919050555060c060405190810160405280600254815260200160015481526020018260400151815260200182606001518152602001826080015181526020018260a00151815250600460006002548152602001908152602001600020600082015181600001556020820151816001015560408201518160020190805190602001906114d8929190615ee9565b5060608201518160030190805190602001906114f5929190615ee9565b506080820151816004019080519060200190611512929190615ee9565b5060a082015181600501908051906020019061152f929190615ee9565b509050507f1b671bbb64565da7b45ceaf6219bba3fd668049056ae524576932af0d7834f046002546001548360400151846060015185608001518660a001516040518087815260200186815260200180602001806020018060200180602001858103855289818151815260200191508051906020019080838360005b838110156115c65780820151818401526020810190506115ab565b50505050905090810190601f1680156115f35780820380516001836020036101000a031916815260200191505b50858103845288818151815260200191508051906020019080838360005b8381101561162c578082015181840152602081019050611611565b50505050905090810190601f1680156116595780820380516001836020036101000a031916815260200191505b50858103835287818151815260200191508051906020019080838360005b83811015611692578082015181840152602081019050611677565b50505050905090810190601f1680156116bf5780820380516001836020036101000a031916815260200191505b50858103825286818151815260200191508051906020019080838360005b838110156116f85780820151818401526020810190506116dd565b50505050905090810190601f1680156117255780820380516001836020036101000a031916815260200191505b509a505050505050505050505060405180910390a160e06040519081016040528060015481526020018360200151815260200160025481526020016040805190810160405280600881526020017f61737369676e656400000000000000000000000000000000000000000000000081525081526020018481526020018581526020013373ffffffffffffffffffffffffffffffffffffffff168152506003600060015481526020019081526020016000206000820151816000015560208201518160010190805190602001906117fc929190615ee9565b50604082015181600201556060820151816003019080519060200190611823929190615ee9565b506080820151816004019080519060200190611840929190615ee9565b5060a0820151816005015560c08201518160060160006101000a81548173ffffffffffffffffffffffffffffffffffffffff021916908373ffffffffffffffffffffffffffffffffffffffff1602179055509050507fb7f2490a8c3de37771dbfa1b0506d61e414d96337e9ec861de96fe6ab7db410f6001548360200151600254868833604051808781526020018060200186815260200180602001806020018681526020018573ffffffffffffffffffffffffffffffffffffffff1673ffffffffffffffffffffffffffffffffffffffff168152602001848103845289818151815260200191508051906020019080838360005b83811015611950578082015181840152602081019050611935565b50505050905090810190601f16801561197d5780820380516001836020036101000a031916815260200191505b50848103835260088152602001807f61737369676e6564000000000000000000000000000000000000000000000000815250602001848103825287818151815260200191508051906020019080838360005b838110156119ea5780820151818401526020810190506119cf565b50505050905090810190601f168015611a175780820380516001836020036101000a031916815260200191505b50995050505050505050505060405180910390a150505050565b6004602052806000526040600020600091509050806000015490806001015490806002018054600181600116156101000203166002900480601f016020809104026020016040519081016040528092919081815260200182805460018160011615610100020316600290048015611ae95780601f10611abe57610100808354040283529160200191611ae9565b820191906000526020600020905b815481529060010190602001808311611acc57829003601f168201915b505050505090806003018054600181600116156101000203166002900480601f016020809104026020016040519081016040528092919081815260200182805460018160011615610100020316600290048015611b875780601f10611b5c57610100808354040283529160200191611b87565b820191906000526020600020905b815481529060010190602001808311611b6a57829003601f168201915b505050505090806004018054600181600116156101000203166002900480601f016020809104026020016040519081016040528092919081815260200182805460018160011615610100020316600290048015611c255780601f10611bfa57610100808354040283529160200191611c25565b820191906000526020600020905b815481529060010190602001808311611c0857829003601f168201915b505050505090806005018054600181600116156101000203166002900480601f016020809104026020016040519081016040528092919081815260200182805460018160011615610100020316600290048015611cc35780601f10611c9857610100808354040283529160200191611cc3565b820191906000526020600020905b815481529060010190602001808311611ca657829003601f168201915b5050505050905086565b600082118015611cdf57506001548211155b1515611cea57600080fd5b611cf2615e5e565b6003600084815260200190815260200160002060e0604051908101604052908160008201548152602001600182018054600181600116156101000203166002900480601f016020809104026020016040519081016040528092919081815260200182805460018160011615610100020316600290048015611db45780601f10611d8957610100808354040283529160200191611db4565b820191906000526020600020905b815481529060010190602001808311611d9757829003601f168201915b5050505050815260200160028201548152602001600382018054600181600116156101000203166002900480601f016020809104026020016040519081016040528092919081815260200182805460018160011615610100020316600290048015611e605780601f10611e3557610100808354040283529160200191611e60565b820191906000526020600020905b815481529060010190602001808311611e4357829003601f168201915b50505050508152602001600482018054600181600116156101000203166002900480601f016020809104026020016040519081016040528092919081815260200182805460018160011615610100020316600290048015611f025780601f10611ed757610100808354040283529160200191611f02565b820191906000526020600020905b815481529060010190602001808311611ee557829003601f168201915b50505050508152602001600582015481526020016006820160009054906101000a900473ffffffffffffffffffffffffffffffffffffffff1673ffffffffffffffffffffffffffffffffffffffff1673ffffffffffffffffffffffffffffffffffffffff16815250509050611f75615eb2565b600460008360400151815260200190815260200160002060c060405190810160405290816000820154815260200160018201548152602001600282018054600181600116156101000203166002900480601f0160208091040260200160405190810160405280929190818152602001828054600181600116156101000203166002900480156120455780601f1061201a57610100808354040283529160200191612045565b820191906000526020600020905b81548152906001019060200180831161202857829003601f168201915b50505050508152602001600382018054600181600116156101000203166002900480601f0160208091040260200160405190810160405280929190818152602001828054600181600116156101000203166002900480156120e75780601f106120bc576101008083540402835291602001916120e7565b820191906000526020600020905b8154815290600101906020018083116120ca57829003601f168201915b50505050508152602001600482018054600181600116156101000203166002900480601f0160208091040260200160405190810160405280929190818152602001828054600181600116156101000203166002900480156121895780601f1061215e57610100808354040283529160200191612189565b820191906000526020600020905b81548152906001019060200180831161216c57829003601f168201915b50505050508152602001600582018054600181600116156101000203166002900480601f01602080910402602001604051908101604052809291908181526020018280546001816001161561010002031660029004801561222b5780601f106122005761010080835404028352916020019161222b565b820191906000526020600020905b81548152906001019060200180831161220e57829003601f168201915b505050505081525050905060016000815480929190600101919050555060026000815480929190600101919050555060c060405190810160405280600254815260200160015481526020018260400151815260200182606001518152602001826080015181526020018260a00151815250600460006002548152602001908152602001600020600082015181600001556020820151816001015560408201518160020190805190602001906122e1929190615ee9565b5060608201518160030190805190602001906122fe929190615ee9565b50608082015181600401908051906020019061231b929190615ee9565b5060a0820151816005019080519060200190612338929190615ee9565b509050507f1b671bbb64565da7b45ceaf6219bba3fd668049056ae524576932af0d7834f046002546001548360400151846060015185608001518660a001516040518087815260200186815260200180602001806020018060200180602001858103855289818151815260200191508051906020019080838360005b838110156123cf5780820151818401526020810190506123b4565b50505050905090810190601f1680156123fc5780820380516001836020036101000a031916815260200191505b50858103845288818151815260200191508051906020019080838360005b8381101561243557808201518184015260208101905061241a565b50505050905090810190601f1680156124625780820380516001836020036101000a031916815260200191505b50858103835287818151815260200191508051906020019080838360005b8381101561249b578082015181840152602081019050612480565b50505050905090810190601f1680156124c85780820380516001836020036101000a031916815260200191505b50858103825286818151815260200191508051906020019080838360005b838110156125015780820151818401526020810190506124e6565b50505050905090810190601f16801561252e5780820380516001836020036101000a031916815260200191505b509a505050505050505050505060405180910390a160e06040519081016040528060015481526020018360200151815260200160025481526020016040805190810160405280600681526020017f69737375656400000000000000000000000000000000000000000000000000008152508152602001848152602001836000015181526020013373ffffffffffffffffffffffffffffffffffffffff16815250600360006001548152602001908152602001600020600082015181600001556020820151816001019080519060200190612609929190615ee9565b50604082015181600201556060820151816003019080519060200190612630929190615ee9565b50608082015181600401908051906020019061264d929190615ee9565b5060a0820151816005015560c08201518160060160006101000a81548173ffffffffffffffffffffffffffffffffffffffff021916908373ffffffffffffffffffffffffffffffffffffffff1602179055509050507f27e79f34546ecbf364d52462c47a86462d561a87c25b51b0b9ce9c8197b5da2e600154836020015160025486866000015133604051808781526020018060200186815260200180602001806020018681526020018573ffffffffffffffffffffffffffffffffffffffff1673ffffffffffffffffffffffffffffffffffffffff168152602001848103845289818151815260200191508051906020019080838360005b83811015612761578082015181840152602081019050612746565b50505050905090810190601f16801561278e5780820380516001836020036101000a031916815260200191505b50848103835260068152602001807f6973737565640000000000000000000000000000000000000000000000000000815250602001848103825287818151815260200191508051906020019080838360005b838110156127fb5780820151818401526020810190506127e0565b50505050905090810190601f1680156128285780820380516001836020036101000a031916815260200191505b50995050505050505050505060405180910390a150505050565b60008211801561285457506001548211155b151561285f57600080fd5b612867615e5e565b6003600084815260200190815260200160002060e0604051908101604052908160008201548152602001600182018054600181600116156101000203166002900480601f0160208091040260200160405190810160405280929190818152602001828054600181600116156101000203166002900480156129295780601f106128fe57610100808354040283529160200191612929565b820191906000526020600020905b81548152906001019060200180831161290c57829003601f168201915b5050505050815260200160028201548152602001600382018054600181600116156101000203166002900480601f0160208091040260200160405190810160405280929190818152602001828054600181600116156101000203166002900480156129d55780601f106129aa576101008083540402835291602001916129d5565b820191906000526020600020905b8154815290600101906020018083116129b857829003601f168201915b50505050508152602001600482018054600181600116156101000203166002900480601f016020809104026020016040519081016040528092919081815260200182805460018160011615610100020316600290048015612a775780601f10612a4c57610100808354040283529160200191612a77565b820191906000526020600020905b815481529060010190602001808311612a5a57829003601f168201915b50505050508152602001600582015481526020016006820160009054906101000a900473ffffffffffffffffffffffffffffffffffffffff1673ffffffffffffffffffffffffffffffffffffffff1673ffffffffffffffffffffffffffffffffffffffff16815250509050612aea615eb2565b600460008360400151815260200190815260200160002060c060405190810160405290816000820154815260200160018201548152602001600282018054600181600116156101000203166002900480601f016020809104026020016040519081016040528092919081815260200182805460018160011615610100020316600290048015612bba5780601f10612b8f57610100808354040283529160200191612bba565b820191906000526020600020905b815481529060010190602001808311612b9d57829003601f168201915b50505050508152602001600382018054600181600116156101000203166002900480601f016020809104026020016040519081016040528092919081815260200182805460018160011615610100020316600290048015612c5c5780601f10612c3157610100808354040283529160200191612c5c565b820191906000526020600020905b815481529060010190602001808311612c3f57829003601f168201915b50505050508152602001600482018054600181600116156101000203166002900480601f016020809104026020016040519081016040528092919081815260200182805460018160011615610100020316600290048015612cfe5780601f10612cd357610100808354040283529160200191612cfe565b820191906000526020600020905b815481529060010190602001808311612ce157829003601f168201915b50505050508152602001600582018054600181600116156101000203166002900480601f016020809104026020016040519081016040528092919081815260200182805460018160011615610100020316600290048015612da05780601f10612d7557610100808354040283529160200191612da0565b820191906000526020600020905b815481529060010190602001808311612d8357829003601f168201915b505050505081525050905060016000815480929190600101919050555060026000815480929190600101919050555060c060405190810160405280600254815260200160015481526020018260400151815260200182606001518152602001826080015181526020018260a0015181525060046000600254815260200190815260200160002060008201518160000155602082015181600101556040820151816002019080519060200190612e56929190615ee9565b506060820151816003019080519060200190612e73929190615ee9565b506080820151816004019080519060200190612e90929190615ee9565b5060a0820151816005019080519060200190612ead929190615ee9565b509050507f1b671bbb64565da7b45ceaf6219bba3fd668049056ae524576932af0d7834f046002546001548360400151846060015185608001518660a001516040518087815260200186815260200180602001806020018060200180602001858103855289818151815260200191508051906020019080838360005b83811015612f44578082015181840152602081019050612f29565b50505050905090810190601f168015612f715780820380516001836020036101000a031916815260200191505b50858103845288818151815260200191508051906020019080838360005b83811015612faa578082015181840152602081019050612f8f565b50505050905090810190601f168015612fd75780820380516001836020036101000a031916815260200191505b50858103835287818151815260200191508051906020019080838360005b83811015613010578082015181840152602081019050612ff5565b50505050905090810190601f16801561303d5780820380516001836020036101000a031916815260200191505b50858103825286818151815260200191508051906020019080838360005b8381101561307657808201518184015260208101905061305b565b50505050905090810190601f1680156130a35780820380516001836020036101000a031916815260200191505b509a505050505050505050505060405180910390a160e06040519081016040528060015481526020018360200151815260200160025481526020016040805190810160405280600881526020017f617070726f76656400000000000000000000000000000000000000000000000081525081526020018481526020018581526020013373ffffffffffffffffffffffffffffffffffffffff1681525060036000600154815260200190815260200160002060008201518160000155602082015181600101908051906020019061317a929190615ee9565b506040820151816002015560608201518160030190805190602001906131a1929190615ee9565b5060808201518160040190805190602001906131be929190615ee9565b5060a0820151816005015560c08201518160060160006101000a81548173ffffffffffffffffffffffffffffffffffffffff021916908373ffffffffffffffffffffffffffffffffffffffff1602179055509050507f56e438642b0922b0911726a419170e5828ce3b7e70ad30a1db20adba144b717a6001548360200151600254868833604051808781526020018060200186815260200180602001806020018681526020018573ffffffffffffffffffffffffffffffffffffffff1673ffffffffffffffffffffffffffffffffffffffff168152602001848103845289818151815260200191508051906020019080838360005b838110156132ce5780820151818401526020810190506132b3565b50505050905090810190601f1680156132fb5780820380516001836020036101000a031916815260200191505b50848103835260088152602001807f617070726f766564000000000000000000000000000000000000000000000000815250602001848103825287818151815260200191508051906020019080838360005b8381101561336857808201518184015260208101905061334d565b50505050905090810190601f1680156133955780820380516001836020036101000a031916815260200191505b50995050505050505050505060405180910390a150505050565b60025481565b6000821180156133c757506001548211155b15156133d257600080fd5b6133da615e5e565b6003600084815260200190815260200160002060e0604051908101604052908160008201548152602001600182018054600181600116156101000203166002900480601f01602080910402602001604051908101604052809291908181526020018280546001816001161561010002031660029004801561349c5780601f106134715761010080835404028352916020019161349c565b820191906000526020600020905b81548152906001019060200180831161347f57829003601f168201915b5050505050815260200160028201548152602001600382018054600181600116156101000203166002900480601f0160208091040260200160405190810160405280929190818152602001828054600181600116156101000203166002900480156135485780601f1061351d57610100808354040283529160200191613548565b820191906000526020600020905b81548152906001019060200180831161352b57829003601f168201915b50505050508152602001600482018054600181600116156101000203166002900480601f0160208091040260200160405190810160405280929190818152602001828054600181600116156101000203166002900480156135ea5780601f106135bf576101008083540402835291602001916135ea565b820191906000526020600020905b8154815290600101906020018083116135cd57829003601f168201915b50505050508152602001600582015481526020016006820160009054906101000a900473ffffffffffffffffffffffffffffffffffffffff1673ffffffffffffffffffffffffffffffffffffffff1673ffffffffffffffffffffffffffffffffffffffff1681525050905061365d615eb2565b600460008360400151815260200190815260200160002060c060405190810160405290816000820154815260200160018201548152602001600282018054600181600116156101000203166002900480601f01602080910402602001604051908101604052809291908181526020018280546001816001161561010002031660029004801561372d5780601f106137025761010080835404028352916020019161372d565b820191906000526020600020905b81548152906001019060200180831161371057829003601f168201915b50505050508152602001600382018054600181600116156101000203166002900480601f0160208091040260200160405190810160405280929190818152602001828054600181600116156101000203166002900480156137cf5780601f106137a4576101008083540402835291602001916137cf565b820191906000526020600020905b8154815290600101906020018083116137b257829003601f168201915b50505050508152602001600482018054600181600116156101000203166002900480601f0160208091040260200160405190810160405280929190818152602001828054600181600116156101000203166002900480156138715780601f1061384657610100808354040283529160200191613871565b820191906000526020600020905b81548152906001019060200180831161385457829003601f168201915b50505050508152602001600582018054600181600116156101000203166002900480601f0160208091040260200160405190810160405280929190818152602001828054600181600116156101000203166002900480156139135780601f106138e857610100808354040283529160200191613913565b820191906000526020600020905b8154815290600101906020018083116138f657829003601f168201915b505050505081525050905060016000815480929190600101919050555060026000815480929190600101919050555060c060405190810160405280600254815260200160015481526020018260400151815260200182606001518152602001826080015181526020018260a00151815250600460006002548152602001908152602001600020600082015181600001556020820151816001015560408201518160020190805190602001906139c9929190615ee9565b5060608201518160030190805190602001906139e6929190615ee9565b506080820151816004019080519060200190613a03929190615ee9565b5060a0820151816005019080519060200190613a20929190615ee9565b509050507f1b671bbb64565da7b45ceaf6219bba3fd668049056ae524576932af0d7834f046002546001548360400151846060015185608001518660a001516040518087815260200186815260200180602001806020018060200180602001858103855289818151815260200191508051906020019080838360005b83811015613ab7578082015181840152602081019050613a9c565b50505050905090810190601f168015613ae45780820380516001836020036101000a031916815260200191505b50858103845288818151815260200191508051906020019080838360005b83811015613b1d578082015181840152602081019050613b02565b50505050905090810190601f168015613b4a5780820380516001836020036101000a031916815260200191505b50858103835287818151815260200191508051906020019080838360005b83811015613b83578082015181840152602081019050613b68565b50505050905090810190601f168015613bb05780820380516001836020036101000a031916815260200191505b50858103825286818151815260200191508051906020019080838360005b83811015613be9578082015181840152602081019050613bce565b50505050905090810190601f168015613c165780820380516001836020036101000a031916815260200191505b509a505050505050505050505060405180910390a160e06040519081016040528060015481526020018360200151815260200160025481526020016040805190810160405280600881526020017f72656a656374656400000000000000000000000000000000000000000000000081525081526020018481526020018581526020013373ffffffffffffffffffffffffffffffffffffffff16815250600360006001548152602001908152602001600020600082015181600001556020820151816001019080519060200190613ced929190615ee9565b50604082015181600201556060820151816003019080519060200190613d14929190615ee9565b506080820151816004019080519060200190613d31929190615ee9565b5060a0820151816005015560c08201518160060160006101000a81548173ffffffffffffffffffffffffffffffffffffffff021916908373ffffffffffffffffffffffffffffffffffffffff1602179055509050507f0fad56701be0731b1d95dd39f115990e3de461301bdeef60ace2593e9a798ebe6001548360200151600254868833604051808781526020018060200186815260200180602001806020018681526020018573ffffffffffffffffffffffffffffffffffffffff1673ffffffffffffffffffffffffffffffffffffffff168152602001848103845289818151815260200191508051906020019080838360005b83811015613e41578082015181840152602081019050613e26565b50505050905090810190601f168015613e6e5780820380516001836020036101000a031916815260200191505b50848103835260088152602001807f72656a6563746564000000000000000000000000000000000000000000000000815250602001848103825287818151815260200191508051906020019080838360005b83811015613edb578082015181840152602081019050613ec0565b50505050905090810190601f168015613f085780820380516001836020036101000a031916815260200191505b50995050505050505050505060405180910390a150505050565b6003602052806000526040600020600091509050806000015490806001018054600181600116156101000203166002900480601f016020809104026020016040519081016040528092919081815260200182805460018160011615610100020316600290048015613fd45780601f10613fa957610100808354040283529160200191613fd4565b820191906000526020600020905b815481529060010190602001808311613fb757829003601f168201915b505050505090806002015490806003018054600181600116156101000203166002900480601f0160208091040260200160405190810160405280929190818152602001828054600181600116156101000203166002900480156140785780601f1061404d57610100808354040283529160200191614078565b820191906000526020600020905b81548152906001019060200180831161405b57829003601f168201915b505050505090806004018054600181600116156101000203166002900480601f0160208091040260200160405190810160405280929190818152602001828054600181600116156101000203166002900480156141165780601f106140eb57610100808354040283529160200191614116565b820191906000526020600020905b8154815290600101906020018083116140f957829003601f168201915b5050505050908060050154908060060160009054906101000a900473ffffffffffffffffffffffffffffffffffffffff16905087565b60008211801561415e57506001548211155b151561416957600080fd5b614171615e5e565b6003600084815260200190815260200160002060e0604051908101604052908160008201548152602001600182018054600181600116156101000203166002900480601f0160208091040260200160405190810160405280929190818152602001828054600181600116156101000203166002900480156142335780601f1061420857610100808354040283529160200191614233565b820191906000526020600020905b81548152906001019060200180831161421657829003601f168201915b5050505050815260200160028201548152602001600382018054600181600116156101000203166002900480601f0160208091040260200160405190810160405280929190818152602001828054600181600116156101000203166002900480156142df5780601f106142b4576101008083540402835291602001916142df565b820191906000526020600020905b8154815290600101906020018083116142c257829003601f168201915b50505050508152602001600482018054600181600116156101000203166002900480601f0160208091040260200160405190810160405280929190818152602001828054600181600116156101000203166002900480156143815780601f1061435657610100808354040283529160200191614381565b820191906000526020600020905b81548152906001019060200180831161436457829003601f168201915b50505050508152602001600582015481526020016006820160009054906101000a900473ffffffffffffffffffffffffffffffffffffffff1673ffffffffffffffffffffffffffffffffffffffff1673ffffffffffffffffffffffffffffffffffffffff168152505090506143f4615eb2565b600460008360400151815260200190815260200160002060c060405190810160405290816000820154815260200160018201548152602001600282018054600181600116156101000203166002900480601f0160208091040260200160405190810160405280929190818152602001828054600181600116156101000203166002900480156144c45780601f10614499576101008083540402835291602001916144c4565b820191906000526020600020905b8154815290600101906020018083116144a757829003601f168201915b50505050508152602001600382018054600181600116156101000203166002900480601f0160208091040260200160405190810160405280929190818152602001828054600181600116156101000203166002900480156145665780601f1061453b57610100808354040283529160200191614566565b820191906000526020600020905b81548152906001019060200180831161454957829003601f168201915b50505050508152602001600482018054600181600116156101000203166002900480601f0160208091040260200160405190810160405280929190818152602001828054600181600116156101000203166002900480156146085780601f106145dd57610100808354040283529160200191614608565b820191906000526020600020905b8154815290600101906020018083116145eb57829003601f168201915b50505050508152602001600582018054600181600116156101000203166002900480601f0160208091040260200160405190810160405280929190818152602001828054600181600116156101000203166002900480156146aa5780601f1061467f576101008083540402835291602001916146aa565b820191906000526020600020905b81548152906001019060200180831161468d57829003601f168201915b505050505081525050905060016000815480929190600101919050555060026000815480929190600101919050555060c060405190810160405280600254815260200160015481526020018260400151815260200182606001518152602001826080015181526020018260a0015181525060046000600254815260200190815260200160002060008201518160000155602082015181600101556040820151816002019080519060200190614760929190615ee9565b50606082015181600301908051906020019061477d929190615ee9565b50608082015181600401908051906020019061479a929190615ee9565b5060a08201518160050190805190602001906147b7929190615ee9565b509050507f1b671bbb64565da7b45ceaf6219bba3fd668049056ae524576932af0d7834f046002546001548360400151846060015185608001518660a001516040518087815260200186815260200180602001806020018060200180602001858103855289818151815260200191508051906020019080838360005b8381101561484e578082015181840152602081019050614833565b50505050905090810190601f16801561487b5780820380516001836020036101000a031916815260200191505b50858103845288818151815260200191508051906020019080838360005b838110156148b4578082015181840152602081019050614899565b50505050905090810190601f1680156148e15780820380516001836020036101000a031916815260200191505b50858103835287818151815260200191508051906020019080838360005b8381101561491a5780820151818401526020810190506148ff565b50505050905090810190601f1680156149475780820380516001836020036101000a031916815260200191505b50858103825286818151815260200191508051906020019080838360005b83811015614980578082015181840152602081019050614965565b50505050905090810190601f1680156149ad5780820380516001836020036101000a031916815260200191505b509a505050505050505050505060405180910390a160e06040519081016040528060015481526020018360200151815260200160025481526020016040805190810160405280600781526020017f6772616e7465640000000000000000000000000000000000000000000000000081525081526020018481526020018581526020013373ffffffffffffffffffffffffffffffffffffffff16815250600360006001548152602001908152602001600020600082015181600001556020820151816001019080519060200190614a84929190615ee9565b50604082015181600201556060820151816003019080519060200190614aab929190615ee9565b506080820151816004019080519060200190614ac8929190615ee9565b5060a0820151816005015560c08201518160060160006101000a81548173ffffffffffffffffffffffffffffffffffffffff021916908373ffffffffffffffffffffffffffffffffffffffff1602179055509050507f850fdb7ae8b175a3d0f5b6ed616af95c7d5cfd79e9c0278dfa06b1618f4498a66001548360200151600254868833604051808781526020018060200186815260200180602001806020018681526020018573ffffffffffffffffffffffffffffffffffffffff1673ffffffffffffffffffffffffffffffffffffffff168152602001848103845289818151815260200191508051906020019080838360005b83811015614bd8578082015181840152602081019050614bbd565b50505050905090810190601f168015614c055780820380516001836020036101000a031916815260200191505b50848103835260078152602001807f6772616e74656400000000000000000000000000000000000000000000000000815250602001848103825287818151815260200191508051906020019080838360005b83811015614c72578082015181840152602081019050614c57565b50505050905090810190601f168015614c9f5780820380516001836020036101000a031916815260200191505b50995050505050505050505060405180910390a150505050565b60008651111515614cc957600080fd5b60008551111515614cd957600080fd5b60008451111515614ce957600080fd5b60008351111515614cf957600080fd5b60008251111515614d0957600080fd5b60016000815480929190600101919050555060026000815480929190600101919050555060c060405190810160405280600254815260200160015481526020018681526020018581526020018481526020018381525060046000600254815260200190815260200160002060008201518160000155602082015181600101556040820151816002019080519060200190614da4929190615ee9565b506060820151816003019080519060200190614dc1929190615ee9565b506080820151816004019080519060200190614dde929190615ee9565b5060a0820151816005019080519060200190614dfb929190615ee9565b509050507f1b671bbb64565da7b45ceaf6219bba3fd668049056ae524576932af0d7834f04600254600154878787876040518087815260200186815260200180602001806020018060200180602001858103855289818151815260200191508051906020019080838360005b83811015614e82578082015181840152602081019050614e67565b50505050905090810190601f168015614eaf5780820380516001836020036101000a031916815260200191505b50858103845288818151815260200191508051906020019080838360005b83811015614ee8578082015181840152602081019050614ecd565b50505050905090810190601f168015614f155780820380516001836020036101000a031916815260200191505b50858103835287818151815260200191508051906020019080838360005b83811015614f4e578082015181840152602081019050614f33565b50505050905090810190601f168015614f7b5780820380516001836020036101000a031916815260200191505b50858103825286818151815260200191508051906020019080838360005b83811015614fb4578082015181840152602081019050614f99565b50505050905090810190601f168015614fe15780820380516001836020036101000a031916815260200191505b509a505050505050505050505060405180910390a160e060405190810160405280600154815260200187815260200160025481526020016040805190810160405280600781526020017f6372656174656400000000000000000000000000000000000000000000000000815250815260200182815260200160015481526020013373ffffffffffffffffffffffffffffffffffffffff168152506003600060015481526020019081526020016000206000820151816000015560208201518160010190805190602001906150b6929190615ee9565b506040820151816002015560608201518160030190805190602001906150dd929190615ee9565b5060808201518160040190805190602001906150fa929190615ee9565b5060a0820151816005015560c08201518160060160006101000a81548173ffffffffffffffffffffffffffffffffffffffff021916908373ffffffffffffffffffffffffffffffffffffffff1602179055509050507f8309da5550621eb55fe471efad46bfff9362ddefe248ffb8634d1db2a251ec45600154876002548460015433604051808781526020018060200186815260200180602001806020018681526020018573ffffffffffffffffffffffffffffffffffffffff1673ffffffffffffffffffffffffffffffffffffffff168152602001848103845289818151815260200191508051906020019080838360005b838110156152085780820151818401526020810190506151ed565b50505050905090810190601f1680156152355780820380516001836020036101000a031916815260200191505b50848103835260078152602001807f6372656174656400000000000000000000000000000000000000000000000000815250602001848103825287818151815260200191508051906020019080838360005b838110156152a2578082015181840152602081019050615287565b50505050905090810190601f1680156152cf5780820380516001836020036101000a031916815260200191505b50995050505050505050505060405180910390a1505050505050565b60015481565b60008211801561530357506001548211155b151561530e57600080fd5b615316615e5e565b6003600084815260200190815260200160002060e0604051908101604052908160008201548152602001600182018054600181600116156101000203166002900480601f0160208091040260200160405190810160405280929190818152602001828054600181600116156101000203166002900480156153d85780601f106153ad576101008083540402835291602001916153d8565b820191906000526020600020905b8154815290600101906020018083116153bb57829003601f168201915b5050505050815260200160028201548152602001600382018054600181600116156101000203166002900480601f0160208091040260200160405190810160405280929190818152602001828054600181600116156101000203166002900480156154845780601f1061545957610100808354040283529160200191615484565b820191906000526020600020905b81548152906001019060200180831161546757829003601f168201915b50505050508152602001600482018054600181600116156101000203166002900480601f0160208091040260200160405190810160405280929190818152602001828054600181600116156101000203166002900480156155265780601f106154fb57610100808354040283529160200191615526565b820191906000526020600020905b81548152906001019060200180831161550957829003601f168201915b50505050508152602001600582015481526020016006820160009054906101000a900473ffffffffffffffffffffffffffffffffffffffff1673ffffffffffffffffffffffffffffffffffffffff1673ffffffffffffffffffffffffffffffffffffffff16815250509050615599615eb2565b600460008360400151815260200190815260200160002060c060405190810160405290816000820154815260200160018201548152602001600282018054600181600116156101000203166002900480601f0160208091040260200160405190810160405280929190818152602001828054600181600116156101000203166002900480156156695780601f1061563e57610100808354040283529160200191615669565b820191906000526020600020905b81548152906001019060200180831161564c57829003601f168201915b50505050508152602001600382018054600181600116156101000203166002900480601f01602080910402602001604051908101604052809291908181526020018280546001816001161561010002031660029004801561570b5780601f106156e05761010080835404028352916020019161570b565b820191906000526020600020905b8154815290600101906020018083116156ee57829003601f168201915b50505050508152602001600482018054600181600116156101000203166002900480601f0160208091040260200160405190810160405280929190818152602001828054600181600116156101000203166002900480156157ad5780601f10615782576101008083540402835291602001916157ad565b820191906000526020600020905b81548152906001019060200180831161579057829003601f168201915b50505050508152602001600582018054600181600116156101000203166002900480601f01602080910402602001604051908101604052809291908181526020018280546001816001161561010002031660029004801561584f5780601f106158245761010080835404028352916020019161584f565b820191906000526020600020905b81548152906001019060200180831161583257829003601f168201915b505050505081525050905060016000815480929190600101919050555060026000815480929190600101919050555060c060405190810160405280600254815260200160015481526020018260400151815260200182606001518152602001826080015181526020018260a0015181525060046000600254815260200190815260200160002060008201518160000155602082015181600101556040820151816002019080519060200190615905929190615ee9565b506060820151816003019080519060200190615922929190615ee9565b50608082015181600401908051906020019061593f929190615ee9565b5060a082015181600501908051906020019061595c929190615ee9565b509050507f1b671bbb64565da7b45ceaf6219bba3fd668049056ae524576932af0d7834f046002546001548360400151846060015185608001518660a001516040518087815260200186815260200180602001806020018060200180602001858103855289818151815260200191508051906020019080838360005b838110156159f35780820151818401526020810190506159d8565b50505050905090810190601f168015615a205780820380516001836020036101000a031916815260200191505b50858103845288818151815260200191508051906020019080838360005b83811015615a59578082015181840152602081019050615a3e565b50505050905090810190601f168015615a865780820380516001836020036101000a031916815260200191505b50858103835287818151815260200191508051906020019080838360005b83811015615abf578082015181840152602081019050615aa4565b50505050905090810190601f168015615aec5780820380516001836020036101000a031916815260200191505b50858103825286818151815260200191508051906020019080838360005b83811015615b25578082015181840152602081019050615b0a565b50505050905090810190601f168015615b525780820380516001836020036101000a031916815260200191505b509a505050505050505050505060405180910390a160e06040519081016040528060015481526020018360200151815260200160025481526020016040805190810160405280600781526020017f72656e657765640000000000000000000000000000000000000000000000000081525081526020018481526020018581526020013373ffffffffffffffffffffffffffffffffffffffff16815250600360006001548152602001908152602001600020600082015181600001556020820151816001019080519060200190615c29929190615ee9565b50604082015181600201556060820151816003019080519060200190615c50929190615ee9565b506080820151816004019080519060200190615c6d929190615ee9565b5060a0820151816005015560c08201518160060160006101000a81548173ffffffffffffffffffffffffffffffffffffffff021916908373ffffffffffffffffffffffffffffffffffffffff1602179055509050507f9cfe9df8d3f4a338c6723b2b4cb50afb85f0eddb7bdd320162e69a2c51cb05486001548360200151600254868833604051808781526020018060200186815260200180602001806020018681526020018573ffffffffffffffffffffffffffffffffffffffff1673ffffffffffffffffffffffffffffffffffffffff168152602001848103845289818151815260200191508051906020019080838360005b83811015615d7d578082015181840152602081019050615d62565b50505050905090810190601f168015615daa5780820380516001836020036101000a031916815260200191505b50848103835260078152602001807f72656e6577656400000000000000000000000000000000000000000000000000815250602001848103825287818151815260200191508051906020019080838360005b83811015615e17578082015181840152602081019050615dfc565b50505050905090810190601f168015615e445780820380516001836020036101000a031916815260200191505b50995050505050505050505060405180910390a150505050565b60e060405190810160405280600081526020016060815260200160008152602001606081526020016060815260200160008152602001600073ffffffffffffffffffffffffffffffffffffffff1681525090565b60c0604051908101604052806000815260200160008152602001606081526020016060815260200160608152602001606081525090565b828054600181600116156101000203166002900490600052602060002090601f016020900481019282601f10615f2a57805160ff1916838001178555615f58565b82800160010185558215615f58579182015b82811115615f57578251825591602001919060010190615f3c565b5b509050615f659190615f69565b5090565b615f8b91905b80821115615f87576000816000905550600101615f6f565b5090565b9056fea165627a7a72305820b4a31da49ec299dd5cbcc223663932ede39bdef0606467a7acaa69cd6c96fbe30029",
  "source": "pragma solidity >=0.4.16 <0.7.0;\n//pragma experimental ABIEncoderV2;\n\ncontract SocialNetwork {\n    // State variable\n    string public name;\n    uint public appCount = 0;\n    uint public docCount =0;\n\n    mapping(uint => Application) public apps;\n    mapping(uint => Document) public docs;\n    \n    struct Document {\n        uint id;\n        uint appId;\n        string aerodromeManual;\n        string licensingFee;\n        string CARcompliance;\n        string exceptionsDoc;\n    }\n\n    struct Application{\n        uint appId;\n        string airportCode;\n        uint id;\n        string state;\n        string timestamp;\n        uint previousStateId;\n        address payable author;\n    }\n\n    event AppCreated(\n        uint appId,\n        string airportCode,\n        uint id,\n        string state,\n        string timestamp,\n        uint previousStateId,\n        address payable author\n    );\n\n    event DocCreated(\n       uint id,\n        uint appId,\n        string aerodromeManual,\n        string licensingFee,\n        string CARcompliance,\n        string exceptionsDoc\n    );\n    \n    event DocIdUpdated(\n       uint id,\n        uint appId,\n        string aerodromeManual,\n        string licensingFee,\n        string CARcompliance,\n        string exceptionsDoc\n    );\n\n    event AppIssued(\n        uint appId,\n        string airportCode,\n        uint id,\n        string state,\n        string timestamp,\n        uint previousStateId,\n        address payable author\n    );\n\nevent AppAssigned(\n        uint appId,\n        string airportCode,\n        uint id,\n        string state,\n        string timestamp,\n        uint previousStateId,\n        address payable author\n    );\n    \n event AppApproved(\n    uint appId,\n    string airportCode,\n    uint id,\n    string state,\n    string timestamp,\n    uint previousStateId,\n    address payable author\n);\n\n event AppRejected(\n    uint appId,\n    string airportCode,\n    uint id,\n    string state,\n    string timestamp,\n    uint previousStateId,\n    address payable author\n);\n\n event AppGranted(\n    uint appId,\n    string airportCode,\n    uint id,\n    string state,\n    string timestamp,\n    uint previousStateId,\n    address payable author\n);\n\n event AppRenewed(\n    uint appId,\n    string airportCode,\n    uint id,\n    string state,\n    string timestamp,\n    uint previousStateId,\n    address payable author\n);\n    // Constructor function\n    constructor () public {\n        name = \"Airport Database\";\n    }\n\n   function createApp(string memory airportCode, string memory doc1, string memory doc2, string memory doc3,string memory doc4, string memory timestamp) \n   public {\n    // Compulsory requires an airportcode\n    require(bytes(airportCode).length > 0);\n    require(bytes(doc1).length>0);\n    require(bytes(doc2).length>0);\n    require(bytes(doc3).length>0);\n    require(bytes(doc4).length>0);\n    // Increment the application count\n    appCount ++;\n    docCount ++;\n    //Create the document first\n    docs[docCount] = Document(docCount,appCount,doc1,doc2,doc3,doc4);\n    emit DocCreated(docCount,appCount,doc1,doc2,doc3,doc4);\n    // Create the application\n    apps[appCount] = Application(appCount,airportCode,docCount,\"created\",timestamp,appCount,msg.sender);\n    // Trigger event\n    emit AppCreated(appCount,airportCode,docCount,\"created\",timestamp,appCount,msg.sender);\n}\n\n\n function issueApp(uint _id, string memory timestamp) public {\n    //Require valid ID\n    require(_id > 0 && _id <= appCount);\n    //fetch the application and document \n    Application memory app = apps[_id];\n    Document memory doc = docs[app.id];\n    // Increment the application count\n    appCount ++;\n    docCount ++;\n    // Create a new document with the updated project id\n    docs[docCount] = Document(docCount,appCount,doc.aerodromeManual,doc.licensingFee,doc.CARcompliance,doc.exceptionsDoc);\n    emit DocCreated(docCount,appCount,doc.aerodromeManual,doc.licensingFee,doc.CARcompliance,doc.exceptionsDoc);\n\n    // Create New application with changed state and link it to the prvious application\n    apps[appCount] = Application(appCount,app.airportCode,docCount,\n    \"issued\",timestamp,app.appId, msg.sender);\n    // Trigger event\n    emit AppIssued(appCount,app.airportCode,docCount,\n    \"issued\",timestamp,app.appId, msg.sender);\n}\n\n\nfunction assignApp(uint _id, string memory timestamp) public {\n   //Require valid ID\n    require(_id > 0 && _id <= appCount);\n    //fetch the application and document \n    Application memory app = apps[_id];\n    Document memory doc = docs[app.id];\n    // Increment the application count\n    appCount ++;\n    docCount ++;\n    // Create a new document with the updated project id\n    docs[docCount] = Document(docCount,appCount,doc.aerodromeManual,doc.licensingFee,doc.CARcompliance,doc.exceptionsDoc);\n    emit DocCreated(docCount,appCount,doc.aerodromeManual,doc.licensingFee,doc.CARcompliance,doc.exceptionsDoc);\n\n    // Create New application with changed state and link it to the prvious application\n    apps[appCount] = Application(appCount,app.airportCode,docCount,\n    \"assigned\",timestamp,_id, msg.sender);\n    // Trigger event\n    emit AppAssigned(appCount,app.airportCode,docCount,\n    \"assigned\",timestamp,_id, msg.sender);\n}\n\nfunction approveApp(uint _id, string memory timestamp) public {\n   //Require valid ID\n    require(_id > 0 && _id <= appCount);\n    //fetch the application and document \n    Application memory app = apps[_id];\n    Document memory doc = docs[app.id];\n    // Increment the application count\n    appCount ++;\n    docCount ++;\n    // Create a new document with the updated project id\n    docs[docCount] = Document(docCount,appCount,doc.aerodromeManual,doc.licensingFee,doc.CARcompliance,doc.exceptionsDoc);\n    emit DocCreated(docCount,appCount,doc.aerodromeManual,doc.licensingFee,doc.CARcompliance,doc.exceptionsDoc);\n\n    // Create New application with changed state and link it to the prvious application\n    apps[appCount] = Application(appCount,app.airportCode,docCount,\n    \"approved\",timestamp,_id, msg.sender);\n    // Trigger event\n    emit AppApproved(appCount,app.airportCode,docCount,\n    \"approved\",timestamp,_id, msg.sender);\n}\n\nfunction rejectApp(uint _id, string memory timestamp) public {\n    //Require valid ID\n    require(_id > 0 && _id <= appCount);\n    //fetch the application and document \n    Application memory app = apps[_id];\n    Document memory doc = docs[app.id];\n    // Increment the application count\n    appCount ++;\n    docCount ++;\n    // Create a new document with the updated project id\n    docs[docCount] = Document(docCount,appCount,doc.aerodromeManual,doc.licensingFee,doc.CARcompliance,doc.exceptionsDoc);\n    emit DocCreated(docCount,appCount,doc.aerodromeManual,doc.licensingFee,doc.CARcompliance,doc.exceptionsDoc);\n\n    // Create New application with changed state and link it to the prvious application\n    apps[appCount] = Application(appCount,app.airportCode,docCount,\n    \"rejected\",timestamp,_id, msg.sender);\n    // Trigger event\n    emit AppRejected(appCount,app.airportCode,docCount,\n    \"rejected\",timestamp,_id, msg.sender);\n}\n\nfunction renewApp(uint _id, string memory timestamp) public {\n    //Require valid ID\n    require(_id > 0 && _id <= appCount);\n    //fetch the application and document \n    Application memory app = apps[_id];\n    Document memory doc = docs[app.id];\n    // Increment the application count\n    appCount ++;\n    docCount ++;\n    // Create a new document with the updated project id\n    docs[docCount] = Document(docCount,appCount,doc.aerodromeManual,doc.licensingFee,doc.CARcompliance,doc.exceptionsDoc);\n    emit DocCreated(docCount,appCount,doc.aerodromeManual,doc.licensingFee,doc.CARcompliance,doc.exceptionsDoc);\n\n    // Create New application with changed state and link it to the prvious application\n    apps[appCount] = Application(appCount,app.airportCode,docCount,\n    \"renewed\",timestamp,_id, msg.sender);\n    // Trigger event\n    emit AppRenewed(appCount,app.airportCode,docCount,\n    \"renewed\",timestamp,_id, msg.sender);\n}\n\nfunction grantApp(uint _id, string memory timestamp) public {\n    //Require valid ID\n    require(_id > 0 && _id <= appCount);\n    //fetch the application and document \n    Application memory app = apps[_id];\n    Document memory doc = docs[app.id];\n    // Increment the application count\n    appCount ++;\n    docCount ++;\n    // Create a new document with the updated project id\n    docs[docCount] = Document(docCount,appCount,doc.aerodromeManual,doc.licensingFee,doc.CARcompliance,doc.exceptionsDoc);\n    emit DocCreated(docCount,appCount,doc.aerodromeManual,doc.licensingFee,doc.CARcompliance,doc.exceptionsDoc);\n\n    // Create New application with changed state and link it to the prvious application\n    apps[appCount] = Application(appCount,app.airportCode,docCount,\n    \"granted\",timestamp,_id, msg.sender);\n    // Trigger event\n    emit AppGranted(appCount,app.airportCode,docCount,\n    \"granted\",timestamp,_id, msg.sender);\n}\n\n\n\n}\n",
  "sourcePath": "/home/akshada/Knowledge-Management-System/client/src/contracts/SocialNetwork.sol",
  "compiler": {
    "name": "solc",
    "version": "0.5.0+commit.1d4f565a.Emscripten.clang"
  },
  "schemaVersion": "3.0.1",
  "updatedAt": "2020-07-27T08:35:44.958Z",
  "devdoc": {
    "methods": {}
  },
  "userdoc": {
    "methods": {}
  }
}