{
  "contractName": "SocialNetwork",
  "abi": [
    {
      "inputs": [],
      "payable": false,
      "stateMutability": "nonpayable",
      "type": "constructor"
    },
    {
      "anonymous": false,
      "inputs": [
        {
          "indexed": false,
          "internalType": "uint256",
          "name": "id",
          "type": "uint256"
        },
        {
          "indexed": false,
          "internalType": "string",
          "name": "articleName",
          "type": "string"
        },
        {
          "indexed": false,
          "internalType": "string",
          "name": "content",
          "type": "string"
        },
        {
          "indexed": false,
          "internalType": "bool",
          "name": "approvalStatus",
          "type": "bool"
        },
        {
          "indexed": false,
          "internalType": "uint256",
          "name": "prevId",
          "type": "uint256"
        },
        {
          "indexed": false,
          "internalType": "string",
          "name": "filehash",
          "type": "string"
        },
        {
          "indexed": false,
          "internalType": "address payable",
          "name": "author",
          "type": "address"
        }
      ],
      "name": "PostApproved",
      "type": "event"
    },
    {
      "anonymous": false,
      "inputs": [
        {
          "indexed": false,
          "internalType": "uint256",
          "name": "id",
          "type": "uint256"
        },
        {
          "indexed": false,
          "internalType": "string",
          "name": "articleName",
          "type": "string"
        },
        {
          "indexed": false,
          "internalType": "string",
          "name": "content",
          "type": "string"
        },
        {
          "indexed": false,
          "internalType": "bool",
          "name": "approvalStatus",
          "type": "bool"
        },
        {
          "indexed": false,
          "internalType": "uint256",
          "name": "prevId",
          "type": "uint256"
        },
        {
          "indexed": false,
          "internalType": "string",
          "name": "filehash",
          "type": "string"
        },
        {
          "indexed": false,
          "internalType": "address payable",
          "name": "author",
          "type": "address"
        }
      ],
      "name": "PostCreated",
      "type": "event"
    },
    {
      "anonymous": false,
      "inputs": [
        {
          "indexed": false,
          "internalType": "uint256",
          "name": "id",
          "type": "uint256"
        },
        {
          "indexed": false,
          "internalType": "string",
          "name": "articleName",
          "type": "string"
        },
        {
          "indexed": false,
          "internalType": "string",
          "name": "content",
          "type": "string"
        },
        {
          "indexed": false,
          "internalType": "bool",
          "name": "approvalStatus",
          "type": "bool"
        },
        {
          "indexed": false,
          "internalType": "uint256",
          "name": "prevId",
          "type": "uint256"
        },
        {
          "indexed": false,
          "internalType": "string",
          "name": "filehash",
          "type": "string"
        },
        {
          "indexed": false,
          "internalType": "address payable",
          "name": "author",
          "type": "address"
        }
      ],
      "name": "PostModified",
      "type": "event"
    },
    {
      "anonymous": false,
      "inputs": [
        {
          "indexed": false,
          "internalType": "uint256",
          "name": "id",
          "type": "uint256"
        },
        {
          "indexed": false,
          "internalType": "string",
          "name": "articleName",
          "type": "string"
        },
        {
          "indexed": false,
          "internalType": "string",
          "name": "content",
          "type": "string"
        },
        {
          "indexed": false,
          "internalType": "bool",
          "name": "approvalStatus",
          "type": "bool"
        },
        {
          "indexed": false,
          "internalType": "uint256",
          "name": "prevId",
          "type": "uint256"
        },
        {
          "indexed": false,
          "internalType": "string",
          "name": "filehash",
          "type": "string"
        },
        {
          "indexed": false,
          "internalType": "address payable",
          "name": "author",
          "type": "address"
        }
      ],
      "name": "PostTipped",
      "type": "event"
    },
    {
      "constant": true,
      "inputs": [],
      "name": "name",
      "outputs": [
        {
          "internalType": "string",
          "name": "",
          "type": "string"
        }
      ],
      "payable": false,
      "stateMutability": "view",
      "type": "function"
    },
    {
      "constant": true,
      "inputs": [],
      "name": "postCount",
      "outputs": [
        {
          "internalType": "uint256",
          "name": "",
          "type": "uint256"
        }
      ],
      "payable": false,
      "stateMutability": "view",
      "type": "function"
    },
    {
      "constant": true,
      "inputs": [
        {
          "internalType": "uint256",
          "name": "",
          "type": "uint256"
        }
      ],
      "name": "posts",
      "outputs": [
        {
          "internalType": "uint256",
          "name": "id",
          "type": "uint256"
        },
        {
          "internalType": "string",
          "name": "articleName",
          "type": "string"
        },
        {
          "internalType": "string",
          "name": "content",
          "type": "string"
        },
        {
          "internalType": "bool",
          "name": "approvalStatus",
          "type": "bool"
        },
        {
          "internalType": "uint256",
          "name": "prevId",
          "type": "uint256"
        },
        {
          "internalType": "string",
          "name": "filehash",
          "type": "string"
        },
        {
          "internalType": "address payable",
          "name": "author",
          "type": "address"
        }
      ],
      "payable": false,
      "stateMutability": "view",
      "type": "function"
    },
    {
      "constant": false,
      "inputs": [
        {
          "internalType": "string",
          "name": "_articleName",
          "type": "string"
        },
        {
          "internalType": "string",
          "name": "_content",
          "type": "string"
        },
        {
          "internalType": "string",
          "name": "filehash",
          "type": "string"
        }
      ],
      "name": "createPost",
      "outputs": [],
      "payable": false,
      "stateMutability": "nonpayable",
      "type": "function"
    },
    {
      "constant": true,
      "inputs": [
        {
          "internalType": "uint256",
          "name": "_id",
          "type": "uint256"
        }
      ],
      "name": "getHash",
      "outputs": [
        {
          "internalType": "string",
          "name": "",
          "type": "string"
        }
      ],
      "payable": false,
      "stateMutability": "view",
      "type": "function"
    },
    {
      "constant": false,
      "inputs": [
        {
          "internalType": "uint256",
          "name": "_id",
          "type": "uint256"
        },
        {
          "internalType": "string",
          "name": "_articleName",
          "type": "string"
        },
        {
          "internalType": "string",
          "name": "_content",
          "type": "string"
        },
        {
          "internalType": "string",
          "name": "filehash",
          "type": "string"
        }
      ],
      "name": "modifyPost",
      "outputs": [],
      "payable": false,
      "stateMutability": "nonpayable",
      "type": "function"
    },
    {
      "constant": false,
      "inputs": [
        {
          "internalType": "uint256",
          "name": "_id",
          "type": "uint256"
        }
      ],
      "name": "approvePost",
      "outputs": [],
      "payable": true,
      "stateMutability": "payable",
      "type": "function"
    }
  ],
  "bytecode": "0x608060405260006001553480156200001657600080fd5b506040518060400160405280601081526020017f416972706f72742044617461626173650000000000000000000000000000000081525060009080519060200190620000649291906200006b565b506200011a565b828054600181600116156101000203166002900490600052602060002090601f016020900481019282601f10620000ae57805160ff1916838001178555620000df565b82800160010185558215620000df579182015b82811115620000de578251825591602001919060010190620000c1565b5b509050620000ee9190620000f2565b5090565b6200011791905b8082111562000113576000816000905550600101620000f9565b5090565b90565b611b23806200012a6000396000f3fe60806040526004361061006f5760003560e01c806317906c2e1161004e57806317906c2e146104dc5780636b2fafa91461050757806395caa166146105bb578063e8a4a1eb146105e95761006f565b80620681f11461007457806306fdde03146102745780630b1e7f8314610304575b600080fd5b34801561008057600080fd5b506102726004803603608081101561009757600080fd5b8101908080359060200190929190803590602001906401000000008111156100be57600080fd5b8201836020820111156100d057600080fd5b803590602001918460018302840111640100000000831117156100f257600080fd5b91908080601f016020809104026020016040519081016040528093929190818152602001838380828437600081840152601f19601f8201169050808301925050505050505091929192908035906020019064010000000081111561015557600080fd5b82018360208201111561016757600080fd5b8035906020019184600183028401116401000000008311171561018957600080fd5b91908080601f016020809104026020016040519081016040528093929190818152602001838380828437600081840152601f19601f820116905080830192505050505050509192919290803590602001906401000000008111156101ec57600080fd5b8201836020820111156101fe57600080fd5b8035906020019184600183028401116401000000008311171561022057600080fd5b91908080601f016020809104026020016040519081016040528093929190818152602001838380828437600081840152601f19601f8201169050808301925050505050505091929192905050506107df565b005b34801561028057600080fd5b50610289610b2f565b6040518080602001828103825283818151815260200191508051906020019080838360005b838110156102c95780820151818401526020810190506102ae565b50505050905090810190601f1680156102f65780820380516001836020036101000a031916815260200191505b509250505060405180910390f35b34801561031057600080fd5b5061033d6004803603602081101561032757600080fd5b8101908080359060200190929190505050610bcd565b60405180888152602001806020018060200187151515158152602001868152602001806020018573ffffffffffffffffffffffffffffffffffffffff1673ffffffffffffffffffffffffffffffffffffffff16815260200184810384528a818151815260200191508051906020019080838360005b838110156103cd5780820151818401526020810190506103b2565b50505050905090810190601f1680156103fa5780820380516001836020036101000a031916815260200191505b50848103835289818151815260200191508051906020019080838360005b83811015610433578082015181840152602081019050610418565b50505050905090810190601f1680156104605780820380516001836020036101000a031916815260200191505b50848103825286818151815260200191508051906020019080838360005b8381101561049957808201518184015260208101905061047e565b50505050905090810190601f1680156104c65780820380516001836020036101000a031916815260200191505b509a505050505050505050505060405180910390f35b3480156104e857600080fd5b506104f1610e04565b6040518082815260200191505060405180910390f35b34801561051357600080fd5b506105406004803603602081101561052a57600080fd5b8101908080359060200190929190505050610e0a565b6040518080602001828103825283818151815260200191508051906020019080838360005b83811015610580578082015181840152602081019050610565565b50505050905090810190601f1680156105ad5780820380516001836020036101000a031916815260200191505b509250505060405180910390f35b6105e7600480360360208110156105d157600080fd5b81019080803590602001909291905050506110c7565b005b3480156105f557600080fd5b506107dd6004803603606081101561060c57600080fd5b810190808035906020019064010000000081111561062957600080fd5b82018360208201111561063b57600080fd5b8035906020019184600183028401116401000000008311171561065d57600080fd5b91908080601f016020809104026020016040519081016040528093929190818152602001838380828437600081840152601f19601f820116905080830192505050505050509192919290803590602001906401000000008111156106c057600080fd5b8201836020820111156106d257600080fd5b803590602001918460018302840111640100000000831117156106f457600080fd5b91908080601f016020809104026020016040519081016040528093929190818152602001838380828437600081840152601f19601f8201169050808301925050505050505091929192908035906020019064010000000081111561075757600080fd5b82018360208201111561076957600080fd5b8035906020019184600183028401116401000000008311171561078b57600080fd5b91908080601f016020809104026020016040519081016040528093929190818152602001838380828437600081840152601f19601f8201169050808301925050505050505091929192905050506116bc565b005b6000841180156107f157506001548411155b6107fa57600080fd5b600082511161080857600080fd5b600083511161081657600080fd5b6001600081548092919060010191905055506040518060e0016040528060015481526020018481526020018381526020016000151581526020018581526020018281526020013373ffffffffffffffffffffffffffffffffffffffff168152506002600060015481526020019081526020016000206000820151816000015560208201518160010190805190602001906108b19291906119f4565b5060408201518160020190805190602001906108ce9291906119f4565b5060608201518160030160006101000a81548160ff0219169083151502179055506080820151816004015560a08201518160050190805190602001906109159291906119f4565b5060c08201518160060160006101000a81548173ffffffffffffffffffffffffffffffffffffffff021916908373ffffffffffffffffffffffffffffffffffffffff1602179055509050507f9c8446e922197ef7d7cbef3799e48d0b8557da5e20f22d25bf9f28fc3abfc2836001548484600088863360405180888152602001806020018060200187151515158152602001868152602001806020018573ffffffffffffffffffffffffffffffffffffffff1673ffffffffffffffffffffffffffffffffffffffff16815260200184810384528a818151815260200191508051906020019080838360005b83811015610a1b578082015181840152602081019050610a00565b50505050905090810190601f168015610a485780820380516001836020036101000a031916815260200191505b50848103835289818151815260200191508051906020019080838360005b83811015610a81578082015181840152602081019050610a66565b50505050905090810190601f168015610aae5780820380516001836020036101000a031916815260200191505b50848103825286818151815260200191508051906020019080838360005b83811015610ae7578082015181840152602081019050610acc565b50505050905090810190601f168015610b145780820380516001836020036101000a031916815260200191505b509a505050505050505050505060405180910390a150505050565b60008054600181600116156101000203166002900480601f016020809104026020016040519081016040528092919081815260200182805460018160011615610100020316600290048015610bc55780601f10610b9a57610100808354040283529160200191610bc5565b820191906000526020600020905b815481529060010190602001808311610ba857829003601f168201915b505050505081565b6002602052806000526040600020600091509050806000015490806001018054600181600116156101000203166002900480601f016020809104026020016040519081016040528092919081815260200182805460018160011615610100020316600290048015610c7f5780601f10610c5457610100808354040283529160200191610c7f565b820191906000526020600020905b815481529060010190602001808311610c6257829003601f168201915b505050505090806002018054600181600116156101000203166002900480601f016020809104026020016040519081016040528092919081815260200182805460018160011615610100020316600290048015610d1d5780601f10610cf257610100808354040283529160200191610d1d565b820191906000526020600020905b815481529060010190602001808311610d0057829003601f168201915b5050505050908060030160009054906101000a900460ff1690806004015490806005018054600181600116156101000203166002900480601f016020809104026020016040519081016040528092919081815260200182805460018160011615610100020316600290048015610dd45780601f10610da957610100808354040283529160200191610dd4565b820191906000526020600020905b815481529060010190602001808311610db757829003601f168201915b5050505050908060060160009054906101000a900473ffffffffffffffffffffffffffffffffffffffff16905087565b60015481565b6060600082118015610e1e57506001548211155b610e2757600080fd5b610e2f611a74565b600260008481526020019081526020016000206040518060e001604052908160008201548152602001600182018054600181600116156101000203166002900480601f016020809104026020016040519081016040528092919081815260200182805460018160011615610100020316600290048015610ef05780601f10610ec557610100808354040283529160200191610ef0565b820191906000526020600020905b815481529060010190602001808311610ed357829003601f168201915b50505050508152602001600282018054600181600116156101000203166002900480601f016020809104026020016040519081016040528092919081815260200182805460018160011615610100020316600290048015610f925780601f10610f6757610100808354040283529160200191610f92565b820191906000526020600020905b815481529060010190602001808311610f7557829003601f168201915b505050505081526020016003820160009054906101000a900460ff1615151515815260200160048201548152602001600582018054600181600116156101000203166002900480601f0160208091040260200160405190810160405280929190818152602001828054600181600116156101000203166002900480156110595780601f1061102e57610100808354040283529160200191611059565b820191906000526020600020905b81548152906001019060200180831161103c57829003601f168201915b505050505081526020016006820160009054906101000a900473ffffffffffffffffffffffffffffffffffffffff1673ffffffffffffffffffffffffffffffffffffffff1673ffffffffffffffffffffffffffffffffffffffff168152505090508060a00151915050919050565b6000811180156110d957506001548111155b61114b576040517f08c379a00000000000000000000000000000000000000000000000000000000081526004018080602001828103825260178152602001807f506f737420646f6573206e6f742065786973742079657400000000000000000081525060200191505060405180910390fd5b611153611a74565b600260008381526020019081526020016000206040518060e001604052908160008201548152602001600182018054600181600116156101000203166002900480601f0160208091040260200160405190810160405280929190818152602001828054600181600116156101000203166002900480156112145780601f106111e957610100808354040283529160200191611214565b820191906000526020600020905b8154815290600101906020018083116111f757829003601f168201915b50505050508152602001600282018054600181600116156101000203166002900480601f0160208091040260200160405190810160405280929190818152602001828054600181600116156101000203166002900480156112b65780601f1061128b576101008083540402835291602001916112b6565b820191906000526020600020905b81548152906001019060200180831161129957829003601f168201915b505050505081526020016003820160009054906101000a900460ff1615151515815260200160048201548152602001600582018054600181600116156101000203166002900480601f01602080910402602001604051908101604052809291908181526020018280546001816001161561010002031660029004801561137d5780601f106113525761010080835404028352916020019161137d565b820191906000526020600020905b81548152906001019060200180831161136057829003601f168201915b505050505081526020016006820160009054906101000a900473ffffffffffffffffffffffffffffffffffffffff1673ffffffffffffffffffffffffffffffffffffffff1673ffffffffffffffffffffffffffffffffffffffff16815250509050600181606001901515908115158152505080600260008481526020019081526020016000206000820151816000015560208201518160010190805190602001906114299291906119f4565b5060408201518160020190805190602001906114469291906119f4565b5060608201518160030160006101000a81548160ff0219169083151502179055506080820151816004015560a082015181600501908051906020019061148d9291906119f4565b5060c08201518160060160006101000a81548173ffffffffffffffffffffffffffffffffffffffff021916908373ffffffffffffffffffffffffffffffffffffffff1602179055509050507f5841c97c89c19303984ce960b871fabf32fe15fc7bb40fa6c53bf2ffea6884bc60015482602001518360400151846060015185608001518660a001518760c0015160405180888152602001806020018060200187151515158152602001868152602001806020018573ffffffffffffffffffffffffffffffffffffffff1673ffffffffffffffffffffffffffffffffffffffff16815260200184810384528a818151815260200191508051906020019080838360005b838110156115aa57808201518184015260208101905061158f565b50505050905090810190601f1680156115d75780820380516001836020036101000a031916815260200191505b50848103835289818151815260200191508051906020019080838360005b838110156116105780820151818401526020810190506115f5565b50505050905090810190601f16801561163d5780820380516001836020036101000a031916815260200191505b50848103825286818151815260200191508051906020019080838360005b8381101561167657808201518184015260208101905061165b565b50505050905090810190601f1680156116a35780820380516001836020036101000a031916815260200191505b509a505050505050505050505060405180910390a15050565b60008251116116ca57600080fd5b60008351116116d857600080fd5b6001600081548092919060010191905055506040518060e00160405280600154815260200184815260200183815260200160001515815260200160015481526020018281526020013373ffffffffffffffffffffffffffffffffffffffff168152506002600060015481526020019081526020016000206000820151816000015560208201518160010190805190602001906117759291906119f4565b5060408201518160020190805190602001906117929291906119f4565b5060608201518160030160006101000a81548160ff0219169083151502179055506080820151816004015560a08201518160050190805190602001906117d99291906119f4565b5060c08201518160060160006101000a81548173ffffffffffffffffffffffffffffffffffffffff021916908373ffffffffffffffffffffffffffffffffffffffff1602179055509050507fd8e8bafc1b5499071e8043a47ad360a2a77c26e33278fb9b550a446e2c05ad2160015484846000600154863360405180888152602001806020018060200187151515158152602001868152602001806020018573ffffffffffffffffffffffffffffffffffffffff1673ffffffffffffffffffffffffffffffffffffffff16815260200184810384528a818151815260200191508051906020019080838360005b838110156118e15780820151818401526020810190506118c6565b50505050905090810190601f16801561190e5780820380516001836020036101000a031916815260200191505b50848103835289818151815260200191508051906020019080838360005b8381101561194757808201518184015260208101905061192c565b50505050905090810190601f1680156119745780820380516001836020036101000a031916815260200191505b50848103825286818151815260200191508051906020019080838360005b838110156119ad578082015181840152602081019050611992565b50505050905090810190601f1680156119da5780820380516001836020036101000a031916815260200191505b509a505050505050505050505060405180910390a1505050565b828054600181600116156101000203166002900490600052602060002090601f016020900481019282601f10611a3557805160ff1916838001178555611a63565b82800160010185558215611a63579182015b82811115611a62578251825591602001919060010190611a47565b5b509050611a709190611ac9565b5090565b6040518060e001604052806000815260200160608152602001606081526020016000151581526020016000815260200160608152602001600073ffffffffffffffffffffffffffffffffffffffff1681525090565b611aeb91905b80821115611ae7576000816000905550600101611acf565b5090565b9056fea265627a7a723158209393892881afe757813045fb3ee8a3a38a1a98101cf64d83a82aba857d43f57c64736f6c63430005100032",
  "source": "pragma solidity >=0.4.16 <0.7.0;\r\n//pragma experimental ABIEncoderV2;\r\n\r\ncontract SocialNetwork {\r\n    // State variable\r\n    string public name;\r\n    uint public postCount = 0;\r\n\r\n    mapping(uint => Post) public posts;\r\n\r\n    struct Post {\r\n        uint id;\r\n        string articleName;\r\n        string content;\r\n        bool approvalStatus;\r\n        uint prevId;\r\n        string filehash;\r\n        address payable author;\r\n    }\r\n\r\n    event PostCreated(\r\n        uint id,\r\n        string articleName,\r\n        string content,\r\n        bool approvalStatus,\r\n        uint prevId,\r\n        string filehash,\r\n        address payable author\r\n    );\r\n\r\n    event PostModified(\r\n        uint id,\r\n        string articleName,\r\n        string content,\r\n        bool approvalStatus,\r\n        uint prevId,\r\n        string filehash,\r\n        address payable author\r\n    );\r\n\r\n   event PostTipped(\r\n    uint id,\r\n    string articleName,\r\n    string content,\r\n    bool approvalStatus,\r\n    uint prevId,\r\n    string filehash,\r\n    address payable author\r\n);\r\n\r\n event PostApproved(\r\n    uint id,\r\n    string articleName,\r\n    string content,\r\n    bool approvalStatus,\r\n    uint prevId,\r\n    string filehash,\r\n    address payable author\r\n);\r\n\r\n    // Constructor function\r\n    constructor () public {\r\n        name = \"Airport Database\";\r\n    }\r\n\r\n   function createPost(string memory _articleName, string memory _content, string memory filehash) public {\r\n    // Require valid content\r\n    require(bytes(_content).length > 0);\r\n    require(bytes(_articleName).length > 0);\r\n    // Increment the post count\r\n    postCount ++;\r\n    // Create the post\r\n    posts[postCount] = Post(postCount,_articleName, _content, false,postCount,filehash,msg.sender);\r\n    // Trigger event\r\n    emit PostCreated(postCount, _articleName, _content,false, postCount,filehash, msg.sender);\r\n}\r\n\r\nfunction getHash(uint _id) public view returns (string memory){\r\n  require(_id > 0 && _id <= postCount);\r\n    // Fetch the post\r\n    Post memory _post = posts[_id];\r\n    // Fetch the author\r\n   return _post.filehash;\r\n}\r\n\r\n function modifyPost(uint _id, string memory _articleName, string memory _content, string memory filehash) public {\r\n    //Require valid ID\r\n    require(_id > 0 && _id <= postCount);\r\n    // Require valid content\r\n    require(bytes(_content).length > 0);\r\n    require(bytes(_articleName).length > 0);\r\n    // Increment the post count\r\n   // Post memory _post = posts[_id];\r\n   \r\n    postCount ++;\r\n\r\n    // Create the post\r\n    posts[postCount] = Post(postCount,_articleName, _content,false, _id,filehash, msg.sender);\r\n    // Trigger event\r\n    emit PostModified(postCount, _articleName, _content,false, _id,filehash,msg.sender);\r\n}\r\n\r\n    function approvePost(uint _id) public payable {\r\n        // Make sure the id is Valid\r\n        require(_id > 0 && _id <= postCount, \"Post does not exist yet\");\r\n        // Fetch the post\r\n        Post memory _post = posts[_id];\r\n        // Increment the tip Amount\r\n        _post.approvalStatus = true;\r\n        // Update the post\r\n        posts[_id] = _post;\r\n        // Trigger an event\r\n        emit PostApproved(\r\n            postCount,\r\n            _post.articleName,\r\n            _post.content,\r\n            _post.approvalStatus,\r\n            _post.prevId,\r\n            _post.filehash,\r\n            _post.author\r\n        );\r\n    }\r\n}",
  "sourcePath": "D:/Suhaib/Programs/DAPPS/SIH - 2020 Knowledge Management System/client/src/contracts/SocialNetwork.sol",
  "compiler": {
    "name": "solc",
    "version": "0.5.16+commit.9c3226ce.Emscripten.clang"
  },
  "schemaVersion": "3.2.2",
  "updatedAt": "2020-07-22T16:20:05.885Z",
  "networkType": "ethereum",
  "devdoc": {
    "methods": {}
  },
  "userdoc": {
    "methods": {}
  }
}